:0A04D20078007441F278057464F2BA
:2004E700AF828F06BE08028021BE0D028005BE7F36801775820A124DBE7801E224BEF58298
:20050700E43400F583E4F0D201227801E2606A758208124DBE758220124DBE758208124DA8
:20052700BE7801E214F2227801E2B4450050448F82C007C006127542E582D006D007603977
:200547008F82C007C006127510E582D006D00760055306DF80028F068E077801E2FE780130
:2005670004F2EE24BEF582E43400F583EFF08F82024DBEC2007801E4F222AF82BF2B0280DA
:20058700047804E4F27804C3E2F5F0740495F0402C7804E275F003A49005A3730205C802A9
:2005A70005B20205B20205B90205C87804E22401F22278047404F278057464F2227804E4EF
:2005C700F278057464F2227805E2603B7805E214F27805E270317804E260087804E2B4047E
:2005E70026800678047401F222D2007804E4F29000BE7441F09000BF7454F09000C0E4F001
:2006070078017402F2D20122E5812404F5817C007D007E007F007802E224BEF582E4340036
:20062700F583E0FBF582C007C006C005C004C00312708DE582D003D004D005D006D0076011
:200647006D900693ECF0EDA3F0EEA3F0EFA3F090000AE4F5F0C00312720EAF82AE83ADF0E7
:20066700FCD0038B027B00EA24D0FAEB34FFFBE58124FDF8A60208A603EB3395E008F6083A
:20068700F6E58124FDF8E62FF608E63EF608E63DF608E63CF6E58124FDF8860408860508CC
:2006A70086060886077802E22401F202061D8C828D838EF0EFC8E58124FCF581C822200120
:2006C70001227801E2B40200E433FF600302074E9000BEE0FEBE526F9000BFE0FEBE5467BE
:2006E70078027403F278017902C3E2F5F0E395F0501B7802E224BEF582E43400F583E0FE9C
:20070700BE2C0280087802E22401F280D87802E224BEF582E43400F583E0FEBE2C1C7802F0
:20072700E2FE780204F2EE24BEF582E43400F583E4F012060F12571D800690FFFF12571D70
:200747007801E4F2C20122EF70699000BEE0FFBF41619000BFE0FFBF54599000C0E0FF60DF
:2007670023BF26028023BF2B028023BF49028023BF4F028028BF5002801EBF53028027BFA8
:200787005A2E80271207C1802A120A0F8025120C5280201207FF801B120AEA80167805747F
:2007A70064F2C200800D12097E800843EF1080FE1207E07801E4F2C201227854E2C0E00829
:2007C700E2C0E074C0C0E07477C0E07480C0E0123816E58124FBF581227854E2C0E008E2E8
:2007E700C0E074C9C0E07477C0E07480C0E0123816E58124FBF581229000C1E0FF6037BF53
:2008070030028032BF31028058BF3203020893BF33030208B9BF34030208E2BF35030209F6
:200827000BBF360302091DBF3703020920BF380302092302097B745BC0E0747AC0E07480C3
:20084700C0E07854E2C0E008E2C0E074D5C0E07477C0E07480C0E0123816E58124F8F581B9
:20086700227471C0E0747AC0E07480C0E07854E2C0E008E2C0E074D5C0E07477C0E0748068
:20088700C0E0123816E58124F8F581227482C0E0E4C0E07854E2C0E008E2C0E074DEC0E053
:2008A7007477C0E07480C0E0123816E58124F9F58122780DE2FE7F00C006C0077854E2C0B8
:2008C700E008E2C0E074DEC0E07477C0E07480C0E0123816E58124F9F58122780EE2FE7F36
:2008E70000C006C0077854E2C0E008E2C0E074DEC0E07477C0E07480C0E0123816E5812491
:20090700F9F581227F008F82C007122D07D0070FBF130040F1220267FD024E677854E2F5D7
:20092700F008E245F070207854E2C0E008E2C0E074E7C0E07477C0E07480C0E0123816E5DA
:200947008124FBF581802C1263EF9202E433FE7F00C006C0077854E2C0E008E2C0E074F871
:20096700C0E07477C0E07480C0E0123816E58124F9F581220207E078027403F212060FAC97
:2009870082AD83AEF0FFBC130040030207E07802E224BEF582E43400F583E0FFBF3D028064
:2009A70036BF3F618C821228E8AB82AD83AEF0FFC003C005C006C0077854E2C0E008E2C064
:2009C700E07407C0E07478C0E07480C0E0123816E58124F7F58122EC602B7802E22401F292
:2009E700C00412060FAB82AD83AEF0FFD0047841EBF208EDF208EEF208EFF28C821226F6AD
:200A070050030207C10207E09000C1E0FFBF46028012BF54028053BF55028014BF570280D6
:200A270009020AE7122BD50207C1122B6C0207C19006897411F07478A3F07480A3F090003A
:200A4700C275F000127111E5828583F045F0701775B7A575B7F1758F0390F7FE74FFF07567
:200A67008F0043EF1080FE0207E09006897417F07478A3F07480A3F09000C275F00012715D
:200A870011E5828583F045F070057803E4F2229006897418F07478A3F07480A3F09000C2CF
:200AA70075F000127111E5828583F045F070077803E26401F222900689741EF07478A3F035
:200AC7007480A3F09000C275F000127111E5828583F045F070077803E26402F2220207E072
:200AE7000207E09000C1E0FFBF50028003020B957F008F057E00C007C005C0067854E2C04F
:200B0700E008E2C0E07423C0E07478C0E07480C0E0123816E58124F9F581D0078F82C00705
:200B270012325FD007501BC0077430C0E07478C0E07480C0E0123816158115811581D007A5
:200B47008019C0077438C0E07478C0E07480C0E0123816158115811581D0078F82C00712DF
:200B670034179203E433FD7E00C005C0067440C0E07478C0E07480C0E0123816E58124FB18
:200B8700F581D0070FBF06005003020AF9229000C2E0FFBF3D0D9000C3E0F58212708DE5DB
:200BA7008270030207E09000C3E024D0FF9000C1E0FEBE4302805EBE49028016BE4F0280EC
:200BC70008BE52028015020C4CD2118F82122F9E8076C2118F82122F9E806D8F82C00712A2
:200BE700325FD007402C8F82123436AE827D00C006C0057854E2C0E008E2C0E07449C0E020
:200C07007478C0E07480C0E0123816E58124F9F581220207E09000C5E0F582C00712708DC7
:200C2700E582D007601C9000C5E0FE3395E0FDEE24D0FEED34FF4E24FF92138F8212327D33
:200C470040060207E00207E00207C178027404F212060FAC82AD83AEF09000C1E0FFBF4174
:200C670003020D6DBF43028053BF4C03020D5FBF50028003020DB59000C2E0FFBF3D028094
:200C870003020DB578027405F212060F7806C0E0E582F208E583F208E5F0F2D0E008F278B0
:200CA70006E254FFFA08E2540008E2540008E254008AFC75820112445C0207C17802E224C4
:200CC700BEF582E43400F583E0FFBF3D028041BF3F028003020DB58C82122E80AF827806E6
:200CE700EFF208E4F208F208F27806E2C0E008E2C0E008E2C0E008E2C0E07456C0E0747846
:200D0700C0E07480C0E0123816E58124F9F581227802E22401F2C00412060F7806C0E0E5BC
:200D270082F208E583F208E5F0F2D0E008F2D0047806E254FFFB08E2540008E2540008E275
:200D47005400C0038C82122E331581920450051207C180030207E022122ECF50051207C1CD
:200D670080030207E0229000C2E0FFBF3D4078027405F212060F7806C0E0E582F208E5837E
:200D8700F208E5F0F2D0E008F27806E2B4010C08E2700808E2700408E26002800875820233
:110DA70012445C800675820312445C0207C10207E0A4
:2077C0005B25755D204F4B0A005B25755D204552524F520A005B25755D2025730A005B25F9
:2077E000755D2025750A005B25755D2053796E633A20426173650A005B25755D2053796E59
:20780000633A2025750A005B25755D20256C750A00504441544500003D52535349003D5408
:20782000444D005B25755D2050696E3A256420004F75747075742000496E7075742020003A
:1B78400056616C3A2025750A005B25755D2076616C3A25750A00256C750A0069
:200DB800AF827E007D00AB08AC098F021FEA603B8B828C83E0FAA3AB82AC83ED2DF9ED302D
:200DD800E714890009E890795B936EFDE990795B93F86AFE80D4890009E890785B93F86EBA
:1B0DF800FDE990785B93F96AFE80BF8D07E4FDFCEE4205EC42078D828F832246
:20785B000000102120423063408450A560C670E781089129A14AB16BC18CD1ADE1CEF1EF0D
:20787B00123102103273225252B5429472F762D693398318B37BA35AD3BDC39CF3FFE3DECD
:20789B00246234430420140164E674C744A45485A56AB54B85289509E5EEF5CFC5ACD58D8D
:2078BB00365326721611063076D766F6569546B4B75BA77A97198738F7DFE7FED79DC7BC4D
:2078DB0048C458E5688678A70840186128023823C9CCD9EDE98EF9AF89489969A90AB92B0D
:2078FB005AF54AD47AB76A961A710A503A332A12DBFDCBDCFBBFEB9E9B798B58BB3BAB1ACD
:20791B006CA67C874CE45CC52C223C030C601C41EDAEFD8FCDECDDCDAD2ABD0B8D689D498C
:20793B007E976EB65ED54EF43E132E321E510E70FF9FEFBEDFDDCFFCBF1BAF3A9F598F784C
:20795B00918881A9B1CAA1EBD10CC12DF14EE16F108000A130C220E350044025704660670C
:20797B0083B99398A3FBB3DAC33DD31CE37FF35E02B1129022F332D24235521462777256CC
:20799B00B5EAA5CB95A88589F56EE54FD52CC50D34E224C314A0048174666447542444058C
:2079BB00A7DBB7FA879997B8E75FF77EC71DD73C26D336F2069116B066577676461556344C
:2079DB00D94CC96DF90EE92F99C889E9B98AA9AB584448657806682718C008E1388228A30C
:2079FB00CB7DDB5CEB3FFB1E8BF99BD8ABBBBB9A4A755A546A377A160AF11AD02AB33A92CC
:207A1B00FD2EED0FDD6CCD4DBDAAAD8B9DE88DC97C266C075C644C453CA22C831CE00CC18B
:207A3B00EF1FFF3ECF5DDF7CAF9BBFBA8FD99FF86E177E364E555E742E933EB20ED11EF04B
:200E130075B7A575B7F122D310AF01C3C0D0AF8474035F4430F584C007120E13D007758FFE
:200E33000390F80074FFF0758F008F84D0D092AF22D310AF01C3C0D0AE82AF83AD847403A7
:200E53005D4430F584758F004307F88E828F83E493FF758F008D848F82D0D092AF22D3104B
:200E7300AF01C3C0D0AE82AF83AD8474035D4430F584C007C006C005120E13D005D006D008
:190E930007758F054307F88E828F83780AE2F08D84758F00D0D092AF2266
:02F7FE003DC20A
:200EAC00AF83E582900137F0EFA3F0900137E0FEA3E0FF900136E0FD7C008D027B001ABA2D
:200ECC00FF011B8C007900C3E89AE964808BF063F08095F05046C007C006C005C004126ED5
:200EEC0006AA82D004D005D006D0078DF0EA84E5F02EFAE43FFB8A828B83E0F50AC005ECAE
:200F0C002EF8E43FFD88828D83E0F98A828B83F088828D83E50AF00CD005809E22AF83E551
:200F2C0082900139F0EFA3F07F00780BC3E2F5F0EF95F0500FEF2404F582E43401F583EF7A
:200F4C00F00F80E6900139E0FEA3E0FF8E828F83126E60780BE2FF7E008F047D001CBCFF2B
:200F6C00011D8E027B00C3EA9CEB64808DF063F08095F05042C007C006126E06AC82D006A6
:200F8C00D0078FF0EC84E5F02404FCE43401FD8C828D83E0F50BC007EE2404FAE43401FF83
:200FAC008A828F83E0FB8C828D83F08A828F83E50BF00ED00780A222780CE22404F582E40E
:200FCC003401F583E0F58222780BE2F5F0E484E5F02404F582E43401F583E0F58222780C2B
:200FEC00E2F58222E58290013DF0780CF222780CE2FE7F000EBE00010F780B90068FE2F074
:20100C00E4A3F08E828F831271A5AE82AF83780CEEF220050C780B790CE2F5F0E484E5F000
:07102C00F322A20692052247
:060400000204790244FD34
:01040B0032BE
:0104130032B6
:01041B0032AE
:030423000246434B
:03042B0002690F54
:010433003296
:01043B00328E
:010443003286
:01044B00327E
:010453003276
:01045B00326E
:010463003266
:01046B00325E
:0304730002688597
:0304E40002047699
:030476000210333E
:20103300758433AFC4780DEFF2AFC3780EEFF2121103122A7B4003122BD57582011228E873
:20105300AC828C821247FE1211A87582061228E8AC8290015EECF07582071228E8AC82AD0C
:2010730083AEF0FFEC4D4E4F24FF92087582051228E8AC82AD83AEF0FFEC4D4E4F24FF9206
:201093000775820E1228E8AC82AD83AEF0FFEC4D4E4F24FF9209123BCE40157475C0E07413
:2010B3007AC0E07480C0E01210C9158115811581122F4F02580A907A8F75F08012755BE589
:2010D3008124FCFFC007E58124FBF886820886830886F012358E1581907A9A75F080127507
:2010F3005BD2AFD2AC9003E812690643EF1080FE75A700AFD974BF5FF5D943B28075A90030
:2011130075B64075FF807E5E7F011EBEFF011FEE4F70F775EF0675D4CF75D5FF75D62875AF
:20113300A41075A70F75A41075A70075E10143E24143A6FD75A70F43A5F575A6FD43B1C001
:2011530043A1C043A50143A50143FA2043A32075A70275A14075F80075A20043F801D2A3FA
:2011730075A700C2891269B575B800D2AFD2B7C2B6D2EF75BCF975BA0075BB1B75D10775EF
:20119300D2FF43D98875DF0075FC8075DA4275D84075E34022123C0D4015749BC0E0747A5D
:2011B300C0E07480C0E01210C9158115811581780DE2B44302801C780DE2B44702804378A0
:2011D3000DE2B48602806A780DE2B4910302127102129E781B7490F20874D1F20874CFF2FC
:2011F300087419F2781F7470F208745EF20874EAF2087419F27827740AF2780B740AF20239
:2012130012D5781B7480F20874A1F2087403F208741CF2781F74C0F20874E3F2087412F2C3
:2012330008741CF27827740AF2780B740AF20212D5781BE4F20874A1F20874BCF2087433D5
:20125300F2781F7440F20874E3F20874CBF2087433F27827740AF2780B740AF28064781BA8
:2012730074C0F20874CAF2087489F2087436F2781FE4F2087428F2087450F2087437F27884
:20129300277414F2780B7432F28037781BE4F208F208F208F2781FE4F208F208F208F2789E
:2012B30027E4F2780DE2FA7B00C002C00374B3C0E0747AC0E07480C0E01210C9E58124FB64
:2012D300F58175820A1228E8AA82AB83AEF0FFEA4B4E4F601175820A1228E8AC82AD83AEF9
:2012F300F0FF780BECF27582081228E8AC82AD83AEF0FFEC4D4E4F60377582081228E8AC35
:2013130082AD83AEF0FF900693ECF0EDA3F0EEA3F0EFA3F09003E8E4F5F012720E781BC0BA
:20133300E0E582F208E583F208E5F0F2D0E008F27582091228E8AC82AD83AEF0FFEC4D4EE2
:201353004F60377582091228E8AC82AD83AEF0FF900693ECF0EDA3F0EEA3F0EFA3F090035C
:20137300E8E4F5F012720E781FC0E0E582F208E583F208E5F0F2D0E008F27582041228E88F
:20139300AC82AD83AEF0FFEC4D4E4F60117582041228E8AC82AD83AEF0FF7827ECF27827C4
:2013B300E2FB7D007E007F007845E4F208F208F208F27849741EF208E4F208F208F28B821E
:2013D3008D838EF0EF122DAEAC827827ECF2780BE2FC7D007E007F0078457401F208E4F208
:2013F30008F208F278497432F208E4F208F208F28C828D838EF0EF122DAEAC82AD83AEF047
:20141300FF780BECF2780DE2B44302801E780DE2B447030214CD780DE2B4860302155E7882
:201433000DE2B491030215EF02167D78457480F2087423F20874ADF2087418F27849E4F25B
:2014530008740BF208746BF208741BF2781BE2F58208E2F58308E2F5F008E2122DAE781B17
:20147300C0E0E582F208E583F208E5F0F2D0E008F278457480F2087423F20874ADF20874BA
:2014930018F27849E4F208740BF208746BF208741BF2781FE2F58208E2F58308E2F5F00894
:2014B300E2122DAE781FC0E0E582F208E583F208E5F0F2D0E008F202169C78457480F20880
:2014D3007474F20874D2F208741AF278497480F20874CEF2087434F208741DF2781BE2F5DD
:2014F3008208E2F58308E2F5F008E2122DAE781BC0E0E582F208E583F208E5F0F2D0E008DA
:20151300F278457480F2087474F20874D2F208741AF278497480F20874CEF2087434F208EC
:20153300741DF2781FE2F58208E2F58308E2F5F008E2122DAE781FC0E0E582F208E583F22B
:2015530008E5F0F2D0E008F202169C78457440F20874B6F208749AF2087432F278497440A7
:20157300F2087410F20874FDF2087434F2781BE2F58208E2F58308E2F5F008E2122DAE786F
:201593001BC0E0E582F208E583F208E5F0F2D0E008F278457440F20874B6F208749AF208B2
:2015B3007432F278497440F2087410F20874FDF2087434F2781FE2F58208E2F58308E2F55D
:2015D300F008E2122DAE781FC0E0E582F208E583F208E5F0F2D0E008F202169C7845E4F27F
:2015F3000874A1F20874BCF2087433F2784974C0F20874F7F20874BAF2087437F2781BE270
:20161300F58208E2F58308E2F5F008E2122DAE781BC0E0E582F208E583F208E5F0F2D0E0CB
:2016330008F27845E4F20874A1F20874BCF2087433F2784974C0F20874F7F20874BAF208B4
:201653007437F2781FE2F58208E2F58308E2F5F008E2122DAE781FC0E0E582F208E583F2F0
:2016730008E5F0F2D0E008F2801F780DE2FE7F00C006C00774B3C0E0747AC0E07480C0E0E5
:201693001210C9E58124FBF581781F791BE2F5F0E3B5F01D08E2F5F009E3B5F01408E2F567
:2016B300F009E3B5F00B08E2F5F009E3B5F0028002801A781B791FE22440F308E234420940
:2016D300F308E2340F09F308E2340009F375820B1228E8AC82789FECF27F007E007D007888
:2016F30045E4F208F208F208F278497464F208E4F208F208F28C828F838EF0ED122DAEAC4D
:2017130082789FECF27841ECF208E4F208F208F275820B1226F675820C1228E8AC82AD8323
:20173300AEF0FF78A3ECF2EC60337F007E007D0078457419F208E4F208F208F2784974DCE8
:20175300F208E4F208F208F28C828F838EF0ED122DAEAC82AD83AEF0FF78A3ECF278A379B2
:2017730041E2F309E4F309F309F375820C1226F690066E74E8F07403A3F0E4A3F0E4A3F0EF
:20179300781BE2F58208E2F58308E2F5F008E2126EB0AC82AD83AEF0FF7841ECF208EDF286
:2017B30008EEF208EFF27582081226F690066E74E8F07403A3F0E4A3F0E4A3F0781FE2F562
:2017D3008208E2F58308E2F5F008E2126EB0AC82AD83AEF0FF7841ECF208EDF208EEF208C0
:2017F300EFF27582091226F6780B7941E2F309E4F309F309F375820A1226F6781F791BE3A0
:20181300F5F0C3E295F0FC09E3F5F008E295F0FD09E3F5F008E295F0FE09E3F5F008E295DF
:20183300F0FF780BE2FA7B0074022AFAE43BFB90066EEAF0EBA3F0EB3395E0A3F0A3F08C77
:20185300828D838EF0EF126EB07823C0E0E582F208E583F208E5F0F2D0E008F27826E2C394
:2018730013FF18E213FE18E213FB18E213FA781BE22AF208E23BF208E23EF208E23FF275D7
:2018930082031228E8126E60780BC3E2F5F0740595F05054126E06AE82AF83900687EEF01C
:2018B300EFA3F09002711270F1AE82E583FF3395E0FDFC7823900663E2F008E2A3F008E218
:2018D300A3F008E2A3F08E828F838DF0EC126C22AC82AD83AEF0FF781BE22CF208E23DF213
:2018F30008E23EF208E23FF2781BE2F58208E2F58308E2F5F008E2123C447823E2F582080B
:20191300E2F58308E2F5F008E2123C807582031228E8AC82AD83AEF0FF780B900663E2F06E
:20193300E4A3F0E4A3F0E4A3F08C828D838EF0EF126C22AC828C82123CCF7582021228E890
:20195300AC828C82123CF940337582021228E8AC828C82123CF940247582021228E8AC8233
:201973008C82123CF9401574CAC0E0747AC0E07480C0E01210C9158115811581123933AFD0
:20199300827841EFF208E4F208F208F27582021226F67582031228E8123FFC75820F122876
:2019B300E81240537582121228E81263F27582101228E81264017582111228E8AC828C82EF
:2019D30012640D7827E2F582123FB6123FF6AF827841EFF208E4F208F208F275820412265B
:0D19F300F67582031228E8120F2902641411
:207A5B004D502053694B20322E36206F6E205246443930305000322E36006661696C6564B4
:207A7B0020746F20656E61626C65207265636569766572000A2A2A50414E49432A2A0000CF
:207A9B00726164696F5F696E697469616C697365206661696C65640062616420626F6172C2
:207ABB0064206672657175656E637920256400726164696F5F636F6E6669677572652066F6
:067ADB0061696C656400A6
:201A0000AF829004E9E0F5737CFF7DFF90035BE0FBBB01047B0680027B0AEB2573FA782AA9
:201A2000F2EA24E8F582E43404F583EFF0782AE22401F278297401F27829792AC3E3F5F062
:201A4000E295F05062C0037829E224E8F582E43404F583E0FA8C75757600E575F5776AF525
:201A600074C454F062748D78757900AA747B008A077E00E5786206E5796207EBC40354F8EF
:201A8000CAC403CA6ACA54F8CA6AFBEA6206EB6207E574C4540F7A006EFCEA6FFD7829E259
:201AA0002401F2D0038091EB2573FB24E8F582E43404F5838C06EEF0EB0424E8F582E4349C
:201AC00004F5838D04ECF02290035BE0FFBF01089001627411F08011BF0208900162741528
:201AE000F080069001627422F0124A12AE82AF83900162E0FDFB7C00C3EE9BEF9C5002C3F4
:201B00002290035BE0FFBF013A90015F74EEF07404A3F0E4A3F09004E874FEF09004E97449
:201B200009F07828E2FF782804F29004EAEFF09004EB7433F09004EC7444F09004ED746D98
:201B4000F0806190015F74F2F07404A3F0E4A3F09004E874FDF09004E97409F09004EAE4C3
:201B6000F09004EBF07828E2FF782804F29004ECEFF09004ED7433F09004EE7444F09003BB
:201B80005BE0FFBF030E9004EF742CF09004F07401F0800B9004EF746DF09004F0E4F09078
:201BA00004F1E4F090035BE0FFBF03028003021C47C0057EF27F047C0074022EFAE43FFBF3
:201BC0008C058A828B838DF074011270A6A3E41270A674042EFAE43FFB8C058A828B838D9B
:201BE000F074021270A6A3E41270A674062EFAE43FFB8C05900682E4F09006837408F0E402
:201C0000A3F08A828B838DF0C007C006C005C004127065D004D005D006D007740E2EFEE4B5
:201C20003FFF900682E4F09006837408F0E4A3F08E828F838CF0C0051270657582D9121A38
:201C400000D005D0058075C00590015FE0FCA3E0FEA3E0FF780FE2FA08E2FB8C828E838F5B
:201C6000F0EA1270A6A3EB1270A674022CF50CE43EF50D8F0E7819E2FB08E2FD850C82855B
:201C80000D83850EF0EB1270A6A3ED1270A674062CFCE43EFEC007C006C004124D8EAD8237
:201CA000D004D006D0078C828E838FF0ED1270A67582B9C005121A00D005D0057882EDF2CC
:081CC0009004E81248F3D3225E
:201CC800AE82AF83E0FDBDFE1E8E828F83A3E0FDBD091474052EFEE43FFF8E828F83E0702F
:201CE8000690035B7401F022E5827835F2124D367836E582F208E583F27B007C0078387442
:201D0800FFF20874FFF27836C3E2940808E294005003021DE98B828C83C004C003124B8510
:201D2800858228D003D00474FEB528028003021DE974012BFEE43CFF8E828F83C004C00383
:201D4800124B85858228D003D004740925285003021DE9C003C004AD287E0074082DFAE43D
:201D68003EFC7835E2F529752A00782BE2FB7F00E529C39BFBE52A9FFFC3EB9AEF64808C1B
:201D8800F063F08095F0D004D003405574082DFDE43EFE7836C3E29D08E29E404474062B50
:201DA800FEE43CFF8E828F83C004C003124B85AF82D003D004BF460C7412B528077838EB85
:201DC800F208ECF274082528F528AA287F007836E2C39AF208E29FF2EA2BFBEF3CFC021D3C
:201DE8000E7838E2F58208E2F58322E58290035CF0E4F52DF52E782F7983E2F390025F1256
:201E08004BBD782FE2FD782BF2783AE2FA08E2FB7C0090067A745FF07402A3F0E4A3F090C5
:201E2800067DEDF0E4A3F08A828B838CF0126FF1782FE4F2783AE2F58208E2F583121CC8DB
:201E480090015EE0FDBD020F90035CE0F582121CF0AC82AD8380047CFF7DFF8C2F8D301219
:201E68004D3685822B85832C90035CE0F53474FFB52F0974FFB5300474018001E4FCC3E53F
:201E88002B9408E52C94005003021FC6C004124B2E858231D00474FEB531028006782BE2D4
:201EA800F58222C004124B4A858231D004740925315003021FC6C00485313275330074082D
:201EC8002532FBE43533FEAA347F00782BE2FC7D00EAC39CFAEF9DFFC3EA9BEF64808EF09C
:201EE80063F08095F0D0045003021FC674082532FEE43533FFC3E52B9EE52C9F5003021FC3
:201F0800C6EC7028E52DB52F07E52EB53002801C900006C004124B85AF82D004BF460D7415
:201F280012B5310874082531F531807074082531F531782BE2245FFEE43402FF7883E53189
:201F4800F28E828F83C004124BBD783A792BE3C5F0E225F0FE08E23400FF7D00782BE22461
:201F68005FFAE43402FB90067AEAF0EBA3F0E4A3F090067DE531F0E4A3F08E828F838DF0DD
:201F8800126FF1783A792BE3C5F0E225F0FE08E23400FF8E828F83121CC8D004782BE22531
:201FA80031F2AE317F00E52BC39EF52BE52C9FF52CEE252DF52DEF352EF52E021E86782B16
:201FC800E2F58222858235124D36858236858337200D16300865200A62782BE2605DC3E5DB
:201FE800369420E53794005052782BC3E2F5F0E53595F05008782BE4F275820022D20AC249
:202008000D783CE2FA08E2FB7C0090067A745FF07402A3F0E4A3F0782B90067DE2F0E4A358
:20202800F08A828B838CF0126FF1782BE2F536753700782BE4F2AB368B8222C20A200E03BE
:202048000220FC782BE2FB7C008B368C37853538753900C3E5389536E53995375065783C3C
:20206800E2FA08E2FE7F0090067A745FF07402A3F0E4A3F090067DE538F0E539A3F08A82E5
:202088008E838FF0126FF1E535245FFEE43402FF90067AEEF0EFA3F0E4A3F0AE357F0090A9
:2020A800067DE536C39EF0E5379FA3F090025F75F000126FF1E536C39535782BF2D20B8574
:2020C800358222783CE2FD08E2FE7F0090067A745FF07402A3F0E4A3F090067DEBF0ECA355
:2020E800F08D828E838FF0126FF1C20ED20B782BE2F58222C20BAE357F00C3EE9536EF95DD
:202108003750048E368F37782BE4F2E53645377003F5822290015EE0FF7053E536453760FE
:2021280043AD367883EDF2783CE2F58208E2F583C005124BBDD005502B783C90067AE2F063
:2021480008E2A3F0E4A3F090067DE536F0E537A3F090025F75F000C005126FF1D005782BB1
:20216800EDF28004782BE4F2782BE2F58222782FE2B40102800302220B7401B53606E4B56C
:20218800370280028079126977AE82AF837830D3E29EF4B3FEB308E29FF4FF7832C3E29E73
:2021A80008E29F5056782BE2FF782B04F2EF245FFFE43402FEC007C006124A79AD82D006DB
:2021C800D0078F828E83EDF0783CE2FD08E2FE7F0090067A745FF07402A3F0E4A3F0782B31
:2021E80090067DE2F0E4A3F08D828E838FF0126FF1782FE4F2782BE2F5822275820022783E
:202208002FE4F2782FE2700302229A782FE2FE7F00C3E5369EE5379F5068126977AE82AF31
:20222800837830D3E29EF4B3FEB308E29FF4FF7832C3E29E08E29F5045AD367883EDF290EC
:20224800025FC005124BBDD005782BEDF2783CE2FC08E2FE7F0090067A745FF07402A3F00A
:20226800E4A3F090067DEDF0E4A3F08C828E838FF0126FF1782FE4F2782BE2F582227582D6
:202288000022783C793AE2F308E209F3853582021DF3E5364537700302243B124B2EAF827D
:2022A800BFFE02800302240C7401B53606E4B537028002802E782BE2600302243B782F74D6
:2022C80001F2126977E5828583F07830F208E5F0F2782DE2FE08E2FF7832EEF208EFF275F3
:2022E800820022124B4AAF82782FEFF2BFF70050208F057E0074082DFDE43EFE7834E2FB4B
:202308007C00C3EB9DEC64808EF063F08095F05033782FE4F2782BE2FE782B04F2EE245FBB
:20232800FEE43402FDC006C005124A79AC82D005D0068E828D83ECF0153674FFB53602158B
:202348003702229A74082FFF782FF2782BE26062783CE2FC08E2FD7E0090067A745FF074B8
:2023680002A3F0E4A3F0782B90067DE2F0E4A3F08C828D838EF0126FF1126977E5828583DB
:20238800F07830F208E5F0F2782FE2FD7E00782D900687E2F008E2A3F08D828E831270F134
:2023A800E5828583F07832F208E5F0F2782BE2F582227E00C3E5369FE5379E5037126977FF
:2023C800E5828583F07830F208E5F0F2782FE2FE7F00782D900687E2F008E2A3F08E828F77
:2023E800831270F1E5828583F07832F208E5F0F275820022783C793AE2F308E209F3853520
:2024080082021DF3782BE2FF782B04F2EF245FFFE43402FEC007C006124A79AD82D006D043
:20242800078F828E83EDF0153674FFB53602153702229A783CE2FD08E2FE7F0090067A745B
:202448005FF07402A3F0E4A3F0782B90067DE2F0E4A3F08D828E838FF0126FF1782BE2F51B
:202468008222A20A22A20B22D20D22E58290035DF07834F222AF83E58290035EF0EFA3F00F
:2024880090035EE0FEA3E0FF90066EEEF0EFA3F0E4A3F0E4A3F090000075F001E4126EB087
:2024A800AC82AD83AEF0FF0CBC00090DBD00050EBE00010F782DECF208EDF222E582900317
:2024C80060F0200F39783EE2FD08E2FE7F00900360E0FCFA7B0090067AEDF0EEA3F0EFA3FC
:2024E800F090067DEAF0EBA3F090016375F000C004126FF1D004782CECF2C20CC322200CB5
:2025080037900360E0FF782CE2B5072C783E90069CE2F008E2A3F0E4A3F090069FEFF0E496
:20252800A3F090016375F000127327E5828583F045F07004C20CD322D20CC322AF82BF136A
:202548000050259003D974FCF090025FC00712355DD0078F82122D07123586AF82782BEF18
:20256800F2EF6004C20AD20E22D2019003D974FCF090025F12355D1206C5123586AF8278B9
:202588002BEFF2EF6004C20AD20E22AE82AF837840C3E2F5F074FC95F05005784074FCF2FE
:2025A80090067AEEF0EFA3F0E4A3F0784090067DE2F0E4A3F090025F75F000126FF1784098
:0925C800E2782BF2C20AD20E22C5
:2025D100AF82BF1300400122EF24ED50030226F4EF240A83F582EF241783F583E473151756
:2025F1002136384D644FF4F4F4F4F4F4F4B1794FCF2626262626262626262626262626260D
:2026110026262626C322AF0F8F82124DD2921022C3E4950F74019510E49511E495124003AB
:202631000226F4C322D322C3741E950FE49510E49511E4951240030226F4C322C322C3749C
:2026510001950FE49510E49511E4951240030226F4C322C37402950FE49510E49511E49579
:202671001240030226F4C32274FFB50F0F74FFB5100AE4B51106E4B5120280028002D32215
:2026910090039DE0FCA3E0FDA3E0FEA3E0FFECB50F0EEDB5100AEEB51106EFB51202C322C9
:2026B1009003A9E0FCA3E0FDA3E0FEA3E0FFC3E50F9CE5109DE5119EE5129F402622C3E52F
:2026D1000F9402E5109400E5119400E51294005012C3E4950F74809510E49511E4951250FB
:2026F10002C322D322AF827841E2F50F08E2F51008E2F51108E2F5128F82C0071225D1D09D
:2027110007400122EF24ED50030228C7EF240A83F582EF241783F583E473C7C7C7C751C733
:20273100152BC7C7C770B7C7557FA7BB932828282827282828282828272728282828282847
:202751007841E2F582C007123FB6123FF6AE82D0077841EEF208E4F208F208F20228C77866
:2027710045E4F208F208F208F278497464F208E4F208F208F27841E2F58208E2F58308E284
:20279100F5F008E2C007122DAEAB82AC83ADF0FED0077841EBF208ECF208EDF208EEF27814
:2027B1009FEBF20228C77841E2F5F008E242F008E242F008E245F0604278457419F208E4FA
:2027D100F208F208F2784974DCF208E4F208F208F27841E2F58208E2F58308E2F5F008E200
:2027F100C007122DAEAB82AC83ADF0FED0077841EBF208ECF208EDF208EEF2784179A3E244
:20281100F30228C77841E2FE90015EF07841EEF208E4F208F208F20228C77841E2F5F00867
:20283100E242F008E242F008E245F024FF920850047E0180027E007841EEF208E4F208F237
:2028510008F280727841E2F5F008E242F008E242F008E245F024FF920950047E0180027E13
:20287100007841EEF208E4F208F208F280487841E2FD08E2FE8D828E83C007124053D00731
:2028910080347841E2FD08E2FE8D828E83C0071263F2D00780207841E2FD08E2FE8D828E11
:2028B10083C007126401D007800C7841E2F582C00712640DD007EF75F004A42461F5827444
:2028D1000335F0F5837841E2F008E2A3F008E2A3F008E2A3F0D322AF82BF13004007900076
:2028F10000E4F5F022EF75F004A42461F582740335F0F583E0FCA3E0FDA3E0FEA3E08C8262
:202911008D838EF0228582138583149003D1E0FCA3E0FD9003D3E0FB8C018D028B007F0099
:20293100E82CF8EF3DFFC3E998EA9F5041E9C39CFEEA9DFFEE2513FEEF3514FF89828A83B2
:20295100C007C006C005C004C003C002C001120E44A882D001D002D003D004D005D006D0B7
:20297100078E828F83E8F009B900B10A80AE8513088514098B82C002C001120DB8AE82AF12
:2029910083D001D002740129FCE43AFD8C828D83C007C006C002C001120E44AD82D001D0E9
:2029B100028D047D0089828A83C005C004120E44AB82D004D005D006D0077A00EB4205EAD8
:2029D1004204EEB50506EFB504028002C322D3228582158583169003D4E0FCA3E0FD90035C
:2029F100D6E0FB8C178D188B027F00EA2CFAEF3DFFC3E5179AE5189F5036E517C39CFEE5CD
:202A1100189DFFEE2515F582EF3516F583780AE0F2851782851883C005C004C003120E7131
:202A3100D003D004D0050517E4B517BB051880B78515088516098B82120DB8AE82AF838E14
:202A510004780AECF2851782851883C007C006120E71D006D00774012517FCE43518FD78A5
:202A71000AEFF28C828D83020E71D310AF01C3C0D0122BD5900000120E44E582FF24B34052
:202A910005BF30005004C3022B657D617E039003D17401F0E4A3F09003D3EFF08D828E8384
:202AB1001229164003022B657582001228E8AC82AD83AEF0FFBC1B0BBD0008BE0005BF00A2
:202AD100028004C3022B657F00EF75F004A42461FD740335F0FE8D828E83E0F50FA3E0F5F7
:202AF10010A3E0F511A3E0F5128F82C007C006C0051225D1D005D006D0074032EF75F007E8
:202B1100A424E1FB747A35F0FC8B828C83A3A3A3E493F9A3E493FAA3E493FBA3E493FC8DB0
:202B3100828E83E9F0EAA3F0EBA3F0ECA3F00FBF4C0040957EAD7F039003D17401F07401C4
:202B5100A3F09003D37424F08E828F8312291640028001D333D0D092AF1322D310AF01C33B
:202B7100C0D0900361741BF0E4A3F0E4A3F0E4A3F0120E1A780A744CF2900000120E717ECF
:202B9100617F039003D47401F0E4A3F09003D6744CF08E828F831229E1780A7424F290010A
:202BB10000120E717EAD7F039003D47401F07401A3F09003D67424F08E828F831229E1D0F3
:202BD100D092AF227F00EF75F004A42461FD740335F0FEEF75F007A424E1FB747A35F0FC0C
:202BF1008B828C83A3A3A3E493F9A3E493FAA3E493FBA3E493FC8D828E83E9F0EAA3F0EBAF
:202C1100A3F0ECA3F00FBF130040BB7F00EF75F006A4FDAEF024ADFBEE3403FC907B66E45B
:202C310093F573A3E493F574A3E493F575A3E493F5768B828C83E573F0E574A3F0E575A3AF
:202C5100F0E576A3F0ED24ADFDEE3403FE74042DFBE43EFC907B6AE493540F8B828C83542A
:202C71000FF5F0E054F045F0F074042DFBE43EFC907B6AE493C4540FFA8B828C83C454F017
:202C9100F5F0E0540F45F0F074052DFDE43EFE907B6BE493FC8D828E83F00FBF06005003F3
:202CB100022C1E22AF827E008F037C007D40EE75F007A424E1F582747A35F0F583E493F8A7
:202CD100A3E493F9A3E493FA900689E8F0E9A3F0EAA3F08B828C838DF0C007C00612711112
:202CF100E5828583F0D006D00745F060060EBE130040B58E822285821974ED2519406EE5C4
:202D11001975F004A42461F582740335F0F583E0F51AA3E0F51BA3E0F51CA3E0F51DE519C3
:202D310075F007A424E1F582747A35F0F583E493FAA3E493FEA3E493FFAC197D00C01AC0ED
:202D51001BC01CC01DC002C006C007C004C0057854E2C0E008E2C0E0746CC0E0747BC0E0CF
:202D71007480C0E0123816E58124F2F58122AF82BF13005021EF75F007A424E1F582747A5D
:202D910035F0F583E493FDA3E493FEA3E493FF8D828E838FF02290000075F00022AC82AD2D
:202DB10083AEF0FF7845C3E2F5F0EC95F008E2F5F0ED95F008E2F5F0EE95F008E2F5F0EFE9
:202DD10095F0500D7845E2FC08E2FD08E2FE08E2FF7849C3E29C08E29D08E29E08E29F50C3
:202DF1000D7849E2FC08E2FD08E2FE08E2FF8C828D838EF0EF22D310AF01C3C0D0AE82AFEC
:202E110083758F0175B7A575B7F18E828F83E58124FDF8E6F0758F00D0D092AF22E493F541
:202E31008222AF82758433EF24E14041A8811818B6FF0280387E0074DE2FFC74FF3EFD8C0E
:202E5100828D83C007C006122E2EAD82D006D007BDFF1A74DE2FFF74FF3EFEA8811818E6B4
:202E7100C0E08F828E83122E071581D322C322AF827E007584337D00ED90F7DE93FC620627
:202E91000DBD1F0040F290F7FDE493FDBDFF02801690F7FDE493FDB5060DEF24E14008EFCF
:202EB10090F7DE93F582227582FF22AF827E0074DE2FFF74FF3EFE8F828E83022E2E7F007B
:202ED10075843390FFFDC007122E2EAE82D007BEFF6A7E008E047D008C028D0374DE2AFAA5
:202EF10074FF3BFB8A828B83C007C006C005C004122E2EAB82D004D005D006D007EB6207A3
:202F1100BBFF1BC004C005747EC0E0747BC0E07480C0E0123816E58124FBF581C3220EBE81
:1E2F31001F0040B0C00790FFFD122E07158174FEC0E090FFFF122E071581D322C322EC
:207AE1009B7B801B000000A27B8039000000AF7B8040000000B97B8019000000BF7B80008D
:207B0100000000C77B8000000000CB7B8000000000D37B8000000000DD7B8000000000E650
:207B21007B8000000000EF7B8000000000FC7B8064000000077C8000000000107C800000F5
:207B410000001B7C8000000000227C8001000000297C80FFFF0000397C8000000000417CD9
:207B61008002000000FFFFFFFF01FF5B25755D205325753A2025733D256C750A0064426DD5
:207B8100206C6576656C202575206E6F742063616C696272617465640A00464F524D415483
:207BA1000053455249414C5F5350454544004149525F5350454544004E4554494400545868
:207BC100504F57455200454343004D41564C494E4B004F5050524553454E44004D494E5F47
:207BE10046524551004D41585F46524551004E554D5F4348414E4E454C5300445554595FA3
:207C01004359434C45004C42545F52535349004D414E4348455354455200525453435453A4
:207C2100004E4F44454944004E4F444544455354494E4154494F4E0053594E43414E590003
:0A7C41004E4F4445434F554E54008A
:202F4F007F00EF75F006A424ADFD740335F0FE8D828E83A3A3A3A3E0540F24FF92118F82B7
:202F6F00C007C006C005122F9ED005D006D0078D828E83A3A3A3A3E0C4540F24FF92138F85
:202F8F0082C00712327DD0070FBF060040B422AF82BF0600400302325DEF75F006A424ADBE
:202FAF00FD740335F0FE8D828E83A3A3A3A3A211E433FC540FF5F0E054F045F0F08D828ECB
:202FCF0083A3A3A3A3A374FFF075A700EF75F002A4FEAFF0244BF582EF347CF583E493FDA9
:202FEF0024FC5003023253ED2D2D902FFD7302300902309C02312F0231C2301122EE244B32
:20300F00FCEF347CFD8C828D83A3E493FD8DF005F07401800225E0D5F0FBFD42A48021EE34
:20302F00244BFCEF347CFD8C828D83A3E493FD8DF005F07401800225E0D5F0FBF4FD52A430
:20304F0075A70F301123EE244BFCEF347CFD8C828D83A3E493FD8DF005F07401800225E03A
:20306F00D5F0FBFD42A4023258EE244BFCEF347CFD8C828D83A3E493FD8DF005F074018081
:20308F000225E0D5F0FBF4FD52A4023258301122EE244BFCEF347CFD8C828D83A3E493FD5A
:2030AF008DF005F07401800225E0D5F0FBFD42A58021EE244BFCEF347CFD8C828D83A3E4B4
:2030CF0093FD8DF005F07401800225E0D5F0FBF4FD52A575A70F301123EE244BFCEF347CB4
:2030EF00FD8C828D83A3E493FD8DF005F07401800225E0D5F0FBFD42A5023258EE244BFC98
:20310F00EF347CFD8C828D83A3E493FD8DF005F07401800225E0D5F0FBF4FD52A50232582D
:20312F00301122EE244BFCEF347CFD8C828D83A3E493FD8DF005F07401800225E0D5F0FBC5
:20314F00FD42A68021EE244BFCEF347CFD8C828D83A3E493FD8DF005F07401800225E0D56D
:20316F00F0FBF4FD52A675A70F301123EE244BFCEF347CFD8C828D83A3E493FD8DF005F041
:20318F007401800225E0D5F0FBFD42A6023258EE244BFCEF347CFD8C828D83A3E493FD8D3C
:2031AF00F005F07401800225E0D5F0FBF4FD52A6023258301122EE244BFCEF347CFD8C8284
:2031CF008D83A3E493FD8DF005F07401800225E0D5F0FBFD42B18021EE244BFCEF347CFD05
:2031EF008C828D83A3E493FD8DF005F07401800225E0D5F0FBF4FD52B175A70F301122EEED
:20320F00244BFCEF347CFD8C828D83A3E493FD8DF005F07401800225E0D5F0FBFD42A180D5
:20322F0028EE244BFEEF347CFF8E828F83A3E493FF8FF005F07401800225E0D5F0FBF4FF00
:20324F0052A1800575A700C32275A700D322C322E58275F006A424ADFE740335F0FF8E8200
:20326F008F83A3A3A3A3E0540F24FF921222E582FF75F006A424ADFD740335F0FE8D828EFB
:20328F0083A3A3A3A3A213E433FCC454F0F5F0E0540F45F0F0BF060040030234158D828E03
:2032AF0083A3A3A3A3A3E0FEBEFF028003023415EF75F002A4FEAFF0244BF582EF347CF5D1
:2032CF0083E493FD24FC5003023411ED2D2D9032E1730232ED0233370233810233C930134D
:2032EF0023EE244BFCEF347CFD8C828D83A3E493FD8DF005F07401800225E0D5F0FBFD4205
:20330F0080023413EE244BFCEF347CFD8C828D83A3E493FD8DF005F07401800225E0D5F078
:20332F00FBF4FD5280023413301323EE244BFCEF347CFD8C828D83A3E493FD8DF005F07401
:20334F0001800225E0D5F0FBFD4290023413EE244BFCEF347CFD8C828D83A3E493FD8DF057
:20336F0005F07401800225E0D5F0FBF4FD5290023413301322EE244BFCEF347CFD8C828D7C
:20338F0083A3E493FD8DF005F07401800225E0D5F0FBFD42A0806DEE244BFCEF347CFD8C09
:2033AF00828D83A3E493FD8DF005F07401800225E0D5F0FBF4FD52A0804A301322EE244BB8
:2033CF00FCEF347CFD8C828D83A3E493FD8DF005F07401800225E0D5F0FBFD42B08025EE61
:2033EF00244BFEEF347CFF8E828F83A3E493FF8FF005F07401800225E0D5F0FBF4FF52B053
:20340F008002C322D322C322E58275F006A424ADFE740335F0FF8E828F83A3A3A3A3E0C42A
:20342F00540F24FF921422AF82BF06004003023526EF75F006A424ADFD740335F0FE7404BB
:20344F002DFDE43EFE8D828E83E0540F6003023526EF75F002A4FEAFF0244BF582EF347CD4
:20346F00F583E493FD24FC5003023522ED2D2D9034827302348E0234B30234D80234FDEEA9
:20348F00244BFCEF347CFD8C828D83A3E493FD8DF005F07401800225E0D5F0FBFDE58052FF
:2034AF00058D8222EE244BFCEF347CFD8C828D83A3E493FD8DF005F07401800225E0D5F06A
:2034CF00FBFDE59052058D8222EE244BFCEF347CFD8C828D83A3E493FD8DF005F074018057
:2034EF000225E0D5F0FBFDE5A052058D8222EE244BFEEF347CFF8E828F83A3E493FF8FF039
:1C350F0005F07401800225E0D5F0FBFFE5B052078F822275827F2275827F22227D
:0C7C4B0003040303010201030101010016
:0804DC00C215C216C217C218B6
:20352B00AF822019058F82024DBE784E794DC3E3F5F0E295F0501A784EE2FE784E04F29019
:20354B0003D7E0FCA3E0FDEE2CF582E43DF583EFF022AF83E5829003DAF0EFA3F09003DA1A
:20356B00E0FEA3E0FF9003D7EEF0EFA3F0784EE4F29003D9E0784DF2D21922C219784EE2E7
:20358B00F58222AD82AE83AFF08D828E838FF012771DFC700122BC250280030237FDC2183E
:2035AB00C217C216C2150DBD00010E8D828E838FF012771DFBBB6802800CBB6C10D2150D83
:2035CB00BD000A0E8007D2170DBD00010E8D828E838FF012771DFBBB63028030BB64028011
:2035EB0018BB6F02802BBB7302800ABB7502800EBB78238010D216801D753A0A8018753AEC
:20360B000AD2188011753A10D218800A753A008005753A08D218301671A8811818E624FDFB
:20362B00FBA8811818A6038B01873B09873C09873D1919C005C006C007AA3BAB3CAF3D8AD5
:20364B00828B838FF012771DD007D006D005700302380EC005C006C007AA3BAB3CAF3D8AD9
:20366B00828B838FF012771DFA053BE4B53B02053C8A82C007C006C00512352BD005D006BE
:20368B00D007D007D006D00580A9301866301521A8811818E624FCFBA8811818A6038B01A1
:2036AB00873E09873F09874009874119191902376430171DA8811818E614F9A8811818A633
:2036CB000187038B3E753F00754000754100023764A8811818E624FEFBA8811818A6038BE6
:2036EB00018702098703198A3E8B3F7540007541008066301520A8811818E624FCFBA881BE
:20370B001818A6038B01873E09873F098740098741191919804330171EA8811818E614FB43
:20372B00A8811818A6038B01E7FBF53E3395E0F53FF540F5418022A8811818E624FEFBA8EE
:20374B00811818A6038B018702098703198A3EEBF53F3395E0F540F541E53A70030237E896
:20376B0030182F900632747AF0E4A3F07440A3F0900635E53AF0853E82853F838540F0E563
:20378B0041C007C006C005126A6FD005D006D007802D90065B747AF0E4A3F07440A3F09054
:2037AB00065EE53AF0853E82853F838540F0E541C007C006C005126B85D005D006D00779D5
:2037CB007AE7FB603E8B82C007C006C005C00112352BD001D005D006D0070980E4AB3E8B1E
:2037EB0082C007C006C00512352BD005D006D00780118C82C007C006C00512352BD005D0EE
:20380B0006D0070DBD00010E023594E58124FCFFC007E58124FBF886820886830886F012AA
:05382B00358E1581221D
:20383000AFF0AE83E5829004D8F0EEA3F0EFA3F0201A02C322784FC3E2F5F074FC95F0502B
:2038500005123BCE80459004D8E0FDA3E0FEA3E0FF8D828E838FF0784FE21270A67862E2FB
:20387000FD08E2FE7F0090067A74DCF07403A3F0E4A3F0784F90067DE2F0E4A3F08D828E43
:20389000838FF0126FF1123BCED322780FE2FE08E2FFBEFF05BFFF02800C0EBE00010F78E2
:2038B0000FEEF208EFF2C322AF8275A702C2A3C2FF75A3FF7864E2FD08E2FE8F041FEC600E
:2038D0001130F9FD8D828E83E0F5A3A3AD82AE8380E930F9FD748055A1FFBF800280F6C215
:2038F000FFD2A375A70022201A057850E26002D3227582311240C4E58230E402D322C32231
:20391000A2A8921CC2A8101B028006A21C92A8D322A21C92A8C3227851E2F5822275822657
:203930000240C4785EE2F582227582081240C4AF8274014FFEC007C00675820812408E1597
:2039500081D0075307FEC00775820812408E1581227582081240C4AF8274024FFEC007C0B9
:203970000675820812408E1581D0075307FDC00775820812408E158122E582FF240350193A
:20399000C0077457C0E0747CC0E07480C0E01210C9158115811581D007C007123939D0071B
:2039B000C007C00775823E12408E1581D007EFFE24DF50027E2078667964E2F308E209F391
:2039D0008E82C007C0061238B8D006D007EFC39EFF7866E22EF208E23400F2C007E4C0E001
:2039F00075820512408E1581E4C0E075820612408E1581C21BC21D7409C0E0758207124025
:203A10008E1581126977AC82AD83D007C007C005C004126977AA82AB83D004D005D007EA45
:203A3000C39CFAEB9DFB7868C3E2F5F0EA95F008E2F5F0EB95F04003023B55758203C007EC
:203A5000C005C0041240C4AB82D004D005D007301D40EF603DEB30E5397E04BF0400500221
:203A70008F0678667964E2F308E209F38E82C007C006C005C0041238B8D004D005D006D0B4
:203A900007EFC39EFF7866E22EF208E23400F2023A1C301D40EF603DEB20E6397E04BF04F0
:203AB0000050028F0678667964E2F308E209F38E82C007C006C005C0041238B8D004D005C8
:203AD000D006D007EFC39EFF7866E22EF208E23400F2023A1CEB30E7201239397811E2FA87
:203AF00008E2FEBAFF05BEFF02800C0ABA00010E7811EAF208EEF2C322758202C007C0053B
:203B1000C0041240C4AB82D004D005D007EB30E105D21D023A1C201D03023A1CEB30E1032F
:203B3000023A1CEF601D7811E2FE08E2FFBEFF05BFFF02800C0EBE00010F7811EEF208EF15
:203B5000F2C322D3227811E2FE08E2FFBEFF05BFFF02800C0EBE00010F7811EEF208EFF2FB
:203B7000C322E5829004DDF0A2A8921FC2A8D2A59004DBE0FEA3E0FFFDC007C006C0057519
:203B9000823A12408E1581D006D007C00675823B12408E15819004DDE0FF786A7966E2F3E2
:203BB00008E209F3786C7968E2F308E209F38F82123989921EC2A5A21F92A8A21E22C2A84C
:203BD000C21A784FE4F2C21B7850E4F27413C0E075820512408E15817440C0E075820612E5
:203BF000408E15811241381239391239617405C0E075820712408E1581D2A8D322900032D8
:203C10001269067582011240C4AF82BFFF028005BF05005002C3221241987582011240C49B
:203C3000E582FF20E006124198922022EF30E102D322C322AC82AD83AEF0FFC3ED941CEE24
:203C5000944EEF940E400E74C09C74F79D74BA9E74379F5002C3227856ECF208EDF208EEE5
:203C7000F208EFF28C828D838EF0EF124204D322AC82AD83AEF0FFC374F09C74E89D742630
:203C90009EE49F5002C322786E7410F2087427F208E4F208F28C828D838EF0EF124144AC25
:203CB00082AD83AEF0FF785AECF208EDF208EEF208EFF2C00475827A12408E1581D322E5B8
:203CD000829004DEF0785FE2FF9004DEE0FEB5070122785FEEF2C00675827912408E1581A6
:203CF000C21B22785FE2F58222AF82C007E4C0E075820512408E1581E4C0E07582061240A2
:203D10008E15811241387415C0E075820B12408E15817412C0E075820C12408E15817582AD
:203D30000012445C74B6C0E075820912408E1581D007EF249B5010C00774C0C0E0758258B2
:203D500012408E1581D0077856E2FB08E2FC08E2FD08E28B828C838DF0C007124204785A1A
:203D7000E2FB08E208E208E2C00375827A12408E1581748DC0E075823012408E15817442FA
:203D9000C0E075823312408E158174CFC0E075823212408E158174FFC0E075824512408E22
:203DB000158174FFC0E075824612408E158174FFC0E075824312408E158174FFC0E07582CA
:203DD0004412408E1581743CC0E075827C12408E15817420C0E075827D12408E158174321C
:203DF000C0E075827E12408E158178617410F27861E2FEC00675823412408E15817428C05D
:203E1000E075823512408E1581758200123FB6D0077E00EE907C7493FDC39F50060EBE0C2F
:203E30000040F0EEFF907C7493FE785EF2BE200040047E0D80027E2D75820DC007C00612FF
:203E500028E8AA82AB83ACF0FDD006D007EA4B4C4D600B785EE2FD247F4003430602C007BC
:203E7000C00675827012408E15817423C0E075827112408E15817444C0E075821D12408E2E
:203E90001581D007785EE2FEBEC8005012C007740AC0E075821E12408E1581D0078010C070
:203EB000077402C0E075821E12408E1581D007780DE2B4433A7E00EE75F00DA42481FC7444
:203ED0007C35F0FDEF2CF582E43DF583E493FDEE907C6893FCC007C006C0058C8212408E64
:203EF0001581D006D0070EBE0C0040CB023FB4780DE2B447397E00EE75F00DA4241DFC74C9
:203F10007D35F0FDEF2CF582E43DF583E493FDEE907C6893FCC007C006C0058C8212408E22
:203F30001581D006D0070EBE0C0040CB8076780DE2B486397E00EE75F00DA424B9FC747D2F
:203F500035F0FDEF2CF582E43DF583E493FDEE907C6893FCC007C006C0058C8212408E154A
:203F700081D006D0070EBE0C0040CB80377E00EE75F00DA42455FC747E35F0FDEF2CF582CC
:203F9000E43DF583E493FDEE907C6893FCC007C006C0058C8212408E1581D006D0070EBEC4
:203FB0000C0040CBD322E5829004DFF07404C0E075826D12408E15819004DFE0FFF582C0A0
:203FD00007122E80AE82D007BEFF0280078EFC7860EFF222EFC313FF907EF193F5FCEF2FF3
:203FF000FF7860EFF2227860E2F58222AF83E5829004E0F0EFA3F09004E0E0FEA3E0FF8EA3
:20401000047852ECF28F057853EDF2200734C007C006C005C00575823C12408E1581D005B6
:20403000D006D007C006C005C00675823D12408E158175824112408E158175824212408E01
:20405000158122AF83E5829004E2F0EFA3F09004E2E0FEA3E0FF7854EEF208EFF28F06C057
:204070000675823F12408E15817854E254FFFE08E25400C00675824012408E158122AF827B
:20409000A2A89238C2A875A702C2A3C2FF74804FF5A330F9FDA881181886A330F9FD7480B1
:2040B00055A1FFBF800280F6C2FFD2A375A700A23892A822AF82A2A89238C2A875A702C22D
:2040D000A3C2FF8FA330F9FD75A30030F9FD748055A1FFBF800280F6AFA3C2FFD2A375A792
:2040F00000A23892A88F8222AF8275A702C2A3C2FF75A37F30FFFD85A3E0E58124FDF88624
:20411000050886068F041FEC6016C2FF75A30030FFFD8D828E83E5A3F0A3AD82AE8380E4DE
:20413000C2FFD2A375A700227582031240C47582040240C4AF82AE83ADF0FC7872EFF2081C
:20415000EEF208EDF208ECF27871E2C313FF18E213FE18E213FB18E213FA7872E22AFA08F0
:20417000E23BFB08E23EFE08E23FFF786E90066EE2F008E2A3F008E2A3F008E2A3F08A828A
:204190008B838EF0EF026EB0E4C0E075820512408E1581E4C0E075820612408E1581124134
:2041B000387481C0E075820712408E15819000021268CD3081071268FE50F8C322E4C0E0F4
:2041D00075820512408E15817402C0E075820612408E15819000141268CD1268FE401375A9
:2041F00082031240C47582041240C4E58230E1EAD322C322AF82AE83ADF0FC7876EFF208F5
:20421000EEF208EDF208ECF27876C3E2F5F0E495F008E2F5F0743895F008E2F5F0749C958C
:20423000F008E2F5F0741C95F040030242FA7877E224C8F208E23463F208E234E3F290066E
:204250006EE4F0742DA3F07431A3F07401A3F07876E2F58208E2F58308E2F5F008E2126EB6
:20427000B0AA829004E4EAF0900693EAF0E4A3F0E4A3F0E4A3F0902D0075F031740112724C
:204290000EAC82AD83AEF0FF7876E2C39CF208E29DF208E29EF208E29FF2786E7471F208B1
:2042B0007402F208E4F208F27876E2F58208E2F58308E2F5F008E21241447876C0E0E582C0
:2042D000F208E583F208E5F0F2D0E008F27876E225E0F208E233F208E233F208E233F2907D
:2042F00004E4E0FF4420F00243BD7877E224E4F208E234B1F208E234F1F290066E7480F01C
:204310007496A3F07498A3F0E4A3F07876E2F58208E2F58308E2F5F008E2126EB0AC82908A
:2043300004E4ECF0900693ECF0E4A3F0E4A3F0E4A3F090968075F098E412720EAC82AD83C8
:20435000AEF0FF7876E2C39CF208E29DF208E29EF208E29FF2786E7471F2087402F208E408
:20437000F208F27876E2F58208E2F58308E2F5F008E21241447876C0E0E582F208E583F2FF
:2043900008E5F0F2D0E008F27876E225E0F208E233F208E233F208E233F2181818E225E071
:2043B000F208E233F208E233F208E233F29004E4E04440F07876E2FC08E2FDC005C0049036
:2043D00004E4E0C0E075827512408E1581D004D0058D07C005C004C00775827612408E1594
:2043F00081D004D005C00475827712408E15812275A70FAEBEE4CE25E0CE33CE25E0CE3396
:20441000FFE5BD23235403FD7C004206EC420775A700D2EC20ECFDADBE7C00AABD7B00EAC2
:204430004204EB4205ECC39EFEED9FFF9006A47402F0E4A3F08E828F83127456E58285839A
:20445000F0242DFCE435F08C82F58322E5829004E5F0FF24FC4068EF2F2F90446E7302447F
:204470007A0244CF0244CF02449F7418C0E075820D12408E15817582081240C4AF82741F24
:204490005F4480FFC00775820812408E1581227582081240C4AF82741F5F4420FFC00775B5
:2044B000820812408E1581740AC0E075820D12408E1581E4C0E075820E12408E15812275BE
:2044D00082081240C4AF8253071FC00775820812408E1581740AC0E075820D12408E1581AE
:2044F0007404C0E075820E12408E158122C027C0E0C0F0C082C083C007C006C005C004C065
:2045100003C002C001C000C0D075D0007582041240C4AF82758203C0071240C4AE82D00750
:20453000EE30E4497850E2FC7D0074322CFCE43DFDC374FC9CE49D50030246087850E22450
:20455000DCFCE43403FDC007C006C004C0057582321240F8158115817850E22432F27582BD
:20457000261240C4E582D006D0077851F2EF30E611D21B758226C0061240C4E582D006786F
:2045900051F2200704EE20E06FEE30E16975824B1240C4E582FF2403405E7850C3E2F5F003
:2045B000EF95F040537850C3E29F50227850E224DCFDE43403FE7850D3E29FF4FCC007C013
:2045D00005C0068C821240F815811581D007784FEFF2D21AE4C0E075820512408E1581E437
:2045F000C0E075820612408E15817402C0E075820712408E1581801E780FE2FE08E2FFBE62
:20461000FF05BFFF02800C0EBE00010F780FEEF208EFF2123BCED0D0D000D001D002D0030D
:13463000D004D005D006D007D083D082D0F0D0E0D02732E3
:207C57006F76657273697A6564207061636B6574001C1F2021222324252A6E6F7202040809
:207C77001013182030406080C0FA2727272E1601050B9A888A8C8D030303030303030303DE
:207C970003030303F4FA7D3F69A77D535E7D5E3F302000010201000101010101020241839E
:207CB700060C37C406895D065D0CAA8912254A4C9C25378625864AAB000102040201020318
:207CD700020202040785080E12728A0E18BB0EBBEAFF1D1D1D1E1E1E2030415050505010AE
:207CF7002041839BC4080C101820314062C58912A69C314A6293C5270003060D1A1E263356
:207D17004D669ACDFEFE2B2B2B2E1601050B9A888A8C8D0303030303030303030303030374
:207D3700F4FA7D3F69A77D535E7D5E3F30200001020100010101010102024183060C37C4FC
:207D570006895D065D0CAA8912254A4C9C25378625864AAB0001020402010203020202047A
:207D77000785080E12728A0E18BB0EBBEAFF1E1E1E21212121304150505050102041839B8B
:207D9700C4080C101820314062C58912A69C314A6293C5270003060D1A1E26334D669ACD1A
:207DB700FEFE010101010101050B9A888A8C8D03030303030303030303030303D0E8F4FA08
:207DD700D3A77D535E7D5E3F30E0602000000001010101010202102041839BC406895D06EC
:207DF7005D0CAA62C58912A69C25378625864AAB00000001010102030202020407234485CE
:207E170008398A0E18BB0EBBEAFF1C1C1C1C1C1E20304150505050102041839BC4080C10FB
:207E37001820314062C58912A69C314A6293C5270003060D1A1E26334D669ACDFEFE010163
:207E570001010101050B9A888A8C8D03030303030303030303030303D0E8F4FAD3A77D531B
:207E77005E7D5E3F30E0602000000001010101010202102041839BC406895D065D0CAA6220
:207E9700C58912A69C25378625864AAB0000000101010203020202040723448508398A0EC9
:207EB70018BB0EBBEAFF1E1E1E1E1E1E20304150505050102041839BC4080C101820314081
:207ED70062C58912A69C314A6293C5270003060D1A1E26334D669ACDFEFEEBE6E0DAD3CE42
:0A7EF700C9C4BEB8B2ABA49688500F
:20464300C027C0E0C0F0C082C083C007C006C005C004C003C002C001C000C0D075D000109A
:20466300980302475FAF9930000E30010302475F8F821204E702475F8F82C007120581D09C
:2046830007787AE22401FD08E23400FEBD0009BE08067D007E00800B787AE22401FD08E206
:2046A3003400FE787CE2B5050708E2B50602803A787AE224ADF58208E23406F583EFF078BE
:2046C3007AE22401FD08E23400FEBD0009BE08067D007E00800B787AE22401FD08E2340011
:2046E300FE787AEDF208EEF2801B7815E2FD08E2FEBDFF05BEFF02800C0DBD00010E78159F
:20470300EDF208EEF2300954787A797CC3E3F5F0E295F009E3F5F008E295F0B3E433FE6001
:204723001B787CE22400FD08E23408FE787AD3E29DF4B3FDB308E29EF4FE8015787C797AAF
:20474300E3F5F0C3E295F0FD09E3F5F008E295F0FEC3ED9440EE94005002D2821099028052
:2047630061787E7980E2F5F0E3B5F00B08E2F5F009E3B5F002804930090A30830720000440
:20478300D221803E7880E224ADF58208E2340EF583E0FF7880E22401FD08E23400FEBD00EB
:2047A30009BE04067D007E00800B7880E22401FD08E23400FE7880EDF208EEF28F9980021E
:2047C300D221D0D0D000D001D002D003D004D005D006D007D083D082D0F0D0E0D0273278F1
:2047E3007E7980E2F5F0E3B5F00A08E2F5F009E3B5F00122302103024A6A22AF8275A700EA
:20480300C2AC787AE4F208F27880E4F208F2787EE4F208F27880E4F208F2D221C28EAE8995
:20482300740F5E4420F5898F82124DF8D28E759810C282D2AC22AF82C007124A12AD82AEA6
:2048430083D007C3ED9401EE94005002C3228F82124858D322AF82A2AC9238C2AC787EE2B6
:204863002401FD08E23400FEBD0009BE04067D007E00800B787EE22401FD08E23400FE7855
:2048830080E2B5050708E2B506028044787EE224ADF58208E2340EF583EFF0787EE22401E7
:2048A300FE08E23400FFBE0009BF04067E007F00800B787EE22401FE08E23400FF787EEEC6
:2048C300F208EFF2302124C027124A6AD027801B7813E2FE08E2FFBEFF05BFFF02800C0ED6
:2048E300BE00010F7813EEF208EFF2A23892AC228582428583437882E2700122124A12AC3C
:2049030082AD837882E2FA7B00C3EC9AED9B501F7882ECF27813E2FC08E2FDBCFF05BDFFAD
:2049230002800C0CBC00010D7813ECF208EDF27882E2FD787ED3E29400F4B3FBB308E294D5
:2049430004F4FC8D027F00C3EB9AEC9F5008787EE2FFC3E49FFD787EE224ADFE08E2340E3A
:20496300FF7C0090067AE542F0E543A3F0E4A3F090067DEDF0E4A3F08E828F838CF0C00596
:20498300126FF1D005ED2542F542E43543F5437882E2C39DF2D22210AF02C2227F00787E72
:2049A300E22DF208E23FF2787EC308E294044006787FE224FCF2A22292AF7882E2603E905D
:2049C300067AE542F0E543A3F0E4A3F07882E2FE7F0090067DEEF0EFA3F0900EAD75F0008F
:2049E300C007C006126FF1D006D007D22210AF02C222787EEEF208EFF2A22292AFD22210A7
:204A0300AF02C222302103124A6AA22292AF22A2AC9223C2AC787E7980C3E3F5F0E295F06B
:204A230009E3F5F008E295F0B3E433FF601B7880E22400FE08E23404FF787ED3E29EF4B3E2
:204A4300FEB308E29FF4FF80157880797EE3F5F0C3E295F0FE09E3F5F008E295F0FFA223AE
:204A630092AC8E828F832230090730830420000122C221D29922A2AC9224C2AC787A797CAE
:204A8300E2F5F0E3B5F00B08E2F5F009E3B5F002803A787CE224ADF58208E23406F583E003
:204AA300FF787CE22401FD08E23400FEBD0009BE08067D007E00800B787CE22401FD08E2E6
:204AC3003400FE787CEDF208EEF280027F00300953787A797CC3E3F5F0E295F009E3F5F0AF
:204AE30008E295F0B3E433FE601B787CE22400FD08E23408FE787AD3E29DF4B3FDB308E261
:204B03009EF4FE8015787C797AE3F5F0C3E295F0FD09E3F5F008E295F0FEC3E49D74049EFF
:204B23005002C282A22492AC8F8222A2AC9225C2AC787CE224ADF58208E23406F583E0FF99
:204B4300A22592AC8F8222A2AC9226C2AC787CE22401FE08E23400FFBE0009BF08067E007E
:204B63007F00800B787CE22401FE08E23400FFEE24ADF582EF3406F583E0FFA22692AC8FC7
:204B83008222AF83E5829004E6F0EFA3F0A2AC9227C2AC9004E6E0FEA3E0FF787CE22EFE98
:204BA30008E23FFF530707EE24ADF582EF3406F583E0FFA22792AC8F8222858244858345E1
:204BC300124D36AC82AD837883E2FA7B00C3EC9AED9B5002C3227884EAF208EBF2787CD301
:204BE300E29400F4B3FAB308E29408F4FB7884C3E2F5F0EA95F008E2F5F0EB95F050137864
:204C03007C7984D3E29400F4B3F3B308E29408F409F3AA44AB457F00787CE224ADFD08E221
:204C23003406FE90067AEDF0EEA3F0E4A3F0788490067DE2F008E2A3F08A828B838FF0124B
:204C43006FF17884E2FC7883E2C39CF27884E22544F54408E23545F545D22810AF02C22826
:204C6300787C7984E3C5F0E225F0F209E3C5F008E235F0F2787CC308E294084006787DE2C3
:204C830024F8F2A22892AF7883E26044AD44AE457F0090067A74ADF07406A3F0E4A3F078F7
:204CA30083E2FB7C0090067DEBF0ECA3F08D828E838FF0C004C003126FF1D003D004D2286F
:204CC30010AF02C228787CEBF208ECF2A22892AFD22810AF02C228300953787A797CC3E3A6
:204CE300F5F0E295F009E3F5F008E295F0B3E433FF601B787CE22400FE08E23408FF787AD2
:204D0300D3E29EF4B3FEB308E29FF4FF8015787C797AE3F5F0C3E295F0FE09E3F5F008E242
:204D230095F0FFC3E49E74049F5002C282A22892AFD322A2AC9229C2AC787A797CC3E3F501
:204D4300F0E295F009E3F5F008E295F0B3E433FF6017787A797CE3F5F0C3E295F0FE09E3B6
:204D6300F5F008E295F0FF8019787CD3E29400F4B3FCB308E29408F4FD787AE22CFE08E252
:204D83003DFFA22992AC8E828F8322124D36AE82AF83E4C39EFE74089FC423CEC423541F23
:204DA3006ECE541FCE6ECEFF900687EEF0EFA3F09000641270F1AE838E8222AF82BF0A0AED
:204DC30075820DC007124858D0078F82024858AF827E00BE0900501BEE75F003A42401F5D4
:204DE30082747F35F0F583E493FDEFB50502D3220E80E0C322AF82C007124DD2D0074002F5
:204E03007F397E00BE0900501BEE75F003A42401F582747F35F0F583E493FDEFB505028062
:204E2300030E80E0EE75F003A42401FD747F35F0FE8D828E83A3E493F58DAC8E5304F48DFE
:204E4300828E83A3A3E4934CF58E900693EFF0E4A3F0E4A3F0E4A3F090007DE4F5F0127269
:044E63000E02247D9A
:1B7F0100012C02029602042C0009960013600126B001392B08739608E6CB084C
:20802900000000000000000000000000000000000000000000000000000000000000000037
:20804900000000000000000000000000000000000000000000000000000000000000000017
:208069000000000000000000000000000000000000000000000000000000000000000000F7
:208089000000000000000000000000000000000000000000000000000000000000000000D7
:204E67007F0078B6E224FFFD08E234FFFE8F037C00C3EB9DEC9E4003024F25BF08004003BB
:204E8700024F257854E2B5030808E2B50403024F21EF75F002A4FDAEF0C007ED244EF54A15
:204EA700EE3401F54B854A82854B83A3E0FF8F4C754D007854E2FA08E2CA25E0CA33FFEA7E
:204EC700243EFAEF3401FF8A828F83A3E0FF8F4E754F00854A82854B83E0FF7A00ED243EBF
:204EE700F582EE3401F583E0FE7D00C007C04CC04DC04EC04FC007C002C006C005C003C0AA
:204F070004741CC0E0747FC0E07480C0E0123816E58124F3F581D007D0070F024E6978A04E
:204F2700E2FE7F00C007C006124400AC82AD83D006D0077819E2F54E08E2F54F7817E2F5D3
:204F47004C08E2F54D7815E2F54A08E2F54B7813E2F55008E2F551780FE2F55208E2F55336
:204F67007811E2FA08E2FBC006C007C004C005C04EC04FC04CC04DC04AC04BC050C051C09E
:204F870052C053C002C00378ABE2C0E008E2C0E07854E2C0E008E2C0E07444C0E0747FC00E
:204FA700E07480C0E0123816E58124E9F58178ABE4F208F22278AAE254016003024E672283
:204FC700AF827E00789B900687E2F008E2A3F08F828E831270F1AE82AF837899E22EFE087E
:204FE700E23F8E82F58322AE82AF83789DC3E29E08E29F5008789DE4F208F2800A789DE2DE
:20500700C39EF208E29FF2788DC3E2F5F0EE95F008E2F5F0EF95F050030252F07887C30815
:20502700E29480400B7854E2F5F008E245F0706F7887E2FC08E2FD788774012CF2E43D0818
:20504700F278B6900697E2F008E2A3F08C828D83C007C00612727AAC82AD83D006D0077881
:2050670054E2B5040708E2B50502800280317886E4F278B6900697E2F008E2A3F07887E2FB
:20508700F58208E2F583C007C00612727AE5828583F0D006D0077887F208E5F0F2804F7892
:2050A70087C308E29480504178B6900697E2F008E2A3F0900001C007C00612727AAC82AD6F
:2050C70083D006D0077887E2C39CFC08E29DFD78B6E224FFFA08E234FFFBECB5020BEDB544
:2050E700030778867402F2800578867401F2788DD3E29EF4B3FEB308E29FF4FF7886E2B48F
:2051070002107891E2FC08E2FD788DECF208EDF28019788FE2FC08E2FD788DECF208EDF2AF
:20512700C007C006120FFAD006D007C007C006123BCED006D007780BC3E2F5F0740195F0B7
:20514700500C78A4E4F208F278A8E4F208F27886E260030252E7C006C007789FE2FC7D0093
:2051670078A0E2F554755500ECC39554FEED9555FFBE640ABF0007D007D0060252E7D007FE
:20518700D006C006C007C007C006C005C004C046C047C048C04990333375F073743F126D71
:2051A7006385825685835785F058F559E58124FCF581D004D005D006D00778A1E2F58208E2
:2051C700E2F583C005C004127536AA82AB83AEF0FFD004D005C007C006C005C004C002C0F0
:2051E70003C006C00790000075F0A07440126D6385825A85835B85F05CF55DE58124FCF58B
:2052070081D004D005D006D0077894798FE3C5F0E225F0FE09E3C5F008E235F0CE25E0CEBE
:2052270033FF8E828F83C005C004127536AA82AB83AEF0FFC002C003C006C007855A8285DE
:205247005B83855CF0E55D12765AAA82AB83AEF0FFE58124FCF581D004D005C007C006C08B
:2052670005C004C002C003C006C0078556828557838558F0E5591273FD85824685834785E2
:20528700F048F549E58124FCF581D004D005D006D00778A1E4F208F2ECC39554FCED9555EB
:2052A700FD8C828D83127529AC82AD83AEF0FFC007C006C004C005C006C007854682854765
:2052C700838548F0E5491270C1E58124FCF581D006D007E58224FF9233B39231D007D006FB
:2052E700789DE4F208F202500E7886E2B40210C007C006120FD4123CCFD006D007800EC022
:2053070007C006120FC4123CCFD006D007788DE2C39EF208E29FF222AF827886E2B4022448
:20532700EF70217854E2F5F008E245F070047582012278547996E24400F308E2448009F308
:20534700758200227886E27003025549102B00EF60030253DE7887E2F5F008E245F06046EF
:205367007896E254FFFE08E2547FFF7887E224FFFC08E234FFFD78B6E224FFFA08E234FFC5
:20538700FB900697EAF0EBA3F08C828D83C007C00612727AAC82AD83D006D007EEB5040625
:2053A700EFB5050280297887E2F5F008E245F070227896E254FFFE08E2547FFF78B6E224EA
:2053C700FEFC08E234FFFDEEB50408EFB50504758201227582002278B8E270030255377898
:2053E70096E254FFFE08E2547FFF78B2E2FC08E2FDEEB50406EFB505028002D22D7896C388
:2054070008E2948050797896E22401FE08E23400FF78B6E224FFFA08E234FFFB900697EA32
:20542700F0EBA3F08E828F83C005C00412727AAE82AF83D004D005ECB50644EDB5074078F7
:2054470096ECF208EDF2126E06AE82AF837899E2FA08E2CA25E0CA33FB900697EAF0EBA3CF
:20546700F08E828F8312727AAE82AF837899E22EFE08E23FFF789DEEF208EFF202550478BB
:2054870096ECF274804D08F27854900687E22401F008E23400A3F07899E2F58208E2F583F9
:2054A7001270F1AE82AF83C007C006126E06AC82AD837854900687E22402F008E23400A3FD
:2054C700F07899E2F58208E2F583C005C0041270F1AA82AB83D004D005900697EAF0EBA375
:2054E700F08C828D8312727AAC82AD83D006D007EC2EFEED3FFF789DEEF208EFF27899E27A
:20550700FE08E2CE25E0CE33CE25E0CE33FF900697EEF0EFA3F0789DE2F58208E2F5831286
:20552700727AE5828583F0789DF208E5F0F2800E78547996E24400F308E2448009F3758220
:2055470000227886E2705A302B0C7896E4F2087480F275820022302C1078547996E24400B9
:20556700F308E2448009F3800E7854E2FE08E2FF7896EEF208EFF2102D0280217899900606
:2055870087E2F008E2A3F09000061270F1E5828583F0789DF208E5F0F275820022758201DF
:2055A7002275820122123FF6E582FF24EB400578A0E4F222124400E5828583F0249CFEE53F
:2055C700F034FFFFC3E49EE464808FF063F08095F0E433FD700C78A0E2600778A0E214F2CD
:2055E7008039C3740A9EE464808FF063F08095F0500878A0E2240AF28021C374059EE46438
:20560700808FF063F08095F0500878A0E22405F28009ED600678A0E22401F2789FE2FE7F5C
:205627000078A0E2FC7D00EEC39CFEEF9DFFC3EE9414EF648094805008789F79A0E224EC60
:20564700F3227854E2F5F008E245F06003302F0E90062AE4F0C22FD20612102E80079006E2
:205667002AE02401F090062AE0FFBF02005004D2B780477898E4F2A22E92B7B22E788774AE
:20568700FFF20874FFF2900682E4F09006837410F0E4A3F090014E75F00012706590068272
:2056A700E4F09006837410F0E4A3F090013E75F00012706578ABE4F208F290062AE0FF243A
:2056C700FC502930300F75F005EF84AFF0BF0410120FFA800BC20612102E120FD4123CCFC0
:2056E70090062AE0FF24C3500343EF1078ADE4F208F2302A077803E2FF78AAF2B22A900650
:205707002BE02401F090062BE0FFBF04081255AC90062BE4F022AE82AF839000BE75F00018
:20572700C007C006127642E5828583F02401FCE435F0FD90067A74BEF07400A3F0E4A3F0D5
:2057470090067DECF0EDA3F09005E475F000126FF1D006D00778B4EEF208EFF2D23222AF0C
:2057670082BF02004017EF24BA40129004E8E0FEBE520A9004E9E0FEBE540280237E00C3A2
:20578700EE9F501BEE24E8F582E43404F583E0F582C007C006124DBED006D0070E80E022C7
:2057A70078B279B4E2F308E209F390067A74E8F07404A3F0E4A3F090067DEFF0E4A3F090F9
:2057C70000BE75F000C007126FF1D007EF24BEF582E43400F583E4F09000BE7441F0780177
:2057E700EFF2BF041B9000C0E0FFBF49139000C1E0FFBF350B78AF7401F27582000225447A
:20580700022571126977AE82AF8378B9EEF208EFF278FF762A78FFB62A02801DC007C00601
:205827007488C0E0747FC0E07480C0E01210C9158115811581D006D0077800E2B441028073
:205847001DC007C0067495C0E0747FC0E07480C0E01210C9158115811581D006D007C007A6
:20586700C0061206C5D006D00778AAE2600FC007C006124FBCD006D00778AAE4F290035B21
:20588700E0FB602190015EE0FB601A20001790035BE4F0C007C006121AC8D006D0075005E5
:2058A70090035BE4F0C007C00612697778BCE582F208E583F2786274E8F2087404F2900087
:2058C700BB75F060123830D006D0074003025BE9789DE4F208F278BBE2B40400502A78BB32
:2058E700E2FC7D00C007C006C004C00574ABC0E0747FC0E07480C0E0123816E58124FBF570
:2059070081D006D00702581C7886E2700AD22B7896E4F2087480F278BBE224E8FCE434047A
:20592700FDEC24FCFCED34FFFD90067AECF0EDA3F0E4A3F090067D7404F0E4A3F09000B029
:2059470075F060C007C006126FF1D006D00778BBE214141414F278B2E2F55E08E2F55F30AB
:20596700E73B7898E2B4FF0050117887E2F5F008E245F070067898E22401F27887E4F208B7
:20598700F278B2E2FC08E2FD53057F8C82C007C006120FF0D006D007D22F02581C30303FD9
:2059A70078B1E220E6397898E2B4FF00501E7401255EFCE4355FFD7887E2B5040708E2B5DA
:2059C7000502800280067898E22401F278B2E2FC08E2FD788774012CF2E43D08F2D22F7893
:2059E700B2E2FC08E2FDC3EC9408ED9400507CC006C007EDCC25E0CC33FDEC243EFCED34DF
:205A070001FDC006C005C004123927AF82D004D005D0067E0078B2E2FA08E2CA25E0CA33D6
:205A2700FBEA243EF582EB3401F583E0900687F0E4A3F0900007C007C006C005C004127076
:205A4700F1AA82AB83D004D005D006D007EA2FFAEB3EC423CAC423541F6ACA541FCA6ACAB2
:205A6700FB8C828D83EAF0D007D00678ABE22401F208E23400F278B0E2FC08E2541FFD4CA7
:205A87006003025B3278BBE27003025B3278BBE2B404028003025B2478B2E2FC08E2FDC371
:205AA700EC9408ED94005075C006C00778BBE21414F278BBE224E8FAE43404FB7F008A8298
:205AC7008B838FF012771DFAA312771DFB7854E2B5020708E2B503028006D007D006803D4E
:205AE700D007D006EDCC25E0CC33FDEC244EFCED3401FD7B0090067A74E8F07404A3F0E4F9
:205B0700A3F078BB90067DE2F0E4A3F08C828D838BF0C007C006126FF1D006D00778ABE212
:205B270024FFF208E234FFF202581C78B0E2FC08E2541FFD4C700302581C78B0E2FC08E23F
:205B4700541FFD788DECF208EDF278BB79B8E2700474018001E4F375820112531F78BCE2EB
:205B6700FE08E2FF78B1E2C4035401FDBD012278BBC3E2F5F0740195F0400302581C78BB90
:205B8700E2F582C007C006125766D006D00702581C78BBE2700302581C78B1E22354012481
:205BA700FF920F783E74E8F2087404F278BBE2F582C007C0061224C4D006D007500302585B
:205BC7001C30000302581CD2B678BB7982E2F39004E8C007C0061248F3D006D007C2B602F1
:205BE700581CC007C00612697778BCE582F208E583F2D006D00778BCE2C39EFC08E29FFD16
:205C07008C828D83C005C004124FEED004D00578BCE2FE08E2FF788F7994E3F5F0C3E295CB
:205C2700F0FA09E3F5F008E295F0FB788DC3E2F5F0EA95F008E2F5F0EB95F0500302581C32
:205C47007886E2B4022A78917994E3F5F0C3E295F0FA09E3F5F008E295F0FB788DC3E2F5A1
:205C6700F0EA95F008E2F5F0EB95F0500302581CC006C00778BC79B9E3F5F0C3E295F0FAD7
:205C870009E3F5F008E295F0FB7E007F00C3E49A74809BE49EE464808FF063F08095F0D004
:205CA70007D006501DC007C006C005C004125649D004D005D006D00778BC79B9E2F308E251
:205CC70009F378A3E27003025D5BC007C006C005C00412392DAB82D004D005D006D007780E
:205CE700A3C3E2F5F0EB95F0500B78A4E22CF208E23DF2803E78A4E4F208F278A8E2F5F0DF
:205D070008E245F0702DC007C006126E06AC82AD8378A6900697E2F008E2A3F08C828D8397
:205D270012727AE5828583F0D006D00778A8F208E5F0F278A679A8E3C5F0E225F0FC09E3BB
:205D4700C5F008E235F0FD78A4C3E29C08E29D500302581C78B8E4F2758200C007C0061232
:205D6700531FE582D006D007700302581C789DE2F5F008E245F0600302581CC007C006123A
:205D87003910D006D007400DC007C0061238F7D006D00750237899E2FC08E2FD789DECF202
:205DA70008EDF27886E2600302581CD22B7896E4F2087480F202581C7854E2F5F008E24535
:205DC700F0600B7898E2B41400500302581CC006C0077854E2FC08E2CC25E0CC33FDEC24E0
:205DE7003EFCED3401FD0CBC00010DC007C006C005C00412392DAB82D004D005D006D0075C
:205E07007A007854E2FE08E2CE25E0CE33FFEE243EFEEF3401FF8E828F83A3E0900687F075
:205E2700E4A3F0900003C005C004C003C0021270F1AE82AF83D002D003D004D005EE2BFE09
:205E4700EF3AC313CE13CEC313CE13CE8C828D83EEF0D007D00630310302581C788D79996E
:205E6700C3E3F5F0E295F009E3F5F008E295F0500302581C788DE2FC08E2FD7899E2FA0861
:205E8700E2CA25E0CA33FBECC39AFCED9BFD30E7047D0080367899E2FB08E2CB25E0CB3394
:205EA700FC788DE2C39BFB08E29CFC789B90062CE2F008E2A3F08B828C83C007C0061269D5
:205EC700D4AB82AC83D006D0078B05BD0500500302581CED24FBFD7893C3E29D500478930E
:205EE700E2FDC007C006C005124D36E5828583F0D005D006D00745F06044302D417886E29D
:205F0700B4013B788FE2FB08E2C313CB13CBC313CB13CBFC788DC3E29B08E29C500302584A
:205F27001C9004E874FFF078BB7401F278B1E24420F2788B74FFF20874FFF20260327886FD
:205F4700E2B4020302602E203203025FD1C006C0079005E475F000C007C006C00512764201
:205F6700AB82AC83D005D006D0078D027F00C3EA9BEF9CD007D00640519005E475F000C07F
:205F870007C006C005127642AB8278BBEBF290067A74E4F07405A3F0E4A3F090067DEBF098
:205FA700E4A3F09004E875F000126FF1D005D006D00778B1E24420F278B4E2FB08E2FC78C6
:205FC7008BEBF208ECF2C2328061783C74E8F2087404F28D82C007C006C005121FCCE5825E
:205FE70078BBF212246DD005D006D0079234E433FC78B113E292E5F278B1E230E52D78B477
:20600700E2FB08E2FC788BEBF208ECF278AFE2FC78AF04F28C82C007C006C005122544D023
:2060270005D006D007800478BBE4F278BB7993C3E2F5F0E395F05021C007C006C00574C0F2
:20604700C0E0747FC0E07480C0E01210C9158115811581D005D006D0077886E2B40103D3D8
:206067008001C39234E43378B113E292E6F2C007C006C00512246AD005D006D0079234E452
:2060870033FC78B113E292E7F27886E260030261F478BBE260030261F4BD12005003026153
:2060A700F478B6E224FFFC08E234FFFD78ADC3E29C08E29D40030261F47854C3E294080800
:2060C700E2940040030261F47899E2FC08E2CC25E0CC33FD788FE2C39CFC08E29DFD788D36
:2060E700C3E29C08E29D40030261F478AD7954E2F5F0E3B5F00B08E2F5F009E3B5F0028009
:2061070002800B78ADE22401F208E23400F278BB7402F278ADE2FC08E2CC25E0CC33FDEC7C
:20612700243EFCED3401FD0CBC00010D7854E2FA08E2CA25E0CA33FBEA243EFAEB3401FB4B
:206147008A828B83A3E08C828D83F078ADE2FC08E2CC25E0CC33FDEC243EFCED3401FD90DA
:20616700067AECF0EDA3F0E4A3F090067D7402F0E4A3F09004E875F000C007C006126FF1F5
:2061870090067A74ADF0E4A3F07460A3F090067D7402F0E4A3F09004EA75F000126FF1D0E4
:2061A70006D00778BB7404F278ADE22401F208E23400F278AD7954E2F5F0E3B5F00B08E2FA
:2061C700F5F009E3B5F0028002800B78ADE22401F208E23400F278B0E4F208E254E0F2787F
:2061E700B1E2547FF278B1E254DFF280537886E2601E78BBE270197886E2B4020280030224
:20620700581C7854E2F5F008E245F0600302581C78BBE22404F582C007C006124FC7AC82E1
:20622700AD83D006D007788DE2C39CFC08E29DFD78B0ECF208ED541FF5F0E254E045F0F224
:206247007886E2B402267854E2F5F008E245F0701BC007C006120FEAAD82D006D0077C004E
:2062670043048078B2EDF208ECF2800A78B27954E3F20809E3F278BBE224E8FCE43404FDEF
:206287007B0090067A74B0F0E4A3F07460A3F090067D7404F0E4A3F08C828D838BF0C00728
:2062A700C006126FF1D006D00778B1E220E52C78BBE2601E78B0E2FC08E2541FFD4C601205
:2062C700D2B67889E2FC08E2FD788BECF208EDF28009788B74FFF20874FFF27886E2700FE4
:2062E70078BBE27006D22DD22C8010C22C800C7886E2B401067897E2547FF2302D21788638
:20630700E2B4011BC22D7899799DE2F308E2F5F0E325E0C5F033C5F0F309E5F0F3800E78BB
:2063270099E2FC08E2FD789DECF208EDF2789FE2FC7D0078A0E2FA7B00ECC39AFCED9BFD73
:20634700BC6405BD0002801F78BBE22404F582C007C006124FC7AC82AD83D006D00778A126
:20636700E22CF208E23DF278BBE22404FD786A74E8F2087404F2788B9004DBE2F008E2A350
:20638700F0788D796CE2F308E209F38D82C007C006123B72D006D007401078BBE2600BC0C9
:2063A70007C006122470D006D00778A3E2600C78A4E4F208F278A8E4F208F2C007C00612D2
:2063C7000FC4123CCF123BCED006D00778BBE2700302581C78B0E2FC08E2541FFD4C7003E1
:2063E70002581CC2B602581CA22F22AE82AF8378B674012EF2E43F08F222AE82AF83788978
:20640700EEF208EFF222E58224FF923022123933AF82900693EFF0E4A3F0E4A3F0E4A3F000
:206427009003E8E4F5F012720EAC82AD83AEF0FF90066EECF0EDA3F0EEA3F0EFA3F090127F
:206447000075F07AE4126EB0AC82AD83AEF0FF74082CF560E43DF561E43EF562E43FF563DF
:20646700AA60E561C4CAC4540F6ACA540FCA6ACAFBE562C454F04BFBAE62E563C4CEC454E9
:206487000F6ECE540FCE6ECE789BEAF208EBF2900693EAF0EBA3F0E4A3F0E4A3F090271033
:2064A700E4F5F0C003C00212720E85826485836585F066F567900693E560F0E561A3F0E5CA
:2064C70062A3F0E563A3F0900271E4F5F012720EAC82AD83AEF0FFD002D003C3E5649CE55A
:2064E700659DE5669EE5679F500A789B74012AF2E43B08F2789B900687E2F008E2A3F09099
:20650700000D1270F1E5828583F07899240DF2E435F008F230073478937474F2789CE2F523
:20652700F018E225E0C5F033C5F0F208E5F0F2789BE2FE08E2CE25E0CE33CE25E0CE33FF83
:206547007899E22EF208E23FF28005789374F8F27899E2F56008E2C56025E0C56033F5610E
:206567007894E560F208E561F2789B900693E2F008E2A3F0E4A3F0E4A3F07893E2FA7B00B6
