:0A04D20078007441F278057464F2BA
:2004E700AF828F06BE08028021BE0D028005BE7F36801775820A124C607801E224BEF582F7
:20050700E43400F583E4F0D201227801E2606A758208124C60758220124C60758208124C67
:20052700607801E214F2227801E2B4100050448F82C007C0061273E4E582D006D00760396A
:200547008F82C007C0061273B2E582D006D00760055306DF80028F068E077801E2FE780190
:2005670004F2EE24BEF582E43400F583EFF08F82024C60C2007801E4F222AF82BF2B028039
:20058700047804E4F27804C3E2F5F0740495F0402C7804E275F003A49005A3730205C802A9
:2005A70005B20205B20205B90205C87804E22401F22278047404F278057464F2227804E4EF
:2005C700F278057464F2227805E2603B7805E214F27805E270317804E260087804E2B4047E
:2005E70026800678047401F222D2007804E4F29000BE7441F09000BF7454F09000C0E4F001
:2006070078017402F2D20122E5812404F5817C007D007E007F007802E224BEF582E4340036
:20062700F583E0FBF582C007C006C005C004C003126F2FE582D003D004D005D006D0076070
:200647006D900629ECF0EDA3F0EEA3F0EFA3F090000AE4F5F0C0031270B0AF82AE83ADF0B1
:20066700FCD0038B027B00EA24D0FAEB34FFFBE58124FDF8A60208A603EB3395E008F6083A
:20068700F6E58124FDF8E62FF608E63EF608E63DF608E63CF6E58124FDF8860408860508CC
:2006A70086060886077802E22401F202061D8C828D838EF0EFC8E58124FCF581C822200120
:2006C70001227801E2B40200E433FF600302074E9000BEE0FEBE526F9000BFE0FEBE5467BE
:2006E70078027403F278017902C3E2F5F0E395F0501B7802E224BEF582E43400F583E0FE9C
:20070700BE2C0280087802E22401F280D87802E224BEF582E43400F583E0FEBE2C1C7802F0
:20072700E2FE780204F2EE24BEF582E43400F583E4F012060F1255BF800690FFFF1255BF30
:200747007801E4F2C20122EF70699000BEE0FFBF41619000BFE0FFBF54599000C0E0FF60DF
:2007670023BF26028023BF2B028023BF49028023BF4F028028BF5002801EBF53028027BFA8
:200787005A2E80271207C1802A120A0F8025120C5280201207FF801B120AEA80167805747F
:2007A70064F2C200800D12097E800843EF1080FE1207E07801E4F2C201227854E2C0E00829
:2007C700E2C0E07462C0E07476C0E07480C0E01236ADE58124FBF581227854E2C0E008E2B2
:2007E700C0E0746BC0E07476C0E07480C0E01236ADE58124FBF581229000C1E0FF6037BF1D
:2008070030028032BF31028058BF3203020893BF33030208B9BF34030208E2BF35030209F6
:200827000BBF360302091DBF3703020920BF380302092302097B74FDC0E07478C0E0748023
:20084700C0E07854E2C0E008E2C0E07477C0E07476C0E07480C0E01236ADE58124F8F58183
:20086700227413C0E07479C0E07480C0E07854E2C0E008E2C0E07477C0E07476C0E0748026
:20088700C0E01236ADE58124F8F581227443C0E0E4C0E07854E2C0E008E2C0E07480C0E05B
:2008A7007476C0E07480C0E01236ADE58124F9F58122780DE2FE7F00C006C0077854E2C024
:2008C700E008E2C0E07480C0E07476C0E07480C0E01236ADE58124F9F58122780EE2FE7F00
:2008E70000C006C0077854E2C0E008E2C0E07480C0E07476C0E07480C0E01236ADE581245B
:20090700F9F581227F008F82C007122CCAD0070FBF130040F12202669F024D097854E2F5D3
:20092700F008E245F070207854E2C0E008E2C0E07489C0E07476C0E07480C0E01236ADE5A4
:200947008124FBF581802C1262919202E433FE7F00C006C0077854E2C0E008E2C0E0749A2E
:20096700C0E07476C0E07480C0E01236ADE58124F9F581220207E078027403F212060FAC03
:2009870082AD83AEF0FFBC130040030207E07802E224BEF582E43400F583E0FFBF3D028064
:2009A70036BF3F618C821228ABAB82AD83AEF0FFC003C005C006C0077854E2C0E008E2C0A1
:2009C700E074A9C0E07476C0E07480C0E01236ADE58124F7F58122EC602B7802E22401F25D
:2009E700C00412060FAB82AD83AEF0FFD0047841EBF208EDF208EEF208EFF28C821226B9EA
:200A070050030207C10207E09000C1E0FFBF46028012BF54028053BF55028014BF570280D6
:200A270009020AE7122B980207C1122B2F0207C190061F74B3F07476A3F07480A3F090007E
:200A4700C275F000126FB3E5828583F045F0701775B7A575B7F1758F0390F7FE74FFF075C7
:200A67008F0043EF1080FE0207E090061F74B9F07476A3F07480A3F09000C275F000126F29
:200A8700B3E5828583F045F070057803E4F22290061F74BAF07476A3F07480A3F09000C2F7
:200AA70075F000126FB3E5828583F045F070077803E26401F22290061F74C0F07476A3F05F
:200AC7007480A3F09000C275F000126FB3E5828583F045F070077803E26402F2220207E0D2
:200AE7000207E09000C1E0FFBF50028003020B957F008F057E00C007C005C0067854E2C04F
:200B0700E008E2C0E074C5C0E07476C0E07480C0E01236ADE58124F9F581D0078F82C007D0
:200B270012317DD007501BC00774D2C0E07476C0E07480C0E01236AD158115811581D00753
:200B47008019C00774DAC0E07476C0E07480C0E01236AD158115811581D0078F82C00712AA
:200B670032E19203E433FD7E00C005C00674E2C0E07476C0E07480C0E01236ADE58124FB1B
:200B8700F581D0070FBF06005003020AF9229000C2E0FFBF3D0D9000C3E0F582126F2FE53A
:200BA7008270030207E09000C3E024D0FF9000C1E0FEBE4302805EBE49028016BE4F0280EC
:200BC70008BE52028015020C4CD2118F82122F588076C2118F82122F58806D8F82C007122E
:200BE700317DD007402C8F82123300AE827D00C006C0057854E2C0E008E2C0E074EBC0E098
:200C07007476C0E07480C0E01236ADE58124F9F581220207E09000C5E0F582C007126F2F93
:200C2700E582D007601C9000C5E0FE3395E0FDEE24D0FEED34FF4E24FF92138F8212319B16
:200C470040060207E00207E00207C178027404F212060FAC82AD83AEF09000C1E0FFBF4174
:200C670003020D6DBF43028053BF4C03020D5FBF50028003020DB59000C2E0FFBF3D028094
:200C870003020DB578027405F212060F7806C0E0E582F208E583F208E5F0F2D0E008F278B0
:200CA70006E254FFFA08E2540008E2540008E254008AFC7582011242F30207C17802E2242F
:200CC700BEF582E43400F583E0FFBF3D028041BF3F028003020DB58C82122E40AF82780626
:200CE700EFF208E4F208F208F27806E2C0E008E2C0E008E2C0E008E2C0E074F8C0E07476A6
:200D0700C0E07480C0E01236ADE58124F9F581227802E22401F2C00412060F7806C0E0E527
:200D270082F208E583F208E5F0F2D0E008F2D0047806E254FFFB08E2540008E2540008E275
:200D47005400C0038C82122DF61581920450051207C180030207E022122E8C50051207C14E
:200D670080030207E0229000C2E0FFBF3D4078027405F212060F7806C0E0E582F208E5837E
:200D8700F208E5F0F2D0E008F27806E2B4010C08E2700808E2700408E26002800875820233
:110DA7001242F380067582031242F30207C10207E07A
:207662005B25755D204F4B0A005B25755D204552524F520A005B25755D2025730A005B2558
:20768200755D2025750A005B25755D2053796E633A20426173650A005B25755D2053796EB8
:2076A200633A2025750A005B25755D20256C750A00504441544500003D52535349003D5468
:2076C200444D005B25755D2050696E3A256420004F75747075742000496E7075742020009A
:1B76E20056616C3A2025750A005B25755D2076616C3A25750A00256C750A00C9
:200DB800AF827E007D00AB08AC098F021FEA603B8B828C83E0FAA3AB82AC83ED2DF9ED302D
:200DD800E714890009E89077FD936EFDE99077FD93F86AFE80D4890009E89076FD93F86EDA
:1B0DF800FDE99076FD93F96AFE80BF8D07E4FDFCEE4205EC42078D828F8322A6
:2076FD000000102120423063408450A560C670E781089129A14AB16BC18CD1ADE1CEF1EF6D
:20771D00123102103273225252B5429472F762D693398318B37BA35AD3BDC39CF3FFE3DE2C
:20773D00246234430420140164E674C744A45485A56AB54B85289509E5EEF5CFC5ACD58DEC
:20775D00365326721611063076D766F6569546B4B75BA77A97198738F7DFE7FED79DC7BCAC
:20777D0048C458E5688678A70840186128023823C9CCD9EDE98EF9AF89489969A90AB92B6C
:20779D005AF54AD47AB76A961A710A503A332A12DBFDCBDCFBBFEB9E9B798B58BB3BAB1A2C
:2077BD006CA67C874CE45CC52C223C030C601C41EDAEFD8FCDECDDCDAD2ABD0B8D689D49EC
:2077DD007E976EB65ED54EF43E132E321E510E70FF9FEFBEDFDDCFFCBF1BAF3A9F598F78AC
:2077FD00918881A9B1CAA1EBD10CC12DF14EE16F108000A130C220E350044025704660676C
:20781D0083B99398A3FBB3DAC33DD31CE37FF35E02B1129022F332D242355214627772562B
:20783D00B5EAA5CB95A88589F56EE54FD52CC50D34E224C314A004817466644754244405EB
:20785D00A7DBB7FA879997B8E75FF77EC71DD73C26D336F2069116B06657767646155634AB
:20787D00D94CC96DF90EE92F99C889E9B98AA9AB584448657806682718C008E1388228A36B
:20789D00CB7DDB5CEB3FFB1E8BF99BD8ABBBBB9A4A755A546A377A160AF11AD02AB33A922B
:2078BD00FD2EED0FDD6CCD4DBDAAAD8B9DE88DC97C266C075C644C453CA22C831CE00CC1EB
:2078DD00EF1FFF3ECF5DDF7CAF9BBFBA8FD99FF86E177E364E555E742E933EB20ED11EF0AB
:200E130075B7A575B7F122D310AF01C3C0D0120E13758F0790000074FFF0758F00D0D09262
:200E3300AF22D310AF01C3C0D0AE82AF83758F048E828F83E493FF758F008F82D0D092AFF0
:200E530022D310AF01C3C0D0AE82AF83C007C006120E13D006D007758F058E828F83780AFB
:0A0E7300E2F0758F00D0D092AF229C
:02F7FE003DC20A
:200E7D00AF83E582900102F0EFA3F0900102E0FEA3E0FF900101E0FD7C008D027B001ABAFB
:200E9D00FF011B8C007900C3E89AE964808BF063F08095F05046C007C006C005C004126C06
:200EBD00A8AA82D004D005D006D0078DF0EA84E5F02EFAE43FFB8A828B83E0F50AC005EC3B
:200EDD002EF8E43FFD88828D83E0F98A828B83F088828D83E50AF00CD005809E22AF83E581
:200EFD0082900104F0EFA3F07F00780BC3E2F5F0EF95F0500FEF24CFF582E43400F583EF15
:200F1D00F00F80E6900104E0FEA3E0FF8E828F83126D02780BE2FF7E008F047D001CBCFFEE
:200F3D00011D8E027B00C3EA9CEB64808DF063F08095F05042C007C006126CA8AC82D00635
:200F5D00D0078FF0EC84E5F024CFFCE43400FD8C828D83E0F50BC007EE24CFFAE43400FF1E
:200F7D008A828F83E0FB8C828D83F08A828F83E50BF00ED00780A222780CE224CFF582E472
:200F9D003400F583E0F58222780BE2F5F0E484E5F024CFF582E43400F583E0F58222780C91
:200FBD00E2F58222E582900108F0780CF222780CE2FE7F000EBE00010F780B900625E2F042
:200FDD00E4A3F08E828F83127047AE82AF83780CEEF220050C780B790CE2F5F0E484E5F08F
:070FFD00F322A20692052277
:060400000204790243949E
:01040B0032BE
:0104130032B6
:01041B0032AE
:030423000244DAB6
:03042B000267B1B4
:010433003296
:01043B00328E
:010443003286
:01044B00327E
:010453003276
:01045B00326E
:010463003266
:01046B00325E
:03047300026727F6
:0304E40002047699
:030476000210046D
:20100400AFC4780DEFF2AFC3780EEFF21210D1122A3E4003122B987582011228ABAC828CFE
:201024008212469512116B7582061228ABAC82900129ECF07582071228ABAC82AD83AEF02A
:20104400FFEC4D4E4F24FF92087582051228ABAC82AD83AEF0FFEC4D4E4F24FF9207758295
:201064000E1228ABAC82AD83AEF0FFEC4D4E4F24FF9209123A6540157417C0E07479C0E02C
:201084007480C0E0121097158115811581122F090256AC90793175F0801273FDE58124FCC8
:2010A400FFC007E58124FBF886820886830886F0123425158190793C75F0801273FDD2AF24
:2010C400D2AC9003E81267A843EF1080FE75A700AFD974BF5FF5D975B28F75A90075B640EF
:2010E40075FF807E5E7F011EBEFF011FEE4F70F775EF0675D4CF75D5F875D6CF75A4107581
:20110400A70F75A41075A70075E10143E24143A5F5E5A675A6FF75A70F43A5F5E5A675A6E3
:20112400FF75A70075844075B00075850043B001D29475A700C28912685775B800D2AFD226
:2011440095C296D2EF75BCF975BA0075BB1B75D10775D2FF43D98875DF0075FC8075DA422C
:2011640075D84075E34022123AA44015743DC0E07479C0E07480C0E0121097158115811573
:2011840081780DE2B44302801C780DE2B447028043780DE2B48602806A780DE2B491030269
:2011A4001234021261781B7490F20874D1F20874CFF2087419F2781F7470F208745EF208A3
:2011C40074EAF2087419F27827740AF2780B740AF2021298781B7480F20874A1F20874037F
:2011E400F208741CF2781F74C0F20874E3F2087412F208741CF27827740AF2780B740AF255
:20120400021298781BE4F20874A1F20874BCF2087433F2781F7440F20874E3F20874CBF214
:20122400087433F27827740AF2780B740AF28064781B74C0F20874CAF2087489F208743689
:20124400F2781FE4F2087428F2087450F2087437F278277414F2780B7432F28037781BE4D0
:20126400F208F208F208F2781FE4F208F208F208F27827E4F2780DE2FA7B00C002C00374E5
:2012840055C0E07479C0E07480C0E0121097E58124FBF58175820A1228ABAA82AB83AEF0A2
:2012A400FFEA4B4E4F601175820A1228ABAC82AD83AEF0FF780BECF27582081228ABAC8294
:2012C400AD83AEF0FFEC4D4E4F60377582081228ABAC82AD83AEF0FF900629ECF0EDA3F0D6
:2012E400EEA3F0EFA3F09003E8E4F5F01270B0781BC0E0E582F208E583F208E5F0F2D0E004
:2013040008F27582091228ABAC82AD83AEF0FFEC4D4E4F60377582091228ABAC82AD83AE91
:20132400F0FF900629ECF0EDA3F0EEA3F0EFA3F09003E8E4F5F01270B0781FC0E0E582F296
:2013440008E583F208E5F0F2D0E008F27582041228ABAC82AD83AEF0FFEC4D4E4F60117517
:2013640082041228ABAC82AD83AEF0FF7827ECF27827E2FB7D007E007F007845E4F208F203
:2013840008F208F27849741EF208E4F208F208F28B828D838EF0EF122D71AC827827ECF259
:2013A400780BE2FC7D007E007F0078457401F208E4F208F208F278497432F208E4F208F227
:2013C40008F28C828D838EF0EF122D71AC82AD83AEF0FF780BECF2780DE2B44302801E7802
:2013E4000DE2B44703021490780DE2B48603021521780DE2B491030215B202164078457479
:2014040080F2087423F20874ADF2087418F27849E4F208740BF208746BF208741BF2781B1F
:20142400E2F58208E2F58308E2F5F008E2122D71781BC0E0E582F208E583F208E5F0F2D0F7
:20144400E008F278457480F2087423F20874ADF2087418F27849E4F208740BF208746BF2F0
:2014640008741BF2781FE2F58208E2F58308E2F5F008E2122D71781FC0E0E582F208E58324
:20148400F208E5F0F2D0E008F202165F78457480F2087474F20874D2F208741AF2784974E4
:2014A40080F20874CEF2087434F208741DF2781BE2F58208E2F58308E2F5F008E2122D7196
:2014C400781BC0E0E582F208E583F208E5F0F2D0E008F278457480F2087474F20874D2F2DC
:2014E40008741AF278497480F20874CEF2087434F208741DF2781FE2F58208E2F58308E214
:20150400F5F008E2122D71781FC0E0E582F208E583F208E5F0F2D0E008F202165F78457435
:2015240040F20874B6F208749AF2087432F278497440F2087410F20874FDF2087434F2783F
:201544001BE2F58208E2F58308E2F5F008E2122D71781BC0E0E582F208E583F208E5F0F28B
:20156400D0E008F278457440F20874B6F208749AF2087432F278497440F2087410F208742D
:20158400FDF2087434F2781FE2F58208E2F58308E2F5F008E2122D71781FC0E0E582F20863
:2015A400E583F208E5F0F2D0E008F202165F7845E4F20874A1F20874BCF2087433F27849AF
:2015C40074C0F20874F7F20874BAF2087437F2781BE2F58208E2F58308E2F5F008E2122D69
:2015E40071781BC0E0E582F208E583F208E5F0F2D0E008F27845E4F20874A1F20874BCF243
:20160400087433F2784974C0F20874F7F20874BAF2087437F2781FE2F58208E2F58308E2D0
:20162400F5F008E2122D71781FC0E0E582F208E583F208E5F0F2D0E008F2801F780DE2FEB8
:201644007F00C006C0077455C0E07479C0E07480C0E0121097E58124FBF581781F791BE22F
:20166400F5F0E3B5F01D08E2F5F009E3B5F01408E2F5F009E3B5F00B08E2F5F009E3B5F09D
:20168400028002801A781B791FE22440F308E2344209F308E2340F09F308E2340009F375B0
:2016A400820B1228ABAC82789FECF27F007E007D007845E4F208F208F208F278497464F20B
:2016C40008E4F208F208F28C828F838EF0ED122D71AC82789FECF27841ECF208E4F208F267
:2016E40008F275820B1226B975820C1228ABAC82AD83AEF0FF78A3ECF2EC60337F007E00A1
:201704007D0078457419F208E4F208F208F2784974DCF208E4F208F208F28C828F838EF0C7
:20172400ED122D71AC82AD83AEF0FF78A3ECF278A37941E2F309E4F309F309F375820C127D
:2017440026B990060474E8F07403A3F0E4A3F0E4A3F0781BE2F58208E2F58308E2F5F008A3
:20176400E2126D52AC82AD83AEF0FF7841ECF208EDF208EEF208EFF27582081226B99006E2
:201784000474E8F07403A3F0E4A3F0E4A3F0781FE2F58208E2F58308E2F5F008E2126D5221
:2017A400AC82AD83AEF0FF7841ECF208EDF208EEF208EFF27582091226B9780B7941E2F3D8
:2017C40009E4F309F309F375820A1226B9781F791BE3F5F0C3E295F0FC09E3F5F008E295D2
:2017E400F0FD09E3F5F008E295F0FE09E3F5F008E295F0FF780BE2FA7B0074022AFAE43BE8
:20180400FB900604EAF0EBA3F0EB3395E0A3F0A3F08C828D838EF0EF126D527823C0E0E5A2
:2018240082F208E583F208E5F0F2D0E008F27826E2C313FF18E213FE18E213FB18E213FAE6
:20184400781BE22AF208E23BF208E23EF208E23FF27582031228AB126D02780BC3E2F5F03A
:20186400740595F05054126CA8AE82AF8390061DEEF0EFA3F0900271126F93AE82E583FF79
:201884003395E0FDFC78239005F9E2F008E2A3F008E2A3F008E2A3F08E828F838DF0EC1294
:2018A4006AC4AC82AD83AEF0FF781BE22CF208E23DF208E23EF208E23FF2781BE2F5820826
:2018C400E2F58308E2F5F008E2123ADB7823E2F58208E2F58308E2F5F008E2123B17758260
:2018E400031228ABAC82AD83AEF0FF780B9005F9E2F0E4A3F0E4A3F0E4A3F08C828D838E0D
:20190400F0EF126AC4AC828C82123B667582021228ABAC828C82123B904033758202122818
:20192400ABAC828C82123B9040247582021228ABAC828C82123B904015746CC0E07479C002
:20194400E07480C0E01210971581158115811237CAAF827841EFF208E4F208F208F27582ED
:20196400021226B97582031228AB123E9375820F1228AB123EEA7582121228AB126294751E
:2019840082101228AB1262A37582111228ABAC828C821262AF7827E2F582123E4D123E8DF7
:1F19A400AF827841EFF208E4F208F208F27582041226B97582031228AB120EFA0262B688
:2078FD004D502053694B20322E36206F6E205246443930304100322E36006661696C656423
:20791D0020746F20656E61626C65207265636569766572000A2A2A50414E49432A2A00002E
:20793D00726164696F5F696E697469616C697365206661696C65640062616420626F617221
:20795D0064206672657175656E637920256400726164696F5F636F6E666967757265206655
:06797D0061696C65640005
:2019C300AF829004B4E0F5737CFF7DFF900326E0FBBB01047B0680027B0AEB2573FA782A51
:2019E300F2EA24B3F582E43404F583EFF0782AE22401F278297401F27829792AC3E3F5F0D5
:201A0300E295F05062C0037829E224B3F582E43404F583E0FA8C75757600E575F5776AF597
:201A230074C454F062748D78757900AA747B008A077E00E5786206E5796207EBC40354F82C
:201A4300CAC403CA6ACA54F8CA6AFBEA6206EB6207E574C4540F7A006EFCEA6FFD7829E296
:201A63002401F2D0038091EB2573FB24B3F582E43404F5838C06EEF0EB0424B3F582E43443
:201A830004F5838D04ECF022900326E0FFBF010890012D7411F08011BF020890012D741504
:201AA300F0800690012D7422F01248A9AE82AF8390012DE0FDFB7C00C3EE9BEF9C5002C306
:201AC30022900326E0FFBF013A90012A74B9F07404A3F0E4A3F09004B374FEF09004B47490
:201AE30009F07828E2FF782804F29004B5EFF09004B67433F09004B77444F09004B8746DAA
:201B0300F0806190012A74BDF07404A3F0E4A3F09004B374FDF09004B47409F09004B5E409
:201B2300F09004B6F07828E2FF782804F29004B7EFF09004B87433F09004B97444F09003CC
:201B430026E0FFBF030E9004BA742CF09004BB7401F0800B9004BA746DF09004BBE4F090BE
:201B630004BCE4F0900326E0FFBF03028003021C0AC0057EBD7F047C0074022EFAE43FFB0C
:201B83008C058A828B838DF07401126F48A3E4126F4874042EFAE43FFB8C058A828B838D96
:201BA300F07402126F48A3E4126F4874062EFAE43FFB8C05900618E4F09006197408F0E4D1
:201BC300A3F08A828B838DF0C007C006C005C004126F07D004D005D006D007740E2EFEE452
:201BE3003FFF900618E4F09006197408F0E4A3F08E828F838CF0C005126F077582D91219AA
:201C0300C3D005D0058075C00590012AE0FCA3E0FEA3E0FF780FE2FA08E2FB8C828E838F0A
:201C2300F0EA126F48A3EB126F4874022CF50CE43EF50D8F0E7819E2FB08E2FD850C828556
:201C43000D83850EF0EB126F48A3ED126F4874062CFCE43EFEC007C006C004124C25AD829C
:201C6300D004D006D0078C828E838FF0ED126F487582B9C0051219C3D005D0057882EDF2A6
:081C83009004B312478AD3223A
:201C8B00AE82AF83E0FDBDFE1E8E828F83A3E0FDBD091474052EFEE43FFF8E828F83E0706C
:201CAB00069003267401F022E5827835F2124BCD7836E582F208E583F27B007C007838741F
:201CCB00FFF20874FFF27836C3E2940808E294005003021DAC8B828C83C004C003124A1CF5
:201CEB00858228D003D00474FEB528028003021DAC74012BFEE43CFF8E828F83C004C003FE
:201D0B00124A1C858228D003D004740925285003021DACC003C004AD287E0074082DFAE421
:201D2B003EFC7835E2F529752A00782BE2FB7F00E529C39BFBE52A9FFFC3EB9AEF64808C58
:201D4B00F063F08095F0D004D003405574082DFDE43EFE7836C3E29D08E29E404474062B8D
:201D6B00FEE43CFF8E828F83C004C003124A1CAF82D003D004BF460C7412B528077838EB2C
:201D8B00F208ECF274082528F528AA287F007836E2C39AF208E29FF2EA2BFBEF3CFC021C7A
:201DAB00D17838E2F58208E2F58322E582900327F0E4F52DF52E782F7983E2F390022A123A
:201DCB004A54782FE2FD782BF2783AE2FA08E2FB7C00900610742AF07402A3F0E4A3F0900C
:201DEB000613EDF0E4A3F08A828B838CF0126E93782FE4F2783AE2F58208E2F583121C8B1F
:201E0B00900129E0FDBD020F900327E0F582121CB3AC82AD8380047CFF7DFF8C2F8D3012FD
:201E2B004BCD85822B85832C900327E0F53474FFB52F0974FFB5300474018001E4FCC3E51C
:201E4B002B9408E52C94005003021F89C0041249C5858231D00474FEB531028006782BE2B9
:201E6B00F58222C0041249E1858231D004740925315003021F89C004853132753300740812
:201E8B002532FBE43533FEAA347F00782BE2FC7D00EAC39CFAEF9DFFC3EA9BEF64808EF0D9
:201EAB0063F08095F0D0045003021F8974082532FEE43533FFC3E52B9EE52C9F5003021F3D
:201ECB0089EC7028E52DB52F07E52EB53002801C900006C004124A1CAF82D004BF460D74FA
:201EEB0012B5310874082531F531807074082531F531782BE2242AFEE43402FF7883E531FC
:201F0B00F28E828F83C004124A54783A792BE3C5F0E225F0FE08E23400FF7D00782BE22408
:201F2B002AFAE43402FB900610EAF0EBA3F0E4A3F0900613E531F0E4A3F08E828F838DF023
:201F4B00126E93783A792BE3C5F0E225F0FE08E23400FF8E828F83121C8BD004782BE2250A
:201F6B0031F2AE317F00E52BC39EF52BE52C9FF52CEE252DF52DEF352EF52E021E49782B90
:201F8B00E2F58222858235124BCD858236858337200D16300865200A62782BE2605DC3E583
:201FAB00369420E53794005052782BC3E2F5F0E53595F05008782BE4F275820022D20AC286
:201FCB000D783CE2FA08E2FB7C00900610742AF07402A3F0E4A3F0782B900613E2F0E4A39F
:201FEB00F08A828B838CF0126E93782BE2F536753700782BE4F2AB368B8222C20A200E035B
:20200B000220BF782BE2FB7C008B368C37853538753900C3E5389536E53995375065783CB6
:20202B00E2FA08E2FE7F00900610742AF07402A3F0E4A3F0900613E538F0E539A3F08A822B
:20204B008E838FF0126E93E535242AFEE43402FF900610EEF0EFA3F0E4A3F0AE357F0090E4
:20206B000613E536C39EF0E5379FA3F090022A75F000126E93E536C39535782BF2D20B85AF
:20208B00358222783CE2FD08E2FE7F00900610742AF07402A3F0E4A3F0900613EBF0ECA39B
:2020AB00F08D828E838FF0126E93C20ED20B782BE2F58222C20BAE357F00C3EE9536EF9579
:2020CB003750048E368F37782BE4F2E53645377003F58222900129E0FF7053E53645376071
:2020EB0043AD367883EDF2783CE2F58208E2F583C005124A54D005502B783C900610E2F075
:20210B0008E2A3F0E4A3F0900613E536F0E537A3F090022A75F000C005126E93D005782BEC
:20212B00EDF28004782BE4F2782BE2F58222782FE2B4010280030221CE7401B53606E4B5E7
:20214B00370280028079126819AE82AF837830D3E29EF4B3FEB308E29FF4FF7832C3E29E0F
:20216B0008E29F5056782BE2FF782B04F2EF242AFFE43402FEC007C006124910AD82D006B7
:20218B00D0078F828E83EDF0783CE2FD08E2FE7F00900610742AF07402A3F0E4A3F0782B0D
:2021AB00900613E2F0E4A3F08D828E838FF0126E93782FE4F2782BE2F58222758200227844
:2021CB002FE4F2782FE2700302225D782FE2FE7F00C3E5369EE5379F5068126819AE82AF0B
:2021EB00837830D3E29EF4B3FEB308E29FF4FF7832C3E29E08E29F5045AD367883EDF2902A
:20220B00022AC005124A54D005782BEDF2783CE2FC08E2FE7F00900610742AF07402A3F085
:20222B00E4A3F0900613EDF0E4A3F08C828E838FF0126E93782FE4F2782BE2F582227582DC
:20224B000022783C793AE2F308E209F3853582021DB6E536453770030223FE1249C5AF82A0
:20226B00BFFE0280030223CF7401B53606E4B537028002802E782BE260030223FE782F748F
:20228B0001F2126819E5828583F07830F208E5F0F2782DE2FE08E2FF7832EEF208EFF2758F
:2022AB008200221249E1AF82782FEFF2BFF70050208F057E0074082DFDE43EFE7834E2FBF3
:2022CB007C00C3EB9DEC64808EF063F08095F05033782FE4F2782BE2FE782B04F2EE242A2E
:2022EB00FEE43402FDC006C005124910AC82D005D0068E828D83ECF0153674FFB536021533
:20230B003702225D74082FFF782FF2782BE26062783CE2FC08E2FD7E00900610742AF074D1
:20232B0002A3F0E4A3F0782B900613E2F0E4A3F08C828D838EF0126E93126819E582858340
:20234B00F07830F208E5F0F2782FE2FD7E00782D90061DE2F008E2A3F08D828E83126F933A
:20236B00E5828583F07832F208E5F0F2782BE2F582227E00C3E5369FE5379E50371268199B
:20238B00E5828583F07830F208E5F0F2782FE2FE7F00782D90061DE2F008E2A3F08E828F1E
:2023AB0083126F93E5828583F07832F208E5F0F275820022783C793AE2F308E209F38535BC
:2023CB0082021DB6782BE2FF782B04F2EF242AFFE43402FEC007C006124910AD82D006D05D
:2023EB00078F828E83EDF0153674FFB53602153702225D783CE2FD08E2FE7F009006107440
:20240B002AF07402A3F0E4A3F0782B900613E2F0E4A3F08D828E838FF0126E93782BE2F556
:20242B008222A20A22A20B22D20D22E582900328F07834F222AF83E582900329F0EFA3F0B6
:20244B00900329E0FEA3E0FF900604EEF0EFA3F0E4A3F0E4A3F090000075F001E4126D52C2
:20246B00AC82AD83AEF0FF0CBC00090DBD00050EBE00010F782DECF208EDF222E582900354
:20248B002BF0200F39783EE2FD08E2FE7F0090032BE0FCFA7B00900610EDF0EEA3F0EFA30D
:2024AB00F0900613EAF0EBA3F090012E75F000C004126E93D004782CECF2C20CC322200CF0
:2024CB003790032BE0FF782CE2B5072C783E900632E2F008E2A3F0E4A3F0900635EFF0E4DD
:2024EB00A3F090012E75F0001271C9E5828583F045F07004C20CD322D20CC322AF82BF133D
:20250B000050259003A474FCF090022AC0071233F4D0078F82122CCA12341DAF82782BEFD2
:20252B00F2EF6004C20AD20E22D2019003A474FCF090022A1233F41206C512341DAF827835
:20254B002BEFF2EF6004C20AD20E22AE82AF837840C3E2F5F074FC95F05005784074FCF23B
:20256B00900610EEF0EFA3F0E4A3F07840900613E2F0E4A3F090022A75F000126E9378403D
:09258B00E2782BF2C20AD20E2202
:20259400AF82BF1300400122EF24ED50030226B7EF240A83F582EF241783F583E473D8DA4A
:2025B400E4F9FB102712B7B7B7B7B7B7B7743C12922525252525262626262626262626265C
:2025D40026262626C322AF0F8F82124C74921022C3E4950F74019510E49511E49512400348
:2025F4000226B7C322D322C3741E950FE49510E49511E4951240030226B7C322C322C37454
:2026140001950FE49510E49511E4951240030226B7C322C37402950FE49510E49511E495F3
:202634001240030226B7C32274FFB50F0F74FFB5100AE4B51106E4B5120280028002D3228F
:20265400900368E0FCA3E0FDA3E0FEA3E0FFECB50F0EEDB5100AEEB51106EFB51202C3223B
:20267400900374E0FCA3E0FDA3E0FEA3E0FFC3E50F9CE5109DE5119EE5129F402622C3E5A1
:202694000F9402E5109400E5119400E51294005012C3E4950F74809510E49511E495125038
:2026B40002C322D322AF827841E2F50F08E2F51008E2F51108E2F5128F82C007122594D017
:2026D40007400122EF24ED500302288AEF240A83F582EF241783F583E4738A8A8A8A148A1C
:2026F400D8EE8A8A8A337A8A18426A7E5628282828272827272828282727282828282828A0
:202714007841E2F582C007123E4D123E8DAE82D0077841EEF208E4F208F208F202288A78B4
:2027340045E4F208F208F208F278497464F208E4F208F208F27841E2F58208E2F58308E2C1
:20275400F5F008E2C007122D71AB82AC83ADF0FED0077841EBF208ECF208EDF208EEF2788E
:202774009FEBF202288A7841E2F5F008E242F008E242F008E245F0604278457419F208E474
:20279400F208F208F2784974DCF208E4F208F208F27841E2F58208E2F58308E2F5F008E23D
:2027B400C007122D71AB82AC83ADF0FED0077841EBF208ECF208EDF208EEF2784179A3E2BE
:2027D400F302288A7841E2FE900129F07841EEF208E4F208F208F202288A7841E2F5F00854
:2027F400E242F008E242F008E245F024FF920850047E0180027E007841EEF208E4F208F275
:2028140008F280727841E2F5F008E242F008E242F008E245F024FF920950047E0180027E50
:20283400007841EEF208E4F208F208F280487841E2FD08E2FE8D828E83C007123EEAD007D9
:2028540080347841E2FD08E2FE8D828E83C007126294D00780207841E2FD08E2FE8D828EAD
:2028740083C0071262A3D007800C7841E2F582C0071262AFD007EF75F004A4242CF5827476
:202894000335F0F5837841E2F008E2A3F008E2A3F008E2A3F0D322AF82BF130040079000B3
:2028B40000E4F5F022EF75F004A4242CF582740335F0F583E0FCA3E0FDA3E0FEA3E08C82D4
:2028D4008D838EF02285821385831490039CE0FCA3E0FD90039EE0FB8C018D028B007F0041
:2028F400E82CF8EF3DFFC3E998EA9F5041E9C39CFEEA9DFFEE2513FEEF3514FF89828A83F0
:20291400C007C006C005C004C003C002C001120E35A882D001D002D003D004D005D006D003
:20293400078E828F83E8F009B900B10A80AE8513088514098B82C002C001120DB8AE82AF4F
:2029540083D001D002740129FCE43AFD8C828D83C007C006C002C001120E35AD82D001D035
:20297400028D047D0089828A83C005C004120E35AB82D004D005D006D0077A00EB4205EA24
:202994004204EEB50506EFB504028002C322D32285821585831690039FE0FCA3E0FD9003CE
:2029B400A1E0FB8C178D188B027F00EA2CFAEF3DFFC3E5179AE5189F5036E517C39CFEE53F
:2029D400189DFFEE2515F582EF3516F583780AE0F2851782851883C005C004C003120E548C
:2029F400D003D004D0050517E4B517BB051880B78515088516098B82120DB8AE82AF838E52
:202A140004780AECF2851782851883C007C006120E54D006D00774012517FCE43518FD78FF
:202A34000AEFF28C828D83020E54D310AF01C3C0D0122B98900000120E35E582FF24B340F8
:202A540005BF30005004C3022B287D2C7E0390039C7401F0E4A3F090039EEFF08D828E839D
:202A74001228D94003022B287582001228ABAC82AD83AEF0FFBC1B0BBD0008BE0005BF0097
:202A9400028004C3022B287F00EF75F004A4242CFD740335F0FE8D828E83E0F50FA3E0F5A6
:202AB40010A3E0F511A3E0F5128F82C007C006C005122594D005D006D0074032EF75F00762
:202AD400A42483FB747935F0FC8B828C83A3A3A3E493F9A3E493FAA3E493FBA3E493FC8D4D
:202AF400828E83E9F0EAA3F0EBA3F0ECA3F00FBF4C0040957E787F0390039C7401F074016C
:202B1400A3F090039E7424F08E828F831228D940028001D333D0D092AF1322D310AF01C3EB
:202B3400C0D090032C741BF0E4A3F0E4A3F0E4A3F0120E1A780A744CF2900000120E547E5E
:202B54002C7F0390039F7401F0E4A3F09003A1744CF08E828F831229A4780A7424F2900123
:202B740000120E547E787F0390039F7401F07401A3F09003A17424F08E828F831229A4D029
:202B9400D092AF227F00EF75F004A4242CFD740335F0FEEF75F007A42483FB747935F0FCDD
:202BB4008B828C83A3A3A3E493F9A3E493FAA3E493FBA3E493FC8D828E83E9F0EAA3F0EBEC
:202BD400A3F0ECA3F00FBF130040BB7F00EF75F006A4FDAEF02478FBEE3403FC907A08E42D
:202BF40093F573A3E493F574A3E493F575A3E493F5768B828C83E573F0E574A3F0E575A3ED
:202C1400F0E576A3F0ED2478FDEE3403FE74042DFBE43EFC907A0CE493540F8B828C8354FB
:202C34000FF5F0E054F045F0F074042DFBE43EFC907A0CE493C4540FFA8B828C83C454F0B3
:202C5400F5F0E0540F45F0F074052DFDE43EFE907A0DE493FC8D828E83F00FBF060050038F
:202C7400022BE122AF827E008F037C007D40EE75F007A42483F582747935F0F583E493F881
:202C9400A3E493F9A3E493FA90061FE8F0E9A3F0EAA3F08B828C838DF0C007C006126FB319
:202CB400E5828583F0D006D00745F060060EBE130040B58E822285821974ED2519406EE501
:202CD4001975F004A4242CF582740335F0F583E0F51AA3E0F51BA3E0F51CA3E0F51DE51936
:202CF40075F007A42483F582747935F0F583E493FAA3E493FEA3E493FFAC197D00C01AC08A
:202D14001BC01CC01DC002C006C007C004C0057854E2C0E008E2C0E0740EC0E0747AC0E06B
:202D34007480C0E01236ADE58124F2F58122AF82BF13005021EF75F007A42483F582747964
:202D540035F0F583E493FDA3E493FEA3E493FF8D828E838FF02290000075F00022AC82AD6A
:202D740083AEF0FF7845C3E2F5F0EC95F008E2F5F0ED95F008E2F5F0EE95F008E2F5F0EF26
:202D940095F0500D7845E2FC08E2FD08E2FE08E2FF7849C3E29C08E29D08E29E08E29F5000
:202DB4000D7849E2FC08E2FD08E2FE08E2FF8C828D838EF0EF22D310AF01C3C0D0AE82AF29
:202DD40083758F0175B7A575B7F18E828F83E58124FDF8E6F0758F00D0D092AF22E493F57F
:202DF4008222E582FF24E14041A8811818B6FF0280387E0074DE2FFC74FB3EFD8C828D83A4
:202E1400C007C006122DF1AD82D006D007BDFF1A74DE2FFF74FB3EFEA8811818E6C0E08F96
:202E3400828E83122DCA1581D322C322AF827E007D00ED90F7DE93FC62060DBD1F0040F2E2
:202E540090F7FDE493FDBDFF02801690F7FDE493FDB5060DEF24E14008EF90F7DE93F582B8
:202E7400227582FF22AF827E0074DE2FFF74FB3EFE8F828E83022DF17F0090FBFDC0071208
:202E94002DF1AE82D007BEFF6A7E008E047D008C028D0374DE2AFA74FB3BFB8A828B83C032
:202EB40007C006C005C004122DF1AB82D004D005D006D007EB6207BBFF1BC004C0057420AF
:202ED400C0E0747AC0E07480C0E01236ADE58124FBF581C3220EBE1F0040B0C00790FBFD1D
:152EF400122DCA158174FEC0E090FBFF122DCA1581D322C32215
:207983003D7A801B000000447A8039000000517A80400000005B7A8019000000617A8000C7
:2079A300000000697A80000000006D7A8000000000757A80000000007F7A8000000000888A
:2079C3007A8000000000917A80000000009E7A8064000000A97A8000000000B27A800000D4
:2079E3000000BD7A8000000000C47A8001000000CB7A80FFFF0000DB7A8000000000E37A19
:207A03008002000000FFFFFFFF01FF5B25755D205325753A2025733D256C750A0064426D34
:207A2300206C6576656C202575206E6F742063616C696272617465640A00464F524D4154E2
:207A43000053455249414C5F5350454544004149525F5350454544004E45544944005458C7
:207A6300504F57455200454343004D41564C494E4B004F5050524553454E44004D494E5FA6
:207A830046524551004D41585F46524551004E554D5F4348414E4E454C5300445554595F02
:207AA3004359434C45004C42545F52535349004D414E434845535445520052545343545304
:207AC300004E4F44454944004E4F444544455354494E4154494F4E0053594E43414E590063
:0A7AE3004E4F4445434F554E5400EA
:202F09007F00EF75F006A42478FD740335F0FE8D828E83A3A3A3A3E0540F24FF92118F8232
:202F2900C007C006C005122F58D005D006D0078D828E83A3A3A3A3E0C4540F24FF92138F11
:202F490082C00712319BD0070FBF060040B422AF82BF0600400302317BEF75F006A42478FF
:202F6900FD740335F0FE8D828E83A3A3A3A3A211E433FC540FF5F0E054F045F0F08D828E11
:202F890083A3A3A3A3A374FFF075A700EF75F002A4FEAFF024EDF582EF347AF583E493FD4F
:202FA900600FBD010302304DBD02030230E0023171301122EE24EDFCEF347AFD8C828D83CB
:202FC900A3E493FD8DF005F07401800225E0D5F0FBFD42A48021EE24EDFCEF347AFD8C827C
:202FE9008D83A3E493FD8DF005F07401800225E0D5F0FBF4FD52A475A70F301123EE24EDFE
:20300900FCEF347AFD8C828D83A3E493FD8DF005F07401800225E0D5F0FBFD42A402317622
:20302900EE24EDFCEF347AFD8C828D83A3E493FD8DF005F07401800225E0D5F0FBF4FD524C
:20304900A4023176301122EE24EDFCEF347AFD8C828D83A3E493FD8DF005F074018002255F
:20306900E0D5F0FBFD42A58021EE24EDFCEF347AFD8C828D83A3E493FD8DF005F0740180F1
:203089000225E0D5F0FBF4FD52A575A70F301123EE24EDFCEF347AFD8C828D83A3E493FD1F
:2030A9008DF005F07401800225E0D5F0FBFD42A5023176EE24EDFCEF347AFD8C828D83A3F6
:2030C900E493FD8DF005F07401800225E0D5F0FBF4FD52A5023176301122EE24EDFCEF3433
:2030E9007AFD8C828D83A3E493FD8DF005F07401800225E0D5F0FBFD42A68021EE24EDFC6C
:20310900EF347AFD8C828D83A3E493FD8DF005F07401800225E0D5F0FBF4FD52A675A70F95
:20312900301122EE24EDFCEF347AFD8C828D83A3E493FD8DF005F07401800225E0D5F0FB2B
:20314900FD42A68028EE24EDFEEF347AFF8E828F83A3E493FF8FF005F07401800225E0D5C0
:20316900F0FBF4FF52A6800575A700C32275A700D322C322E58275F006A42478FE74033538
:20318900F0FF8E828F83A3A3A3A3E0540F24FF921222E582FF75F006A42478FD740335F0B3
:2031A900FE8D828E83A3A3A3A3A213E433FCC454F0F5F0E0540F45F0F0BF06004003023203
:2031C900DF8D828E83A3A3A3A3A3E0FEBEFF0280030232DFEF75F002A4FEAFF024EDF58266
:2031E900EF347AF583E493FD600EBD01028053BD02030232930232DB301323EE24EDFCEF54
:20320900347AFD8C828D83A3E493FD8DF005F07401800225E0D5F0FBFD42800232DDEE24B5
:20322900EDFCEF347AFD8C828D83A3E493FD8DF005F07401800225E0D5F0FBF4FD528002DA
:2032490032DD301322EE24EDFCEF347AFD8C828D83A3E493FD8DF005F07401800225E0D5E4
:20326900F0FBFD4290806DEE24EDFCEF347AFD8C828D83A3E493FD8DF005F0740180022546
:20328900E0D5F0FBF4FD5290804A301322EE24EDFCEF347AFD8C828D83A3E493FD8DF00537
:2032A900F07401800225E0D5F0FBFD42A08025EE24EDFEEF347AFF8E828F83A3E493FF8F72
:2032C900F005F07401800225E0D5F0FBF4FF52A08002C322D322C322E58275F006A424780C
:2032E900FE740335F0FF8E828F83A3A3A3A3E0C4540F24FF921422AF82BF0600400302331E
:20330900BDEF75F006A42478FD740335F0FE74042DFDE43EFE8D828E83E0540F60030233F9
:20332900BDEF75F002A4FEAFF024EDF582EF347AF583E493FD600ABD0102802ABD0271809B
:203349004AEE24EDFCEF347AFD8C828D83A3E493FD8DF005F07401800225E0D5F0FBFDE540
:203369008052058D8222EE24EDFCEF347AFD8C828D83A3E493FD8DF005F07401800225E004
:20338900D5F0FBFDE59052058D8222EE24EDFEEF347AFF8E828F83A3E493FF8FF005F074AE
:1933A90001800225E0D5F0FBFFE5A052078F822275827F2275827F222261
:0C7AED0002030202020102000206000176
:0804DC00C215C216C217C218B6
:2033C200AF822019058F82024C60784E794DC3E3F5F0E295F0501A784EE2FE784E04F290E3
:2033E20003A2E0FCA3E0FDEE2CF582E43DF583EFF022AF83E5829003A5F0EFA3F09003A524
:20340200E0FEA3E0FF9003A2EEF0EFA3F0784EE4F29003A4E0784DF2D21922C219784EE2BB
:20342200F58222AD82AE83AFF08D828E838FF01275BFFC700122BC25028003023694C21872
:20344200C217C216C2150DBD00010E8D828E838FF01275BFFBBB6802800CBB6C10D2150D4D
:20346200BD000A0E8007D2170DBD00010E8D828E838FF01275BFFBBB63028030BB640280DB
:2034820018BB6F02802BBB7302800ABB7502800EBB78238010D216801D753A0A8018753A56
:2034A2000AD2188011753A10D218800A753A008005753A08D218301671A8811818E624FD66
:2034C200FBA8811818A6038B01873B09873C09873D1919C005C006C007AA3BAB3CAF3D8A40
:2034E200828B838FF01275BFD007D006D00570030236A5C005C006C007AA3BAB3CAF3D8A0F
:20350200828B838FF01275BFFA053BE4B53B02053C8A82C007C006C0051233C2D005D006F3
:20352200D007D007D006D00580A9301866301521A8811818E624FCFBA8811818A6038B010B
:20354200873E09873F0987400987411919190235FB30171DA8811818E614F9A8811818A608
:203562000187038B3E753F007540007541000235FBA8811818E624FEFBA8811818A6038BBB
:20358200018702098703198A3E8B3F7540007541008066301520A8811818E624FCFBA88128
:2035A2001818A6038B01873E09873F098740098741191919804330171EA8811818E614FBAE
:2035C200A8811818A6038B01E7FBF53E3395E0F53FF540F5418022A8811818E624FEFBA859
:2035E200811818A6038B018702098703198A3EEBF53F3395E0F540F541E53A700302367F6B
:2036020030182F9005C8747AF0E4A3F07440A3F09005CBE53AF0853E82853F838540F0E5A3
:2036220041C007C006C005126911D005D006D007802D9005F1747AF0E4A3F07440A3F09088
:2036420005F4E53AF0853E82853F838540F0E541C007C006C005126A27D005D006D0077909
:203662007AE7FB603E8B82C007C006C005C0011233C2D001D005D006D0070980E4AB3E8BF3
:2036820082C007C006C0051233C2D005D006D00780118C82C007C006C0051233C2D005D02E
:2036A20006D0070DBD00010E02342BE58124FCFFC007E58124FBF886820886830886F0127F
:0536C2003425158122F2
:2036C700AFF0AE83E5829004A3F0EEA3F0EFA3F0201A02C322784FC3E2F5F074FC95F050CB
:2036E70005123A6580459004A3E0FDA3E0FEA3E0FF8D828E838FF0784FE2126F487862E264
:20370700FD08E2FE7F0090061074A7F07403A3F0E4A3F0784F900613E2F0E4A3F08D828EB6
:20372700838FF0126E93123A65D322780FE2FE08E2FFBEFF05BFFF02800C0EBE00010F7815
:203747000FEEF208EFF2C322AF8275A700C294C2B77586FF7864E2FD08E2FE8F041FEC60EE
:203767001130B1FD8D828E83E0F586A3AD82AE8380E930B1FD74805584FFBF800280F6C249
:20378700B7D29475A70022201A057850E26002D322758231123F5BE58230E402D322C3225C
:2037A700A2A8921CC2A8101B028006A21C92A8D322A21C92A8C3227851E2F58222758226C2
:2037C700023F5B785EE2F58222758208123F5BAF8274014FFEC007C006758208123F251540
:2037E70081D0075307FEC007758208123F25158122758208123F5BAF8274024FFEC007C0F8
:2038070006758208123F251581D0075307FDC007758208123F25158122E582FF2403501978
:20382700C00774F9C0E0747AC0E07480C0E0121097158115811581D007C0071237D0D00782
:20384700C007C00775823E123F251581D007EFFE24DF50027E2078667964E2F308E209F365
:203867008E82C007C00612374FD006D007EFC39EFF7866E22EF208E23400F2C007E4C0E0D5
:20388700758205123F251581E4C0E0758206123F251581C21BC21D7409C0E0758207123F64
:2038A700251581126819AC82AD83D007C007C005C004126819AA82AB83D004D005D007EAD7
:2038C700C39CFAEB9DFB7868C3E2F5F0EA95F008E2F5F0EB95F040030239EC758203C007C2
:2038E700C005C004123F5BAB82D004D005D007301D40EF603DEB30E5397E04BF04005002F6
:203907008F0678667964E2F308E209F38E82C007C006C005C00412374FD004D005D006D088
:2039270007EFC39EFF7866E22EF208E23400F20238B3301D40EF603DEB20E6397E04BF04C5
:203947000050028F0678667964E2F308E209F38E82C007C006C005C00412374FD004D0059C
:20396700D006D007EFC39EFF7866E22EF208E23400F20238B3EB30E7201237D07811E2FAC7
:2039870008E2FEBAFF05BEFF02800C0ABA00010E7811EAF208EEF2C322758202C007C005A5
:2039A700C004123F5BAB82D004D005D007EB30E105D21D0238B3201D030238B3EB30E103DA
:2039C7000238B3EF601D7811E2FE08E2FFBEFF05BFFF02800C0EBE00010F7811EEF208EFEB
:2039E700F2C322D3227811E2FE08E2FFBEFF05BFFF02800C0EBE00010F7811EEF208EFF266
:203A0700C322E5829004A8F0A2A8921FC2A8D2A59004A6E0FEA3E0FFFDC007C006C00575ED
:203A2700823A123F251581D006D007C00675823B123F2515819004A8E0FF786A7966E2F355
:203A470008E209F3786C7968E2F308E209F38F82123820921EC2A5A21F92A8A21E22C2A820
:203A6700C21A784FE4F2C21B7850E4F27413C0E0758205123F2515817440C0E075820612B9
:203A87003F251581123FCF1237D01237F87405C0E0758207123F251581D2A8D32290003257
:203AA7001267A8758201123F5BAF82BFFF028005BF05005002C32212402F758201123F5BA4
:203AC700E582FF20E00612402F922022EF30E102D322C322AC82AD83AEF0FFC3ED941CEEF9
:203AE700944EEF940E400E74C09C74F79D74BA9E74379F5002C3227856ECF208EDF208EE50
:203B0700F208EFF28C828D838EF0EF12409BD322AC82AD83AEF0FFC374F09C74E89D742605
:203B27009EE49F5002C322786E7410F2087427F208E4F208F28C828D838EF0EF123FDBACFA
:203B470082AD83AEF0FF785AECF208EDF208EEF208EFF2C00475827A123F251581D322E58C
:203B6700829004A9F0785FE2FF9004A9E0FEB5070122785FEEF2C006758279123F251581E4
:203B8700C21B22785FE2F58222AF82C007E4C0E0758205123F251581E4C0E0758206123F77
:203BA700251581123FCF7415C0E075820B123F2515817412C0E075820C123F2515817582C0
:203BC700001242F374B6C0E0758209123F251581D007EF249B5010C00774C0C0E0758258F2
:203BE700123F251581D0077856E2FB08E2FC08E2FD08E28B828C838DF0C00712409B785A5A
:203C0700E2FB08E208E208E2C00375827A123F251581748DC0E0758230123F251581744238
:203C2700C0E0758233123F25158174CFC0E0758232123F25158174FFC0E0758245123F25CA
:203C4700158174FFC0E0758246123F25158174FFC0E0758243123F25158174FFC0E0758208
:203C670044123F251581743CC0E075827C123F2515817420C0E075827D123F2515817432C4
:203C8700C0E075827E123F25158178617410F27861E2FEC006758234123F2515817428C09B
:203CA700E0758235123F251581758200123E4DD0077E00EE907B1693FDC39F50060EBE0CCD
:203CC7000040F0EEFF907B1693FE785EF2BE200040047E0D80027E2D75820DC007C00612C9
:203CE70028ABAA82AB83ACF0FDD006D007EA4B4C4D600B785EE2FD247F4003430602C00764
:203D0700C006758270123F2515817423C0E0758271123F2515817444C0E075821D123F25D6
:203D27001581D007785EE2FEBEC8005012C007740AC0E075821E123F251581D0078010C044
:203D4700077402C0E075821E123F251581D007780DE2B4433A7E00EE75F00DA42423FC7476
:203D67007B35F0FDEF2CF582E43DF583E493FDEE907B0A93FCC007C006C0058C82123F2598
:203D87001581D006D0070EBE0C0040CB023E4B780DE2B447397E00EE75F00DA424BFFC74FB
:203DA7007B35F0FDEF2CF582E43DF583E493FDEE907B0A93FCC007C006C0058C82123F2558
:203DC7001581D006D0070EBE0C0040CB8076780DE2B486397E00EE75F00DA4245BFC747CF9
:203DE70035F0FDEF2CF582E43DF583E493FDEE907B0A93FCC007C006C0058C82123F25157E
:203E070081D006D0070EBE0C0040CB80377E00EE75F00DA424F7FC747C35F0FDEF2CF58296
:203E2700E43DF583E493FDEE907B0A93FCC007C006C0058C82123F251581D006D0070EBEF7
:203E47000C0040CBD322E5829004AAF07406C0E075826D123F2515819004AAE0FFF582C0DC
:203E670007122E40AE82D007BEFF0280078EFC7860EFF222EFC313FF907D9393F5FCEF2FFC
:203E8700FF7860EFF2227860E2F58222AF83E5829004ABF0EFA3F09004ABE0FEA3E0FF8E77
:203EA700047852ECF28F057853EDF2200734C007C006C005C00575823C123F251581D0058B
:203EC700D006D007C006C005C00675823D123F251581758241123F251581758242123F25AA
:203EE700158122AF83E5829004ADF0EFA3F09004ADE0FEA3E0FF7854EEF208EFF28F06C02C
:203F07000675823F123F2515817854E254FFFE08E25400C006758240123F25158122AF82B9
:203F2700A2A89238C2A875A700C294C2B774804FF58630B1FDA8811818868630B1FD74803E
:203F47005584FFBF800280F6C2B7D29475A700A23892A822AF82A2A89238C2A875A700C20D
:203F670094C2B78F8630B1FD75860030B1FD74805584FFBF800280F6AF86C2B7D29475A7AE
:203F870000A23892A88F8222AF8275A700C294C2B775867F30B7FD8586E0E58124FDF88669
:203FA700050886068F041FEC6016C2B775860030B7FD8D828E83E586F0A3AD82AE8380E413
:203FC700C2B7D29475A70022758203123F5B758204023F5BAF82AE83ADF0FC7872EFF208B2
:203FE700EEF208EDF208ECF27871E2C313FF18E213FE18E213FB18E213FA7872E22AFA085B
:20400700E23BFB08E23EFE08E23FFF786E900604E2F008E2A3F008E2A3F008E2A3F08A825E
:204027008B838EF0EF026D52E4C0E0758205123F251581E4C0E0758206123F251581123FD3
:20404700CF7481C0E0758207123F25158190000212676F3087071267A050F8C322E4C0E0E9
:20406700758205123F2515817402C0E0758206123F25158190001412676F1267A0401375A5
:204087008203123F5B758204123F5BE58230E1EAD322C322AF82AE83ADF0FC7876EFF20833
:2040A700EEF208EDF208ECF27876C3E2F5F0E495F008E2F5F0743895F008E2F5F0749C95F7
:2040C700F008E2F5F0741C95F040030241917877E224C8F208E23463F208E234E3F2900643
:2040E70004E4F0742DA3F07431A3F07401A3F07876E2F58208E2F58308E2F5F008E2126D8C
:2041070052AA829004AFEAF0900629EAF0E4A3F0E4A3F0E4A3F0902D0075F03174011270B5
:20412700B0AC82AD83AEF0FF7876E2C39CF208E29DF208E29EF208E29FF2786E7471F20879
:204147007402F208E4F208F27876E2F58208E2F58308E2F5F008E2123FDB7876C0E0E58295
:20416700F208E583F208E5F0F2D0E008F27876E225E0F208E233F208E233F208E233F290E7
:2041870004AFE0FF4420F00242547877E224E4F208E234B1F208E234F1F29006047480F08F
:2041A7007496A3F07498A3F0E4A3F07876E2F58208E2F58308E2F5F008E2126D52AC829054
:2041C70004AFECF0900629ECF0E4A3F0E4A3F0E4A3F090968075F098E41270B0AC82AD8332
:2041E700AEF0FF7876E2C39CF208E29DF208E29EF208E29FF2786E7471F2087402F208E473
:20420700F208F27876E2F58208E2F58308E2F5F008E2123FDB7876C0E0E582F208E583F2D4
:2042270008E5F0F2D0E008F27876E225E0F208E233F208E233F208E233F2181818E225E0DB
:20424700F208E233F208E233F208E233F29004AFE04440F07876E2FC08E2FDC005C00490D5
:2042670004AFE0C0E0758275123F251581D004D0058D07C005C004C007758276123F251507
:2042870081D004D005C004758277123F2515812275A70FAE86E4CE25E0CE33CE25E0CE33A2
:2042A700FFE58523235403FD7C004206EC420775A700D2EC20ECFDADBE7C00AABD7B00EA65
:2042C7004204EB4205ECC39EFEED9FFF90063A7402F0E4A3F08E828F831272F8E5828583CF
:2042E700F02421FCE435F08C82F58322E5829004B0F0FF24FC4068EF2F2F90430573024396
:20430700110243660243660243367418C0E075820D123F251581758208123F5BAF82741F09
:204327005F4480FFC007758208123F25158122758208123F5BAF82741F5F4420FFC00775F3
:204347008208123F251581740AC0E075820D123F251581E4C0E075820E123F251581227566
:204367008208123F5BAF8253071FC007758208123F251581740AC0E075820D123F25158156
:204387007404C0E075820E123F25158122C027C0E0C0F0C082C083C007C006C005C004C039
:2043A70003C002C001C000C0D075D000758204123F5BAF82758203C007123F5BAE82D0078F
:2043C700EE30E4497850E2FC7D0074322CFCE43DFDC374FC9CE49D500302449F7850E22426
:2043E700A7FCE43403FDC007C006C004C005758232123F8F158115817850E22432F27582C7
:2044070026123F5BE582D006D0077851F2EF30E611D21B758226C006123F5BE582D00678AD
:2044270051F2200704EE20E06FEE30E16975824B123F5BE582FF2403405E7850C3E2F5F0D7
:20444700EF95F040537850C3E29F50227850E224A7FDE43403FE7850D3E29FF4FCC007C0B2
:2044670005C0068C82123F8F15811581D007784FEFF2D21AE4C0E0758205123F251581E475
:20448700C0E0758206123F2515817402C0E0758207123F251581801E780FE2FE08E2FFBEA0
:2044A700FF05BFFF02800C0EBE00010F780FEEF208EFF2123A65D0D0D000D001D002D003E2
:1344C700D004D005D006D007D083D082D0F0D0E0D027324E
:207AF9006F76657273697A6564207061636B6574001C1F2021222324252A6E6F7202040869
:207B19001013182030406080C0FA2727272E1601050B9A888A8C8D0303030303030303033D
:207B390003030303F4FA7D3F69A77D535E7D5E3F30200001020100010101010102024183FD
:207B5900060C37C406895D065D0CAA8912254A4C9C25378625864AAB000102040201020377
:207B7900020202040785080E12728A0E18BB0EBBEAFF1D1D1D1E1E1E20304150505050100D
:207B99002041839BC4080C101820314062C58912A69C314A6293C5270003060D1A1E2633B5
:207BB9004D669ACDFEFE2B2B2B2E1601050B9A888A8C8D03030303030303030303030303D4
:207BD900F4FA7D3F69A77D535E7D5E3F30200001020100010101010102024183060C37C45C
:207BF90006895D065D0CAA8912254A4C9C25378625864AAB000102040201020302020204DA
:207C19000785080E12728A0E18BB0EBBEAFF1E1E1E21212121304150505050102041839BEA
:207C3900C4080C101820314062C58912A69C314A6293C5270003060D1A1E26334D669ACD79
:207C5900FEFE010101010101050B9A888A8C8D03030303030303030303030303D0E8F4FA67
:207C7900D3A77D535E7D5E3F30E0602000000001010101010202102041839BC406895D064B
:207C99005D0CAA62C58912A69C25378625864AAB000000010101020302020204072344852D
:207CB90008398A0E18BB0EBBEAFF1C1C1C1C1C1E20304150505050102041839BC4080C105B
:207CD9001820314062C58912A69C314A6293C5270003060D1A1E26334D669ACDFEFE0101C3
:207CF90001010101050B9A888A8C8D03030303030303030303030303D0E8F4FAD3A77D537B
:207D19005E7D5E3F30E0602000000001010101010202102041839BC406895D065D0CAA627F
:207D3900C58912A69C25378625864AAB0000000101010203020202040723448508398A0E28
:207D590018BB0EBBEAFF1E1E1E1E1E1E20304150505050102041839BC4080C1018203140E0
:207D790062C58912A69C314A6293C5270003060D1A1E26334D669ACDFEFEEBE6E0DAD3CEA1
:0A7D9900C9C4BEB8B2ABA49688506E
:2044DA00C027C0E0C0F0C082C083C007C006C005C004C003C002C001C000C0D075D0001005
:2044FA0098030245F6AF9930000E3001030245F68F821204E70245F68F82C007120581D048
:20451A0007787AE22401FD08E23400FEBD0009BE04067D007E00800B787AE22401FD08E274
:20453A003400FE787CE2B5050708E2B50602803A787AE22443F58208E23406F583EFF07892
:20455A007AE22401FD08E23400FEBD0009BE04067D007E00800B787AE22401FD08E234007F
:20457A00FE787AEDF208EEF2801B7815E2FD08E2FEBDFF05BEFF02800C0DBD00010E781509
:20459A00EDF208EEF2300954787A797CC3E3F5F0E295F009E3F5F008E295F0B3E433FE606C
:2045BA001B787CE22400FD08E23404FE787AD3E29DF4B3FDB308E29EF4FE8015787C797A1E
:2045DA00E3F5F0C3E295F0FD09E3F5F008E295F0FEC3ED9420EE94005002D28210990280DD
:2045FA0061787E7980E2F5F0E3B5F00B08E2F5F009E3B5F002804930090A308307200004AB
:20461A00D221803E7880E22443F58208E2340AF583E0FF7880E22401FD08E23400FEBD00C3
:20463A0009BE02067D007E00800B7880E22401FD08E23400FE7880EDF208EEF28F9980028A
:20465A00D221D0D0D000D001D002D003D004D005D006D007D083D082D0F0D0E0D02732785B
:20467A007E7980E2F5F0E3B5F00A08E2F5F009E3B5F0012230210302490122AF8275A700BE
:20469A00C2AC787AE4F208F27880E4F208F2787EE4F208F27880E4F208F2D221C28EAE8900
:2046BA00740F5E4420F5898F82124C9AD28E759810C282D2AC22AF82C0071248A9AD82AEDB
:2046DA0083D007C3ED9401EE94005002C3228F821246EFD322AF82A2AC9238C2AC787EE28C
:2046FA002401FD08E23400FEBD0009BE02067D007E00800B787EE22401FD08E23400FE78C2
:20471A0080E2B5050708E2B506028044787EE22443F58208E2340AF583EFF0787EE22401BF
:20473A00FE08E23400FFBE0009BF02067E007F00800B787EE22401FE08E23400FF787EEE32
:20475A00F208EFF2302124C027124901D027801B7813E2FE08E2FFBEFF05BFFF02800C0EAA
:20477A00BE00010F7813EEF208EFF2A23892AC228582428583437882E27001221248A9AC11
:20479A0082AD837882E2FA7B00C3EC9AED9B501F7882ECF27813E2FC08E2FDBCFF05BDFF18
:2047BA0002800C0CBC00010D7813ECF208EDF27882E2FD787ED3E29400F4B3FBB308E29440
:2047DA0002F4FC8D027F00C3EB9AEC9F5008787EE2FFC3E49FFD787EE22443FE08E2340A15
:2047FA00FF7C00900610E542F0E543A3F0E4A3F0900613EDF0E4A3F08E828F838CF0C005D5
:20481A00126E93D005ED2542F542E43543F5437882E2C39DF2D22210AF02C2227F00787E3B
:20483A00E22DF208E23FF2787EC308E294024006787FE224FEF2A22292AF7882E2603E90C7
:20485A000610E542F0E543A3F0E4A3F07882E2FE7F00900613EEF0EFA3F0900A4375F0003B
:20487A00C007C006126E93D006D007D22210AF02C222787EEEF208EFF2A22292AFD2221070
:20489A00AF02C222302103124901A22292AF22A2AC9223C2AC787E7980C3E3F5F0E295F040
:2048BA0009E3F5F008E295F0B3E433FF601B7880E22400FE08E23402FF787ED3E29EF4B34F
:2048DA00FEB308E29FF4FF80157880797EE3F5F0C3E295F0FE09E3F5F008E295F0FFA22319
:2048FA0092AC8E828F832230090730830420000122C221D29922A2AC9224C2AC787A797C19
:20491A00E2F5F0E3B5F00B08E2F5F009E3B5F002803A787CE22443F58208E23406F583E0D7
:20493A00FF787CE22401FD08E23400FEBD0009BE04067D007E00800B787CE22401FD08E254
:20495A003400FE787CEDF208EEF280027F00300953787A797CC3E3F5F0E295F009E3F5F019
:20497A0008E295F0B3E433FE601B787CE22400FD08E23404FE787AD3E29DF4B3FDB308E2CF
:20499A009EF4FE8015787C797AE3F5F0C3E295F0FD09E3F5F008E295F0FEC3E49D74029E6C
:2049BA005002C282A22492AC8F8222A2AC9225C2AC787CE22443F58208E23406F583E0FF6E
:2049DA00A22592AC8F8222A2AC9226C2AC787CE22401FE08E23400FFBE0009BF04067E00ED
:2049FA007F00800B787CE22401FE08E23400FFEE2443F582EF3406F583E0FFA22692AC8F9C
:204A1A008222AF83E5829004B1F0EFA3F0A2AC9227C2AC9004B1E0FEA3E0FF787CE22EFE6C
:204A3A0008E23FFF530703EE2443F582EF3406F583E0FFA22792AC8F8222858244858345B9
:204A5A00124BCDAC82AD837883E2FA7B00C3EC9AED9B5002C3227884EAF208EBF2787CD3D6
:204A7A00E29400F4B3FAB308E29404F4FB7884C3E2F5F0EA95F008E2F5F0EB95F0501378D2
:204A9A007C7984D3E29400F4B3F3B308E29404F409F3AA44AB457F00787CE22443FD08E2FA
:204ABA003406FE900610EDF0EEA3F0E4A3F07884900613E2F008E2A3F08A828B838FF0128A
:204ADA006E937884E2FC7883E2C39CF27884E22544F54408E23545F545D22810AF02C228F0
:204AFA00787C7984E3C5F0E225F0F209E3C5F008E235F0F2787CC308E294044006787DE232
:204B1A0024FCF2A22892AF7883E26044AD44AE457F009006107443F07406A3F0E4A3F07831
:204B3A0083E2FB7C00900613EBF0ECA3F08D828E838FF0C004C003126E93D003D004D228A2
:204B5A0010AF02C228787CEBF208ECF2A22892AFD22810AF02C228300953787A797CC3E310
:204B7A00F5F0E295F009E3F5F008E295F0B3E433FF601B787CE22400FE08E23404FF787A40
:204B9A00D3E29EF4B3FEB308E29FF4FF8015787C797AE3F5F0C3E295F0FE09E3F5F008E2AD
:204BBA0095F0FFC3E49E74029F5002C282A22892AFD322A2AC9229C2AC787A797CC3E3F56E
:204BDA00F0E295F009E3F5F008E295F0B3E433FF6017787A797CE3F5F0C3E295F0FE09E321
:204BFA00F5F008E295F0FF8019787CD3E29400F4B3FCB308E29404F4FD787AE22CFE08E2C1
:204C1A003DFFA22992AC8E828F8322124BCDAE82AF83E4C39EFE74049FC423CEC423541FFC
:204C3A006ECE541FCE6ECEFF90061DEEF0EFA3F0900064126F93AE82E583A2E7CE33CE3364
:204C5A00CE54018E8222AF82BF0A0A75820DC0071246EFD0078F820246EFAF827E00BE093A
:204C7A0000501BEE75F003A424A3F582747D35F0F583E493FDEFB50502D3220E80E0C32282
:204C9A00AF82C007124C74D00740027F397E00BE0900501BEE75F003A424A3F582747D3551
:204CBA00F0F583E493FDEFB5050280030E80E0EE75F003A424A3FD747D35F0FE8D828E8370
:204CDA00A3E493F58DAC8E5304F48D828E83A3A3E4934CF58E900629EFF0E4A3F0E4A3F061
:0F4CFA00E4A3F090007DE4F5F01270B0022440C6
:1B7DA300012C02029602042C0009960013600126B001392B08739608E6CB08AC
:207ECB00000000000000000000000000000000000000000000000000000000000000000097
:207EEB00000000000000000000000000000000000000000000000000000000000000000077
:207F0B00000000000000000000000000000000000000000000000000000000000000000056
:207F2B00000000000000000000000000000000000000000000000000000000000000000036
:204D09007F0078B6E224FFFD08E234FFFE8F037C00C3EB9DEC9E4003024DC7BF080040037A
:204D2900024DC77854E2B5030808E2B50403024DC3EF75F002A4FDAEF0C007ED2419F54A69
:204D4900EE3401F54B854A82854B83A3E0FF8F4C754D007854E2FA08E2CA25E0CA33FFEADD
:204D69002409FAEF3401FF8A828F83A3E0FF8F4E754F00854A82854B83E0FF7A00ED240988
:204D8900F582EE3401F583E0FE7D00C007C04CC04DC04EC04FC007C002C006C005C003C009
:204DA9000474BEC0E0747DC0E07480C0E01236ADE58124F3F581D007D0070F024D0B78A0D8
:204DC900E2FE7F00C007C006124297AC82AD83D006D0077819E2F54E08E2F54F7817E2F59E
:204DE9004C08E2F54D7815E2F54A08E2F54B7813E2F55008E2F551780FE2F55208E2F55396
:204E09007811E2FA08E2FBC006C007C004C005C04EC04FC04CC04DC04AC04BC050C051C0FD
:204E290052C053C002C00378ABE2C0E008E2C0E07854E2C0E008E2C0E074E6C0E0747DC0CD
:204E4900E07480C0E01236ADE58124E9F58178ABE4F208F22278AAE254016003024D0922AC
:204E6900AF827E00789B90061DE2F008E2A3F08F828E83126F93AE82AF837899E22EFE08A6
:204E8900E23F8E82F58322AE82AF83789DC3E29E08E29F5008789DE4F208F2800A789DE23D
:204EA900C39EF208E29FF2788DC3E2F5F0EE95F008E2F5F0EF95F050030251927887C308D4
:204EC900E29480400B7854E2F5F008E245F0706F7887E2FC08E2FD788774012CF2E43D0878
:204EE900F278B690062DE2F008E2A3F08C828D83C007C00612711CAC82AD83D006D00778AA
:204F090054E2B5040708E2B50502800280317886E4F278B690062DE2F008E2A3F07887E2C4
:204F2900F58208E2F583C007C00612711CE5828583F0D006D0077887F208E5F0F2804F7850
:204F490087C308E29480504178B690062DE2F008E2A3F0900001C007C00612711CAC82AD97
:204F690083D006D0077887E2C39CFC08E29DFD78B6E224FFFA08E234FFFBECB5020BEDB5A3
:204F8900030778867402F2800578867401F2788DD3E29EF4B3FEB308E29FF4FF7886E2B4EE
:204FA90002107891E2FC08E2FD788DECF208EDF28019788FE2FC08E2FD788DECF208EDF20F
:204FC900C007C006120FCBD006D007C007C006123A65D006D007780BC3E2F5F0740195F0B0
:204FE900500C78A4E4F208F278A8E4F208F27886E26003025189C006C007789FE2FC7D0052
:2050090078A0E2F554755500ECC39554FEED9555FFBE640ABF0007D007D006025189D007BC
:20502900D006C006C007C007C006C005C004C046C047C048C04990333375F073743F126CD1
:205049000585825685835785F058F559E58124FCF581D004D005D006D00778A1E2F582089F
:20506900E2F583C005C0041273D8AA82AB83AEF0FFD004D005C007C006C005C004C002C0AF
:2050890003C006C00790000075F0A07440126C0585825A85835B85F05CF55DE58124FCF549
:2050A90081D004D005D006D0077894798FE3C5F0E225F0FE09E3C5F008E235F0CE25E0CE1E
:2050C90033FF8E828F83C005C0041273D8AA82AB83AEF0FFC002C003C006C007855A82859E
:2050E9005B83855CF0E55D1274FCAA82AB83AEF0FFE58124FCF581D004D005C007C006C04B
:2051090005C004C002C003C006C0078556828557838558F0E55912729F85824685834785A0
:20512900F048F549E58124FCF581D004D005D006D00778A1E4F208F2ECC39554FCED95554A
:20514900FD8C828D831273CBAC82AD83AEF0FFC007C006C004C005C006C007854682854724
:20516900838548F0E549126F63E58124FCF581D006D007E58224FF9233B39231D007D006B9
:20518900789DE4F208F2024EB07886E2B40210C007C006120FA5123B66D006D007800EC07A
:2051A90007C006120F95123B66D006D007788DE2C39EF208E29FF222AF827886E2B4022441
:2051C900EF70217854E2F5F008E245F070047582012278547996E24400F308E2448009F368
:2051E900758200227886E270030253EB102B00EF60030252807887E2F5F008E245F060460E
:205209007896E254FFFE08E2547FFF7887E224FFFC08E234FFFD78B6E224FFFA08E234FF24
:20522900FB90062DEAF0EBA3F08C828D83C007C00612711CAC82AD83D006D007EEB504064D
:20524900EFB5050280297887E2F5F008E245F070227896E254FFFE08E2547FFF78B6E22449
:20526900FEFC08E234FFFDEEB50408EFB50504758201227582002278B8E270030253D97857
:2052890096E254FFFE08E2547FFF78B2E2FC08E2FDEEB50406EFB505028002D22D7896C3E7
:2052A90008E2948050797896E22401FE08E23400FF78B6E224FFFA08E234FFFB90062DEAFC
:2052C900F0EBA3F08E828F83C005C00412711CAE82AF83D004D005ECB50644EDB5074078B6
:2052E90096ECF208EDF2126CA8AE82AF837899E2FA08E2CA25E0CA33FB90062DEAF0EBA3F9
:20530900F08E828F8312711CAE82AF837899E22EFE08E23FFF789DEEF208EFF20253A678D9
:2053290096ECF274804D08F2785490061DE22401F008E23400A3F07899E2F58208E2F583C2
:20534900126F93AE82AF83C007C006126CA8AC82AD83785490061DE22402F008E23400A385
:20536900F07899E2F58208E2F583C005C004126F93AA82AB83D004D00590062DEAF0EBA39D
:20538900F08C828D8312711CAC82AD83D006D007EC2EFEED3FFF789DEEF208EFF27899E238
:2053A900FE08E2CE25E0CE33CE25E0CE33FF90062DEEF0EFA3F0789DE2F58208E2F5831250
:2053C900711CE5828583F0789DF208E5F0F2800E78547996E24400F308E2448009F37582DF
:2053E90000227886E2705A302B0C7896E4F2087480F275820022302C1078547996E2440019
:20540900F308E2448009F3800E7854E2FE08E2FF7896EEF208EFF2102D0280217899900665
:205429001DE2F008E2A3F0900006126F93E5828583F0789DF208E5F0F27582002275820107
:205449002275820122123E8DE582FF24EB400578A0E4F222124297E5828583F0249CFEE573
:20546900F034FFFFC3E49EE464808FF063F08095F0E433FD700C78A0E2600778A0E214F22C
:205489008039C3740A9EE464808FF063F08095F0500878A0E2240AF28021C374059EE46497
:2054A900808FF063F08095F0500878A0E22405F28009ED600678A0E22401F2789FE2FE7FBC
:2054C9000078A0E2FC7D00EEC39CFEEF9DFFC3EE9414EF648094805008789F79A0E224ECC0
:2054E900F3227854E2F5F008E245F06003302F0E9005C0E4F0C22FD206120FFF80079005DE
:20550900C0E02401F09005C0E0FFBF02005004D29580477898E4F2A22E9295B22E78877426
:20552900FFF20874FFF2900618E4F09006197410F0E4A3F090011975F000126F07900618A3
:20554900E4F09006197410F0E4A3F090010975F000126F0778ABE4F208F29005C0E0FF2402
:20556900FC502930300F75F005EF84AFF0BF0410120FCB800BC206120FFF120FA5123B6617
:205589009005C0E0FF24C3500343EF1078ADE4F208F2302A077803E2FF78AAF2B22A90051B
:2055A900C1E02401F09005C1E0FFBF040812544E9005C1E4F022AE82AF839000BE75F00017
:2055C900C007C0061274E4E5828583F02401FCE435F0FD90061074BEF07400A3F0E4A3F0FF
:2055E900900613ECF0EDA3F09005AF75F000126E93D006D00778B4EEF208EFF2D23222AF6A
:2056090082BF02004017EF24EF40129004B3E0FEBE520A9004B4E0FEBE540280237E00C336
:20562900EE9F501BEE24B3F582E43404F583E0F582C007C006124C60D006D0070E80E022BA
:2056490078B279B4E2F308E209F390061074B3F07404A3F0E4A3F0900613EFF0E4A3F09061
:2056690000BE75F000C007126E93D007EF24BEF582E43400F583E4F09000BE7441F0780135
:20568900EFF2BF041B9000C0E0FFBF49139000C1E0FFBF350B78AF7401F275820002250716
:2056A900022534126819AE82AF8378B9EEF208EFF278FF762A78FFB62A02801DC007C006FD
:2056C900742AC0E0747EC0E07480C0E0121097158115811581D006D0077800E2B441028064
:2056E9001DC007C0067437C0E0747EC0E07480C0E0121097158115811581D006D007C00797
:20570900C0061206C5D006D00778AAE2600FC007C006124E5ED006D00778AAE4F290032614
:20572900E0FB6021900129E0FB601A200017900326E4F0C007C006121A8BD006D0075005EB
:20574900900326E4F0C007C00612681978BCE582F208E583F2786274B3F2087404F29000AF
:20576900BB75F0601236C7D006D0074003025A8B789DE4F208F278BBE2B40400502A78BB5B
:20578900E2FC7D00C007C006C004C005744DC0E0747EC0E07480C0E01236ADE58124FBF599
:2057A90081D006D0070256BE7886E2700AD22B7896E4F2087480F278BBE224B3FCE434046F
:2057C900FDEC24FCFCED34FFFD900610ECF0EDA3F0E4A3F09006137404F0E4A3F09000B05D
:2057E90075F060C007C006126E93D006D00778BBE214141414F278B2E2F55E08E2F55F306A
:20580900E73B7898E2B4FF0050117887E2F5F008E245F070067898E22401F27887E4F20816
:20582900F278B2E2FC08E2FD53057F8C82C007C006120FC1D006D007D22F0256BE30303FC7
:2058490078B1E220E6397898E2B4FF00501E7401255EFCE4355FFD7887E2B5040708E2B539
:205869000502800280067898E22401F278B2E2FC08E2FD788774012CF2E43D08F2D22F78F2
:20588900B2E2FC08E2FDC3EC9408ED9400507CC006C007EDCC25E0CC33FDEC2409FCED3473
:2058A90001FDC006C005C0041237BEAF82D004D005D0067E0078B2E2FA08E2CA25E0CA33A1
:2058C900FBEA2409F582EB3401F583E090061DF0E4A3F0900007C007C006C005C004126F76
:2058E90093AA82AB83D004D005D006D007EA2FFAEB3EC423CAC423541F6ACA541FCA6ACA70
:20590900FB8C828D83EAF0D007D00678ABE22401F208E23400F278B0E2FC08E2541FFD4C06
:2059290060030259D478BBE270030259D478BBE2B4040280030259C678B2E2FC08E2FDC3F0
:20594900EC9408ED94005075C006C00778BBE21414F278BBE224B3FAE43404FB7F008A822C
:205969008B838FF01275BFFAA31275BFFB7854E2B5020708E2B503028006D007D006803D6D
:20598900D007D006EDCC25E0CC33FDEC2419FCED3401FD7B0090061074B3F07404A3F0E42C
:2059A900A3F078BB900613E2F0E4A3F08C828D838BF0C007C006126E93D006D00778ABE23B
:2059C90024FFF208E234FFF20256BE78B0E2FC08E2541FFD4C70030256BE78B0E2FC08E25F
:2059E900541FFD788DECF208EDF278BB79B8E2700474018001E4F37582011251C178BCE2AB
:205A0900FE08E2FF78B1E2C4035401FDBD012278BBC3E2F5F0740195F040030256BE78BB4F
:205A2900E2F582C007C006125608D006D0070256BE78BBE270030256BE78B1E223540124FF
:205A4900FF920F783E74B3F2087404F278BBE2F582C007C006122487D006D007500302562E
:205A6900BE3000030256BED29678BB7982E2F39004B3C007C00612478AD006D007C29602ED
:205A890056BEC007C00612681978BCE582F208E583F2D006D00778BCE2C39EFC08E29FFD34
:205AA9008C828D83C005C004124E90D004D00578BCE2FE08E2FF788F7994E3F5F0C3E2958A
:205AC900F0FA09E3F5F008E295F0FB788DC3E2F5F0EA95F008E2F5F0EB95F050030256BEF2
:205AE9007886E2B4022A78917994E3F5F0C3E295F0FA09E3F5F008E295F0FB788DC3E2F501
:205B0900F0EA95F008E2F5F0EB95F050030256BEC006C00778BC79B9E3F5F0C3E295F0FA96
:205B290009E3F5F008E295F0FB7E007F00C3E49A74809BE49EE464808FF063F08095F0D063
:205B490007D006501DC007C006C005C0041254EBD004D005D006D00778BC79B9E2F308E210
:205B690009F378A3E27003025BFDC007C006C005C0041237C4AB82D004D005D006D0077838
:205B8900A3C3E2F5F0EB95F0500B78A4E22CF208E23DF2803E78A4E4F208F278A8E2F5F03E
:205BA90008E245F0702DC007C006126CA8AC82AD8378A690062DE2F008E2A3F08C828D83C1
:205BC90012711CE5828583F0D006D00778A8F208E5F0F278A679A8E3C5F0E225F0FC09E37A
:205BE900C5F008E235F0FD78A4C3E29C08E29D50030256BE78B8E4F2758200C007C00612F2
:205C090051C1E582D006D00770030256BE789DE2F5F008E245F060030256BEC007C00612B9
:205C290037A7D006D007400DC007C00612378ED006D00750237899E2FC08E2FD789DECF236
:205C490008EDF27886E260030256BED22B7896E4F2087480F20256BE7854E2F5F008E24554
:205C6900F0600B7898E2B4140050030256BEC006C0077854E2FC08E2CC25E0CC33FDEC249F
:205C890009FCED3401FD0CBC00010DC007C006C005C0041237C4AB82D004D005D006D0075B
:205CA9007A007854E2FE08E2CE25E0CE33FFEE2409FEEF3401FF8E828F83A3E090061DF074
:205CC900E4A3F0900003C005C004C003C002126F93AE82AF83D002D003D004D005EE2BFEC8
:205CE900EF3AC313CE13CEC313CE13CE8C828D83EEF0D007D0063031030256BE788D79992E
:205D0900C3E3F5F0E295F009E3F5F008E295F050030256BE788DE2FC08E2FD7899E2FA0820
:205D2900E2CA25E0CA33FBECC39AFCED9BFD30E7047D0080367899E2FB08E2CB25E0CB33F3
:205D4900FC788DE2C39BFB08E29CFC789B9005C2E2F008E2A3F08B828C83C007C0061268A0
:205D690076AB82AC83D006D0078B05BD050050030256BEED24FBFD7893C3E29D500478932B
:205D8900E2FDC007C006C005124BCDE5828583F0D005D006D00745F06044302D417886E267
:205DA900B4013B788FE2FB08E2C313CB13CBC313CB13CBFC788DC3E29B08E29C50030256AC
:205DC900BE9004B374FFF078BB7401F278B1E24420F2788B74FFF20874FFF2025ED4788650
:205DE900E2B40203025ED0203203025E73C006C0079005AF75F000C007C006C0051274E4B5
:205E0900AB82AC83D005D006D0078D027F00C3EA9BEF9CD007D00640519005AF75F000C013
:205E290007C006C0051274E4AB8278BBEBF290061074AFF07405A3F0E4A3F0900613EBF060
:205E4900E4A3F09004B375F000126E93D005D006D00778B1E24420F278B4E2FB08E2FC78B9
:205E69008BEBF208ECF2C2328061783C74B3F2087404F28D82C007C006C005121F8FE5822F
:205E890078BBF2122430D005D006D0079234E433FC78B113E292E5F278B1E230E52D78B413
:205EA900E2FB08E2FC788BEBF208ECF278AFE2FC78AF04F28C82C007C006C005122507D0C0
:205EC90005D006D007800478BBE4F278BB7993C3E2F5F0E395F05021C007C006C0057462B0
:205EE900C0E0747EC0E07480C0E0121097158115811581D005D006D0077886E2B40103D36B
:205F09008001C39234E43378B113E292E6F2C007C006C00512242DD005D006D0079234E4EE
:205F290033FC78B113E292E7F27886E2600302609678BBE26003026096BD12005003026071
:205F49009678B6E224FFFC08E234FFFD78ADC3E29C08E29D40030260967854C3E29408081C
:205F6900E2940040030260967899E2FC08E2CC25E0CC33FD788FE2C39CFC08E29DFD788DF4
:205F8900C3E29C08E29D400302609678AD7954E2F5F0E3B5F00B08E2F5F009E3B5F00280C7
:205FA90002800B78ADE22401F208E23400F278BB7402F278ADE2FC08E2CC25E0CC33FDECDC
:205FC9002409FCED3401FD0CBC00010D7854E2FA08E2CA25E0CA33FBEA2409FAEB3401FB15
:205FE9008A828B83A3E08C828D83F078ADE2FC08E2CC25E0CC33FDEC2409FCED3401FD906F
:206009000610ECF0EDA3F0E4A3F09006137402F0E4A3F09004B375F000C007C006126E93BC
:2060290090061074ADF0E4A3F07460A3F09006137402F0E4A3F09004B575F000126E93D0AB
:2060490006D00778BB7404F278ADE22401F208E23400F278AD7954E2F5F0E3B5F00B08E259
:20606900F5F009E3B5F0028002800B78ADE22401F208E23400F278B0E4F208E254E0F278DE
:20608900B1E2547FF278B1E254DFF280537886E2601E78BBE270197886E2B4020280030283
:2060A90056BE7854E2F5F008E245F060030256BE78BBE22404F582C007C006124E69AC8260
:2060C900AD83D006D007788DE2C39CFC08E29DFD78B0ECF208ED541FF5F0E254E045F0F284
:2060E9007886E2B402267854E2F5F008E245F0701BC007C006120FBBAD82D006D0077C00DD
:2061090043048078B2EDF208ECF2800A78B27954E3F20809E3F278BBE224B3FCE43404FD83
:206129007B0090061074B0F0E4A3F07460A3F09006137404F0E4A3F08C828D838BF0C0075B
:20614900C006126E93D006D00778B1E220E52C78BBE2601E78B0E2FC08E2541FFD4C6012C3
:20616900D2967889E2FC08E2FD788BECF208EDF28009788B74FFF20874FFF27886E2700F63
:2061890078BBE27006D22DD22C8010C22C800C7886E2B401067897E2547FF2302D21788697
:2061A900E2B4011BC22D7899799DE2F308E2F5F0E325E0C5F033C5F0F309E5F0F3800E781B
:2061C90099E2FC08E2FD789DECF208EDF2789FE2FC7D0078A0E2FA7B00ECC39AFCED9BFDD3
:2061E900BC6405BD0002801F78BBE22404F582C007C006124E69AC82AD83D006D00778A1E5
:20620900E22CF208E23DF278BBE22404FD786A74B3F2087404F2788B9004A6E2F008E2A319
:20622900F0788D796CE2F308E209F38D82C007C006123A09D006D007401078BBE2600BC092
:2062490007C006122433D006D00778A3E2600C78A4E4F208F278A8E4F208F2C007C006126E
:206269000F95123B66123A65D006D00778BBE270030256BE78B0E2FC08E2541FFD4C7003A3
:206289000256BEC2960256BEA22F22AE82AF8378B674012EF2E43F08F222AE82AF837889B7
:2062A900EEF208EFF222E58224FF9230221237CAAF82900629EFF0E4A3F0E4A3F0E4A3F035
:2062C9009003E8E4F5F01270B0AC82AD83AEF0FF900604ECF0EDA3F0EEA3F0EFA3F09012A9
:2062E9000075F07AE4126D52AC82AD83AEF0FF74082CF560E43DF561E43EF562E43FF5639E
:20630900AA60E561C4CAC4540F6ACA540FCA6ACAFBE562C454F04BFBAE62E563C4CEC45448
:206329000F6ECE540FCE6ECE789BEAF208EBF2900629EAF0EBA3F0E4A3F0E4A3F0902710FC
:20634900E4F5F0C003C0021270B085826485836585F066F567900629E560F0E561A3F0E5F3
:2063690062A3F0E563A3F0900271E4F5F01270B0AC82AD83AEF0FFD002D003C3E5649CE519
:20638900659DE5669EE5679F500A789B74012AF2E43B08F2789B90061DE2F008E2A3F09062
:2063A900000D126F93E5828583F07899240DF2E435F008F230073478937474F2789CE2F5E2
:2063C900F018E225E0C5F033C5F0F208E5F0F2789BE2FE08E2CE25E0CE33CE25E0CE33FFE3
:2063E9007899E22EF208E23FF28005789374F8F27899E2F56008E2C56025E0C56033F5616E
:206409007894E560F208E561F2789B900629E2F008E2A3F0E4A3F0E4A3F07893E2FA7B007F
:206429007C007D008A828B838CF0ED1270B085826485836585F066F5677899E2F56808E25C
:20644900F569E4F56AF56BE5682564FCE5693565FDE56A3566FEE56B3567FFEC2CF564ED4A
:2064690033F565EE33F566EF33F567AA60AB61E4FEFFEA2564FAEB3565FBEE3566FEEF35FD
:2064890067FFE5682AFCE5693BFDE56A3EFEE56B3FFF78A3E2603578A67438F2087401F2BE
:2064A900784574A8F2087403F208E4F208F27849ECF208EDF208EEF208EFF28C828D838EBC
:2064C900F0EF122D71AC82AD83AEF0FFC374FF9C741F9DE49EE49F50087CFF7D1F7E007FB6
:2064E90000C3EC94A8ED9461EE9400EF940040087CA87D617E007F00788FECF208EDF27836
:206509009BE2F56808E2F569E4F56AF56BE5682568F568E56933F569E56A33F56AE56B3333
:20652900F56BE5682568F568E56933F569E56A33F56AE56B33F56B7899E2F56408E2F56588
:20654900E4F566F567E5642568F568E5653569F569E566356AF56AE567356BF56BE5682517
:2065690068F568E56933F569E56A33F56AE56B33F56BE5682568F568E56933F569E56A3312
