:0A04D20078007441F278057464F2BA
:2004E700AF828F06BE08028021BE0D028005BE7F36801775820A1242FB7801E224BAF5826A
:20050700E43400F583E4F0D201227801E2606A7582081242FB7582201242FB75820812424F
:20052700FB7801E214F2227801E2B4100050448F82C007C006126AB3E582D006D007603909
:200547008F82C007C006126A4DE582D006D00760055306DF80028F068E077801E2FE7801FE
:2005670004F2EE24BAF582E43400F583EFF08F820242FBC2007801E4F222AF82BF2B0280AC
:20058700047804E4F27804C3E2F5F0740495F0402C7804E275F003A49005A3730205C802A9
:2005A70005B20205B20205B90205C87804E22401F22278047404F278057464F2227804E4EF
:2005C700F278057464F2227805E2603B7805E214F27805E270317804E260087804E2B4047E
:2005E70026800678047401F222D2007804E4F29000BA7441F09000BB7454F09000BCE4F00D
:2006070078017402F2D20122E5812404F5817C007D007E007F007802E224BAF582E434003A
:20062700F583E0FBF582C007C006C005C004C0031265CAE582D003D004D005D006D00760DF
:200647006D900602ECF0EDA3F0EEA3F0EFA3F090000AE4F5F0C00312674BAF82AE83ADF046
:20066700FCD0038B027B00EA24D0FAEB34FFFBE58124FDF8A60208A603EB3395E008F6083A
:20068700F6E58124FDF8E62FF608E63EF608E63DF608E63CF6E58124FDF8860408860508CC
:2006A70086060886077802E22401F202061D8C828D838EF0EFC8E58124FCF581C822200120
:2006C70001227801E2B40200E433FF600302074E9000BAE0FEBE526F9000BBE0FEBE5467C6
:2006E70078027403F278017902C3E2F5F0E395F0501B7802E224BAF582E43400F583E0FEA0
:20070700BE2C0280087802E22401F280D87802E224BAF582E43400F583E0FEBE2C1C7802F4
:20072700E2FE780204F2EE24BAF582E43400F583E4F012060F124C5A800690FFFF124C5A10
:200747007801E4F2C20122EF70699000BAE0FFBF41619000BBE0FFBF54599000BCE0FF60EB
:2007670023BF26028023BF2B028023BF49028023BF4F028028BF5002801EBF53028027BFA8
:200787005A2E80271207C1802A120A0F8025120AED80201207FF801B120AEA8016780574E6
:2007A70064F2C200800D12097E800843EF1080FE1207E07801E4F2C201227850E2C0E0082D
:2007C700E2C0E0749EC0E0746DC0E07480C0E0122CF4E58124FBF581227850E2C0E008E246
:2007E700C0E074A7C0E0746DC0E07480C0E0122CF4E58124FBF581229000BDE0FF6037BFB1
:2008070030028032BF31028058BF3203020893BF33030208B9BF34030208E2BF35030209F6
:200827000BBF360302091DBF3703020920BF380302092302097B7401C0E07470C0E0748027
:20084700C0E07850E2C0E008E2C0E074B3C0E0746DC0E07480C0E0122CF4E58124F8F58117
:20086700227416C0E07470C0E07480C0E07850E2C0E008E2C0E074B3C0E0746DC0E07480FD
:20088700C0E0122CF4E58124F8F58122744EC0E0E4C0E07850E2C0E008E2C0E074BCC0E0DB
:2008A700746DC0E07480C0E0122CF4E58124F9F581227809E2FE7F00C006C0077850E2C0F8
:2008C700E008E2C0E074BCC0E0746DC0E07480C0E0122CF4E58124F9F58122780AE2FE7F94
:2008E70000C006C0077850E2C0E008E2C0E074BCC0E0746DC0E07480C0E0122CF4E58124EF
:20090700F9F581227F008F82C007122909D0070FBF130040F122025D3A0243A47850E2F578
:20092700F008E245F070207850E2C0E008E2C0E074C5C0E0746DC0E07480C0E0122CF4E538
:200947008124FBF581802C12592C9202E433FE7F00C006C0077850E2C0E008E2C0E074D664
:20096700C0E0746DC0E07480C0E0122CF4E58124F9F581220207E078027403F212060FACCF
:2009870082AD83AEF0FFBC130040030207E07802E224BAF582E43400F583E0FFBF3D028068
:2009A70036BF3F618C821225C8AB82AD83AEF0FFC003C005C006C0077850E2C0E008E2C08B
:2009C700E074E5C0E0746DC0E07480C0E0122CF4E58124F7F58122EC602B7802E22401F2ED
:2009E700C00412060FAB82AD83AEF0FFD004783DEBF208EDF208EEF208EFF28C821223D6D4
:200A070050030207C10207E09000BDE0FFBF46028012BF54028053BF55028014BF570280DA
:200A270009020AE712286F0207C112282C0207C19005F874EFF0746DA3F07480A3F09000A5
:200A4700BE75F00012664EE5828583F045F0701775B7A575B7F1758F0390F7FE74FFF07539
:200A67008F0043EF1080FE0207E09005F874F5F0746DA3F07480A3F09000BE75F00012662B
:200A87004EE5828583F045F070057803E4F2229005F874F6F0746DA3F07480A3F09000BE55
:200AA70075F00012664EE5828583F045F070077803E26401F2229005F874FCF0746DA3F0C2
:200AC7007480A3F09000BE75F00012664EE5828583F045F070077803E26402F2220207E044
:110AE7000207E00207E078027404F212060F0207E038
:206D9E005B25755D204F4B0A005B25755D204552524F520A005B25755D2025730A005B2525
:206DBE00755D2025750A005B25755D2053796E633A20426173650A005B25755D2053796E85
:206DDE00633A2025750A005B25755D20256C750A00504441544500003D52535349003D5435
:036DFE00444D0001
:200AF800AF827E007D00AB08AC098F021FEA603B8B828C83E0FAA3AB82AC83ED2DF9ED30F0
:200B1800E714890009E8906F01936EFDE9906F0193F86AFE80D4890009E8906E0193F86EA8
:1B0B3800FDE9906E0193F96AFE80BF8D07E4FDFCEE4205EC42078D828F83226C
:206E01000000102120423063408450A560C670E781089129A14AB16BC18CD1ADE1CEF1EF71
:206E2100123102103273225252B5429472F762D693398318B37BA35AD3BDC39CF3FFE3DE31
:206E4100246234430420140164E674C744A45485A56AB54B85289509E5EEF5CFC5ACD58DF1
:206E6100365326721611063076D766F6569546B4B75BA77A97198738F7DFE7FED79DC7BCB1
:206E810048C458E5688678A70840186128023823C9CCD9EDE98EF9AF89489969A90AB92B71
:206EA1005AF54AD47AB76A961A710A503A332A12DBFDCBDCFBBFEB9E9B798B58BB3BAB1A31
:206EC1006CA67C874CE45CC52C223C030C601C41EDAEFD8FCDECDDCDAD2ABD0B8D689D49F1
:206EE1007E976EB65ED54EF43E132E321E510E70FF9FEFBEDFDDCFFCBF1BAF3A9F598F78B1
:206F0100918881A9B1CAA1EBD10CC12DF14EE16F108000A130C220E3500440257046606770
:206F210083B99398A3FBB3DAC33DD31CE37FF35E02B1129022F332D2423552146277725630
:206F4100B5EAA5CB95A88589F56EE54FD52CC50D34E224C314A004817466644754244405F0
:206F6100A7DBB7FA879997B8E75FF77EC71DD73C26D336F2069116B06657767646155634B0
:206F8100D94CC96DF90EE92F99C889E9B98AA9AB584448657806682718C008E1388228A370
:206FA100CB7DDB5CEB3FFB1E8BF99BD8ABBBBB9A4A755A546A377A160AF11AD02AB33A9230
:206FC100FD2EED0FDD6CCD4DBDAAAD8B9DE88DC97C266C075C644C453CA22C831CE00CC1F0
:206FE100EF1FFF3ECF5DDF7CAF9BBFBA8FD99FF86E177E364E555E742E933EB20ED11EF0B0
:200B530075B7A575B7F122D310AF01C3C0D0120B53758F0790000074FFF0758F00D0D092E8
:200B7300AF22D310AF01C3C0D0AE82AF83758F048E828F83E493FF758F008F82D0D092AFB3
:200B930022D310AF01C3C0D0AE82AF83C007C006120B53D006D007758F058E828F83780685
:0A0BB300E2F0758F00D0D092AF225F
:02F7FE003DC20A
:200BBD00AF83E5829000FEF0EFA3F09000FEE0FEA3E0FF9000FDE0FD7C008D027B001ABACD
:200BDD00FF011B8C007900C3E89AE964808BF063F08095F05046C007C006C005C0041263D2
:200BFD0043AA82D004D005D006D0078DF0EA84E5F02EFAE43FFB8A828B83E0F50AC005EC63
:200C1D002EF8E43FFD88828D83E0F98A828B83F088828D83E50AF00CD005809E22AF83E543
:200C3D0082900100F0EFA3F07F007807C3E2F5F0EF95F0500FEF24CBF582E43400F583EFE3
:200C5D00F00F80E6900100E0FEA3E0FF8E828F8312639D7807E2FF7E008F047D001CBCFF28
:200C7D00011D8E027B00C3EA9CEB64808DF063F08095F05042C007C006126343AC82D00666
:200C9D00D0078FF0EC84E5F024CBFCE43400FD8C828D83E0F50BC007EE24CBFAE43400FFE9
:200CBD008A828F83E0FB8C828D83F08A828F83E50BF00ED00780A2227808E224CBF582E43D
:200CDD003400F583E0F582227807E2F5F0E484E5F024CBF582E43400F583E0F58222780860
:200CFD00E2F58222E582900104F07808F2227808E2FE7F000EBE00010F78079005FEE2F03D
:200D1D00E4A3F08E828F831266E2AE82AF837808EEF220030C78077908E2F5F0E484E5F0CE
:070D3D00F322A2049203223D
:06040000020479023A2F0C
:01040B0032BE
:0104130032B6
:01041B0032AE
:03042300023B7524
:03042B00025E4C22
:010433003296
:01043B00328E
:010443003286
:01044B00327E
:010453003276
:01045B00326E
:010463003266
:01046B00325E
:03047300025DC265
:0304E40002047699
:03047600020D4430
:200D4400AFC47809EFF2AFC3780AEFF2120E0E12275B400312286F7582011225C8AC828C86
:200D640082123D30120E887582061225C8AC82900125ECF07582071225C8AC82AD83AEF011
:200D8400FFEC4D4E4F24FF92067582051225C8AC82AD83AEF0FFEC4D4E4F24FF9205758242
:200DA4000E1225C8AC82AD83AEF0FFEC4D4E4F24FF92071230A84015741AC0E07470C0E0A4
:200DC4007480C0E0120DD4158115811581024D4790703475F080126ACCE58124FCFFC00783
:200DE400E58124FBF886820886830886F0122A6C158190703F75F080126ACCD2AFD2AC90A2
:200E040003E8125E4343EF1080FE75A700AFD974BF5FF5D975B28F75A90075B64075FF8039
:200E24007E5E7F011EBEFF011FEE4F70F775EF0675A41075A70F75A41075A70075E1014316
:200E4400E24043A5F575A70F43A5F5E5A675A6FF75A70075844075B00075850043B001D2A8
:200E64009475A700C289125EF275B800D2AFC295D296D2EF75BCF975BA0075BB1B75D107F2
:200E840075E340221230E740157440C0E07470C0E07480C0E0120DD4158115811581780974
:200EA400E2B44302801C7809E2B4470280437809E2B48602806A7809E2B49103020F5102FC
:200EC4000F7E78177490F20874D1F20874CFF2087419F2781B7470F208745EF20874EAF26C
:200EE400087419F27823740AF27807740AF2020FB578177480F20874A1F2087403F2087436
:200F04001CF2781B74C0F20874E3F2087412F208741CF27823740AF27807740AF2020FB5EB
:200F24007817E4F20874A1F20874BCF2087433F2781B7440F20874E3F20874CBF2087433FC
:200F4400F27823740AF27807740AF28064781774C0F20874CAF2087489F2087436F2781BA2
:200F6400E4F2087428F2087450F2087437F278237414F278077432F280377817E4F208F25C
:200F840008F208F2781BE4F208F208F208F27823E4F27809E2FA7B00C002C0037458C0E0C8
:200FA4007470C0E07480C0E0120DD4E58124FBF58175820A1225C8AA82AB83AEF0FFEA4BFB
:200FC4004E4F601175820A1225C8AC82AD83AEF0FF7807ECF27582081225C8AC82AD83AE9D
:200FE400F0FFEC4D4E4F60377582081225C8AC82AD83AEF0FF900602ECF0EDA3F0EEA3F023
:20100400EFA3F09003E8E4F5F012674B7817C0E0E582F208E583F208E5F0F2D0E008F2756A
:2010240082091225C8AC82AD83AEF0FFEC4D4E4F60377582091225C8AC82AD83AEF0FF9030
:201044000602ECF0EDA3F0EEA3F0EFA3F09003E8E4F5F012674B781BC0E0E582F208E58321
:20106400F208E5F0F2D0E008F27582041225C8AC82AD83AEF0FFEC4D4E4F601175820412B8
:2010840025C8AC82AD83AEF0FF7823ECF27823E2FB7D007E007F007841E4F208F208F2086E
:2010A400F278457414F208E4F208F208F28B828D838EF0EF1229B0AC827823ECF27807E2B4
:2010C400FC7D007E007F0078417401F208E4F208F208F278457432F208E4F208F208F28CF1
:2010E400828D838EF0EF1229B0AC82AD83AEF0FF7807ECF27809E2B44302801E7809E2B499
:2011040047030211AD7809E2B4860302123E7809E2B491030212CF02135D78417480F20828
:201124007423F20874ADF2087418F27845E4F208740BF208746BF208741BF27817E2F5822B
:2011440008E2F58308E2F5F008E21229B07817C0E0E582F208E583F208E5F0F2D0E008F222
:2011640078417480F2087423F20874ADF2087418F27845E4F208740BF208746BF208741B1E
:20118400F2781BE2F58208E2F58308E2F5F008E21229B0781BC0E0E582F208E583F208E58C
:2011A400F0F2D0E008F202137C78417480F2087474F20874D2F208741AF278457480F2081A
:2011C40074CEF2087434F208741DF27817E2F58208E2F58308E2F5F008E21229B07817C06D
:2011E400E0E582F208E583F208E5F0F2D0E008F278417480F2087474F20874D2F208741A80
:20120400F278457480F20874CEF2087434F208741DF2781BE2F58208E2F58308E2F5F008A7
:20122400E21229B0781BC0E0E582F208E583F208E5F0F2D0E008F202137C78417440F2087E
:2012440074B6F208749AF2087432F278457440F2087410F20874FDF2087434F27817E2F572
:201264008208E2F58308E2F5F008E21229B07817C0E0E582F208E583F208E5F0F2D0E00871
:20128400F278417440F20874B6F208749AF2087432F278457440F2087410F20874FDF208D9
:2012A4007434F2781BE2F58208E2F58308E2F5F008E21229B0781BC0E0E582F208E583F2B0
:2012C40008E5F0F2D0E008F202137C7841E4F20874A1F20874BCF2087433F2784574C0F2B4
:2012E4000874F7F20874BAF2087437F27817E2F58208E2F58308E2F5F008E21229B078173B
:20130400C0E0E582F208E583F208E5F0F2D0E008F27841E4F20874A1F20874BCF20874337E
:20132400F2784574C0F20874F7F20874BAF2087437F2781BE2F58208E2F58308E2F5F0087D
:20134400E21229B0781BC0E0E582F208E583F208E5F0F2D0E008F2801F7809E2FE7F00C016
:2013640006C0077458C0E07470C0E07480C0E0120DD4E58124FBF581781B7917E2F5F0E35D
:20138400B5F01D08E2F5F009E3B5F01408E2F5F009E3B5F00B08E2F5F009E3B5F0028002C4
:2013A400801A7817791BE22440F308E2344209F308E2340F09F308E2340009F375820B1280
:2013C40025C8AC82789BECF27F007E007D007841E4F208F208F208F278457464F208E4F2A1
:2013E40008F208F28C828F838EF0ED1229B0AC82789BECF2783DECF208E4F208F208F27586
:20140400820B1223D675820C1225C8AC82AD83AEF0FF789FECF2EC60337F007E007D0078CD
:20142400417419F208E4F208F208F2784574DCF208E4F208F208F28C828F838EF0ED12297F
:20144400B0AC82AD83AEF0FF789FECF2789F793DE2F309E4F309F309F375820C1223D690D0
:2014640005DD74E8F07403A3F0E4A3F0E4A3F07817E2F58208E2F58308E2F5F008E21263CA
:20148400EDAC82AD83AEF0FF783DECF208EDF208EEF208EFF27582081223D69005DD74E83D
:2014A400F07403A3F0E4A3F0E4A3F0781BE2F58208E2F58308E2F5F008E21263EDAC82ADFC
:2014C40083AEF0FF783DECF208EDF208EEF208EFF27582091223D67807793DE2F309E4F3A8
:2014E40009F309F375820A1223D6781B7917E3F5F0C3E295F0FC09E3F5F008E295F0FD098D
:20150400E3F5F008E295F0FE09E3F5F008E295F0FF7807E2FA7B0074022AFAE43BFB900534
:20152400DDEAF0EBA3F0EB3395E0A3F0A3F08C828D838EF0EF1263ED781FC0E0E582F20834
:20154400E583F208E5F0F2D0E008F27822E2C313FF18E213FE18E213FB18E213FA7817E2D8
:201564002AF208E23BF208E23EF208E23FF27582031225C812639D7807C3E2F5F0740595DD
:20158400F05054126343AE82AF839005F6EEF0EFA3F090027112662EAE82E583FF3395E0C6
:2015A400FDFC781F9005D2E2F008E2A3F008E2A3F008E2A3F08E828F838DF0EC12615FACDE
:2015C40082AD83AEF0FF7817E22CF208E23DF208E23EF208E23FF27817E2F58208E2F58391
:2015E40008E2F5F008E212311E781FE2F58208E2F58308E2F5F008E212315A7582031225F4
:20160400C8AC82AD83AEF0FF78079005D2E2F0E4A3F0E4A3F0E4A3F08C828D838EF0EF1249
:20162400615FAC828C821231A97582021225C8AC828C821231D340337582021225C8AC82DB
:201644008C821231D340247582021225C8AC828C821231D34015746FC0E07470C0E0748064
:20166400C0E0120DD4158115811581122E11AF82783DEFF208E4F208F208F27582021223F9
:20168400D67582031225C81234D075820F1225C81235277582121225C812592F7582101233
:2016A40025C812593E7582111225C8AC828C8212594A7823E2F58212348A1234CAAF82781B
:1C16C4003DEFF208E4F208F208F27582041223D67582031225C8120C3A02595117
:207001004D502053694B20322E36206F6E20484D2D54525000322E36006661696C65642005
:20702100746F20656E61626C65207265636569766572000A2A2A50414E49432A2A000072E1
:207041006164696F5F696E697469616C697365206661696C65640062616420626F61726434
:20706100206672657175656E637920256400726164696F5F636F6E6669677572652066615D
:05708100696C6564006C
:2016E000AF8290048DE0F5737CFF7DFF900322E0FBBB01047B0680027B0AEB2573FA782666
:20170000F2EA248CF582E43404F583EFF07826E22401F278257401F278257926C3E3F5F0F1
:20172000E295F05062C0037825E2248CF582E43404F583E0FA8C75757600E575F5776AF5A8
:2017400074C454F062748D78757900AA747B008A077E00E5786206E5796207EBC40354F812
:20176000CAC403CA6ACA54F8CA6AFBEA6206EB6207E574C4540F7A006EFCEA6FFD7825E280
:201780002401F2D0038091EB2573FB248CF582E43404F5838C06EEF0EB04248CF582E43477
:2017A00004F5838D04ECF022900322E0FFBF01089001297411F08011BF02089001297415F6
:2017C000F080069001297422F0123F44AE82AF83900129E0FDFB7C00C3EE9BEF9C5002C362
:2017E00022900322E0FFBF013A9001267492F07404A3F0E4A3F090048C74FEF090048D74F3
:2018000009F07824E2FF782404F290048EEFF090048F7433F09004907444F0900491746D33
:20182000F080619001267496F07404A3F0E4A3F090048C74FDF090048D7409F090048EE48F
:20184000F090048FF07824E2FF782404F2900490EFF09004917433F09004927444F0900356
:2018600022E0FFBF030E900493742CF09004947401F0800B900493746DF0900494E4F09044
:201880000495E4F0900322E0FFBF03028003021927C0057E967F047C0074022EFAE43FFB2A
:2018A0008C058A828B838DF074011265E3A3E41265E374042EFAE43FFB8C058A828B838D5A
:2018C000F074021265E3A3E41265E374062EFAE43FFB8C059005F1E4F09005F27408F0E4E5
:2018E000A3F08A828B838DF0C007C006C005C0041265A2D004D005D006D007740E2EFEE4A7
:201900003FFF9005F1E4F09005F27408F0E4A3F08E828F838CF0C0051265A27582D9121651
:20192000E0D005D0058075C005900126E0FCA3E0FEA3E0FF780BE2FA08E2FB8C828E838FDB
:20194000F0EA1265E3A3EB1265E374022CF50CE43EF50D8F0E7815E2FB08E2FD850C82851E
:201960000D83850EF0EB1265E3A3ED1265E374062CFCE43EFEC007C006C0041242C0AD82CF
:20198000D004D006D0078C828E838FF0ED1265E37582B9C0051216E0D005D005787EEDF2E5
:0819A00090048C123E25D322B5
:2019A800AE82AF83E0FDBDFE1E8E828F83A3E0FDBD091474052EFEE43FFF8E828F83E07052
:2019C800069003227401F022E5827831F21242687832E582F208E583F27B007C0078347483
:2019E800FFF20874FFF27832C3E2940808E294005003021AC98B828C83C004C0031240B734
:201A0800858228D003D00474FEB528028003021AC974012BFEE43CFF8E828F83C004C003C9
:201A28001240B7858228D003D004740925285003021AC9C003C004AD287E0074082DFAE45C
:201A48003EFC7831E2F529752A007827E2FB7F00E529C39BFBE52A9FFFC3EB9AEF64808C46
:201A6800F063F08095F0D004D003405574082DFDE43EFE7832C3E29D08E29E404474062B77
:201A8800FEE43CFF8E828F83C004C0031240B7AF82D003D004BF460C7412B528077834EB85
:201AA800F208ECF274082528F528AA287F007832E2C39AF208E29FF2EA2BFBEF3CFC021967
:201AC800EE7834E2F58208E2F58322E582900323F0E4F52DF52E782B797FE2F39002261217
:201AE80040EF782BE2FD7827F27836E2FA08E2FB7C009005E97426F07402A3F0E4A3F09099
:201B080005ECEDF0E4A3F08A828B838CF012652E782BE4F27836E2F58208E2F5831219A888
:201B2800900125E0FDBD020F900323E0F5821219D0AC82AD8380047CFF7DFF8C2F8D3012D1
:201B4800426885822B85832C900323E0F53474FFB52F0974FFB5300474018001E4FCC3E574
:201B68002B9408E52C94005003021CA6C004124060858231D00474FEB5310280067827E2F7
:201B8800F58222C00412407C858231D004740925315003021CA6C00485313275330074084C
:201BA8002532FBE43533FEAA347F007827E2FC7D00EAC39CFAEF9DFFC3EA9BEF64808EF0C3
:201BC80063F08095F0D0045003021CA674082532FEE43533FFC3E52B9EE52C9F5003021C0C
:201BE800A6EC7028E52DB52F07E52EB53002801C900006C0041240B7AF82D004BF460D7432
:201C080012B5310874082531F531807074082531F5317827E22426FEE43402FF787FE531ED
:201C2800F28E828F83C0041240EF78367927E3C5F0E225F0FE08E23400FF7D007827E22469
:201C480026FAE43402FB9005E9EAF0EBA3F0E4A3F09005ECE531F0E4A3F08E828F838DF05D
:201C680012652E78367927E3C5F0E225F0FE08E23400FF8E828F831219A8D0047827E22550
:201C880031F2AE317F00E52BC39EF52BE52C9FF52CEE252DF52DEF352EF52E021B66782760
:201CA800E2F58222858235124268858236858337200B163006652008627827E2605DC3E5E1
:201CC800369420E537940050527827C3E2F5F0E53595F050087827E4F275820022D208C276
:201CE8000B7838E2FA08E2FB7C009005E97426F07402A3F0E4A3F078279005ECE2F0E4A3E3
:201D0800F08A828B838CF012652E7827E2F5367537007827E4F2AB368B8222C208200C03BA
:201D2800021DDC7827E2FB7C008B368C37853538753900C3E5389536E5399537506578388A
:201D4800E2FA08E2FE7F009005E97426F07402A3F0E4A3F09005ECE538F0E539A3F08A8265
:201D68008E838FF012652EE5352426FEE43402FF9005E9EEF0EFA3F0E4A3F0AE357F009064
:201D880005ECE536C39EF0E5379FA3F090022675F00012652EE536C395357827F2D2098535
:201DA8003582227838E2FD08E2FE7F009005E97426F07402A3F0E4A3F09005ECEBF0ECA3D9
:201DC800F08D828E838FF012652EC20CD2097827E2F58222C209AE357F00C3EE9536EF95D7
:201DE8003750048E368F377827E4F2E53645377003F58222900125E0FF7053E5364537605F
:201E080043AD36787FEDF27838E2F58208E2F583C0051240EFD005502B78389005E9E2F0FD
:201E280008E2A3F0E4A3F09005ECE536F0E537A3F090022675F000C00512652ED005782770
:201E4800EDF280047827E4F27827E2F58222782BE2B401028003021EEB7401B53606E4B5BF
:201E6800370280028079125EB4AE82AF83782CD3E29EF4B3FEB308E29FF4FF782EC3E29E6C
:201E880008E29F50567827E2FF782704F2EF2426FFE43402FEC007C006123FABAD82D00618
:201EA800D0078F828E83EDF07838E2FD08E2FE7F009005E97426F07402A3F0E4A3F0782727
:201EC8009005ECE2F0E4A3F08D828E838FF012652E782BE4F27827E2F582227582002278C8
:201EE8002BE4F2782BE27003021F7A782BE2FE7F00C3E5369EE5379F5068125EB4AE82AF52
:201F080083782CD3E29EF4B3FEB308E29FF4FF782EC3E29E08E29F5045AD36787FEDF2901B
:201F28000226C0051240EFD0057827EDF27838E2FC08E2FE7F009005E97426F07402A3F012
:201F4800E4A3F09005ECEDF0E4A3F08C828E838FF012652E782BE4F27827E2F58222758260
:201F6800002278387936E2F308E209F3853582021AD3E5364537700302211B124060AF82C7
:201F8800BFFE0280030220EC7401B53606E4B537028002802E7827E2600302211B782B7448
:201FA80001F2125EB4E5828583F0782CF208E5F0F27829E2FE08E2FF782EEEF208EFF275F0
:201FC80082002212407CAF82782BEFF2BFF70050208F057E0074082DFDE43EFE7830E2FB4F
:201FE8007C00C3EB9DEC64808EF063F08095F05033782BE4F27827E2FE782704F2EE242624
:20200800FEE43402FDC006C005123FABAC82D005D0068E828D83ECF0153674FFB536021587
:2020280037021F7A74082FFF782BF27827E260627838E2FC08E2FD7E009005E97426F074D5
:2020480002A3F0E4A3F078279005ECE2F0E4A3F08C828D838EF012652E125EB4E58285832F
:20206800F0782CF208E5F0F2782BE2FD7E0078299005F6E2F008E2A3F08D828E8312662EC2
:20208800E5828583F0782EF208E5F0F27827E2F582227E00C3E5369FE5379E5037125EB4F8
:2020A800E5828583F0782CF208E5F0F2782BE2FE7F0078299005F6E2F008E2A3F08E828F38
:2020C8008312662EE5828583F0782EF208E5F0F27582002278387936E2F308E209F385351C
:2020E80082021AD37827E2FF782704F2EF2426FFE43402FEC007C006123FABAD82D006D0A4
:20210800078F828E83EDF0153674FFB536021537021F7A7838E2FD08E2FE7F009005E97437
:2021280026F07402A3F0E4A3F078279005ECE2F0E4A3F08D828E838FF012652E7827E2F5DE
:202148008222A20822A20922D20B22E582900324F07830F222AF83E582900325F0EFA3F0AE
:20216800900325E0FEA3E0FF9005DDEEF0EFA3F0E4A3F0E4A3F090000075F001E41263ED43
:20218800AC82AD83AEF0FF0CBC00090DBD00050EBE00010F7829ECF208EDF222E58290033E
:2021A80027F0200D39783AE2FD08E2FE7F00900327E0FCFA7B009005E9EDF0EEA3F0EFA329
:2021C800F09005ECEAF0EBA3F090012A75F000C00412652ED0047828ECF2C20AC322200A78
:2021E80037900327E0FF7828E2B5072C783A90060BE2F008E2A3F0E4A3F090060EEFF0E41D
:20220800A3F090012A75F000126864E5828583F045F07004C20AD322D20AC322AF82BF1398
:2022280000502590037C74FCF0900226C007122A3BD0078F82122909122A64AF827827EF31
:20224800F2EF6004C208D20C22D20190037C74FCF0900226122A3B1206C5122A64AF8278D0
:2022680027EFF2EF6004C208D20C22AE82AF83783CC3E2F5F074FC95F05005783C74FCF231
:202288009005E9EEF0EFA3F0E4A3F0783C9005ECE2F0E4A3F090022675F00012652E783CED
:0922A800E27827F2C208D20C22F0
:2022B100AF82BF1300400122EF24ED50030223D4EF240A83F582EF241783F583E473F5F7DC
:2022D1000116182D442FD4D4D4D4D4D4D491592FAF2222232323232323232323232323237F
:2022F10023232323C322AF0F8F8212430F920E22C3E4950F74019510E49511E495124003AA
:202311000223D4C322D322C37414950FE49510E49511E4951240030223D4C322C322C3740F
:2023310001950FE49510E49511E4951240030223D4C322C37402950FE49510E49511E495BF
:202351001240030223D4C32274FFB50F0F74FFB5100AE4B51106E4B5120280028002D3225B
:20237100900364E0FCA3E0FDA3E0FEA3E0FFECB50F0EEDB5100AEEB51106EFB51202C32225
:20239100900370E0FCA3E0FDA3E0FEA3E0FFC3E50F9CE5109DE5119EE5129F402622C3E58B
:2023B1000F9402E5109400E5119400E51294005012C3E4950F74809510E49511E49512501E
:2023D10002C322D322AF82783DE2F50F08E2F51008E2F51108E2F5128F82C0071222B1D0E7
:2023F10007400122EF24ED50030225A7EF240A83F582EF241783F583E473A7A7A7A731A73A
:20241100F50BA7A7A75097A7355F879B732525252524252425252525242425252525252544
:20243100783DE2F582C00712348A1234CAAE82D007783DEEF208E4F208F208F20225A77822
:2024510041E4F208F208F208F278457464F208E4F208F208F2783DE2F58208E2F58308E2B3
:20247100F5F008E2C0071229B0AB82AC83ADF0FED007783DEBF208ECF208EDF208EEF2783D
:202491009BEBF20225A7783DE2F5F008E242F008E242F008E245F0604278417419F208E44C
:2024B100F208F208F2784574DCF208E4F208F208F2783DE2F58208E2F58308E2F5F008E22B
:2024D100C0071229B0AB82AC83ADF0FED007783DEBF208ECF208EDF208EEF2783D799FE275
:2024F100F30225A7783DE2FE900125F0783DEEF208E4F208F208F20225A7783DE2F5F00816
:20251100E242F008E242F008E245F024FF920650047E0180027E00783DEEF208E4F208F260
:2025310008F28072783DE2F5F008E242F008E242F008E245F024FF920750047E0180027E3C
:2025510000783DEEF208E4F208F208F28048783DE2FD08E2FE8D828E83C007123527D00793
:202571008034783DE2FD08E2FE8D828E83C00712592FD0078020783DE2FD08E2FE8D828E09
:2025910083C00712593ED007800C783DE2F582C00712594AD007EF75F004A42428F5827440
:2025B1000335F0F583783DE2F008E2A3F008E2A3F008E2A3F0D322AF82BF1300400790009D
:2025D10000E4F5F022EF75F004A42428F582740335F0F583E0FCA3E0FDA3E0FEA3E08C82BE
:2025F1008D838EF022858213858314900374E0FCA3E0FD900376E0FB8C018D028B007F0077
:20261100E82CF8EF3DFFC3E998EA9F5041E9C39CFEEA9DFFEE2513FEEF3514FF89828A83D5
:20263100C007C006C005C004C003C002C001120B75A882D001D002D003D004D005D006D0AC
:20265100078E828F83E8F009B900B10A80AE8513088514098B82C002C001120AF8AE82AFF8
:2026710083D001D002740129FCE43AFD8C828D83C007C006C002C001120B75AD82D001D0DE
:20269100028D047D0089828A83C005C004120B75AB82D004D005D006D0077A00EB4205EACD
:2026B1004204EEB50506EFB504028002C322D322858215858316900377E0FCA3E0FD9003DC
:2026D10079E0FB8C178D188B027F00EA2CFAEF3DFFC3E5179AE5189F5036E517C39CFEE54D
:2026F100189DFFEE2515F582EF3516F5837806E0F2851782851883C005C004C003120B9439
:20271100D003D004D0050517E4B517BB051880B78515088516098B82120AF8AE82AF838EFA
:20273100047806ECF2851782851883C007C006120B94D006D00774012517FCE43518FD78AC
:2027510006EFF28C828D83020B94D310AF01C3C0D012286F900000120B75E582FF24B34094
:2027710005BF30005004C30228257D287E039003747401F0E4A3F0900376EFF08D828E83DD
:202791001225F640030228257582001225C8AC82AD83AEF0FFBC1B0BBD0008BE0005BF004F
:2027B100028003C3806E7F00EF75F004A42428FD740335F0FE8D828E83E0F50FA3E0F510E8
:2027D100A3E0F511A3E0F5128F82C007C006C0051222B1D005D006D0074032EF75F007A49A
:2027F1002486FB747035F0FC8B828C83A3A3A3E493F9A3E493FAA3E493FBA3E493FC8D825B
:202811008E83E9F0EAA3F0EBA3F0ECA3F00FBF4C004095D333D0D092AF1322D310AF01C3E2
:20283100C0D0900328741BF0E4A3F0E4A3F0E4A3F0120B5A7806744CF2900000120B947EF2
:20285100287F039003777401F0E4A3F0900379744CF08E828F831226C1D0D092AF227F007E
:20287100EF75F004A42428FD740335F0FEEF75F007A42486FB747035F0FC8B828C83A3A35D
:20289100A3E493F9A3E493FAA3E493FBA3E493FC8D828E83E9F0EAA3F0EBA3F0ECA3F00F53
:2028B100BF130040BB22AF827E008F037C007D40EE75F007A42486F582747035F0F583E41A
:2028D10093F8A3E493F9A3E493FA9005F8E8F0E9A3F0EAA3F08B828C838DF0C007C006129F
:2028F100664EE5828583F0D006D00745F060060EBE130040B58E822285821974ED25194067
:202911006EE51975F004A42428F582740335F0F583E0F51AA3E0F51BA3E0F51CA3E0F51DAB
:20293100E51975F007A42486F582747035F0F583E493FAA3E493FEA3E493FFAC197D00C032
:202951001AC01BC01CC01DC002C006C007C004C0057850E2C0E008E2C0E0740BC0E0747108
:20297100C0E07480C0E0122CF4E58124F2F58122AF82BF13005021EF75F007A42486F58238
:20299100747035F0F583E493FDA3E493FEA3E493FF8D828E838FF02290000075F00022AC7C
:2029B10082AD83AEF0FF7841C3E2F5F0EC95F008E2F5F0ED95F008E2F5F0EE95F008E2F5A1
:2029D100F0EF95F0500D7841E2FC08E2FD08E2FE08E2FF7845C3E29C08E29D08E29E08E2DF
:1829F1009F500D7845E2FC08E2FD08E2FE08E2FF8C828D838EF0EF22D2
:207086001D71801B00000024718039000000317180400000003B718019000000417180009A
:2070A600000000497180000000004D718000000000557180000000005F7180000000006854
:2070C600718000000000717180000000007E71806400000089718000000000927180000087
:2070E60000009D718000000000A4718001000000AB7180FFFF0000BB718000000000C371EC
:2071060080020000005B25755D205325753A2025733D256C750A00464F524D4154005345E8
:207126005249414C5F5350454544004149525F5350454544004E45544944005458504F578F
:20714600455200454343004D41564C494E4B004F5050524553454E44004D494E5F465245E5
:2071660051004D41585F46524551004E554D5F4348414E4E454C5300445554595F43594326
:207186004C45004C42545F52535349004D414E4348455354455200525453435453004E4F6C
:2071A60044454944004E4F444544455354494E4154494F4E0053594E43414E59004E4F4445
:0771C60045434F554E5400F4
:0804DC00C20FC210C211C212CE
:202A0900AF822013058F820242FB784A7949C3E3F5F0E295F0501A784AE2FE784A04F2902A
:202A2900037AE0FCA3E0FDEE2CF582E43DF583EFF022AF83E58290037DF0EFA3F090037D5E
:202A4900E0FEA3E0FF90037AEEF0EFA3F0784AE4F290037CE07849F2D21322C213784AE2E6
:202A6900F58222AD82AE83AFF08D828E838FF0126C8EFC700122BC25028003022CDBC21238
:202A8900C211C210C20F0DBD00010E8D828E838FF0126C8EFBBB6802800CBB6C10D20F0D62
:202AA900BD000A0E8007D2110DBD00010E8D828E838FF0126C8EFBBB63028030BB640280DE
:202AC90018BB6F02802BBB7302800ABB7502800EBB78238010D210801D753A0A8018753A1F
:202AE9000AD2128011753A10D212800A753A008005753A08D212301071A8811818E624FD41
:202B0900FBA8811818A6038B01873B09873C09873D1919C005C006C007AA3BAB3CAF3D8A02
:202B2900828B838FF0126C8ED007D006D0057003022CECC005C006C007AA3BAB3CAF3D8ACE
:202B4900828B838FF0126C8EFA053BE4B53B02053C8A82C007C006C005122A09D005D006B2
:202B6900D007D007D006D00580A9301266300F21A8811818E624FCFBA8811818A6038B01DA
:202B8900873E09873F098740098741191919022C4230111DA8811818E614F9A8811818A693
:202BA9000187038B3E753F00754000754100022C42A8811818E624FEFBA8811818A6038B40
:202BC900018702098703198A3E8B3F7540007541008066300F20A8811818E624FCFBA881F1
:202BE9001818A6038B01873E09873F098740098741191919804330111EA8811818E614FB77
:202C0900A8811818A6038B01E7FBF53E3395E0F53FF540F5418022A8811818E624FEFBA81B
:202C2900811818A6038B018702098703198A3EEBF53F3395E0F540F541E53A7003022CC6F0
:202C490030122F9005A1747AF0E4A3F07440A3F09005A4E53AF0853E82853F838540F0E5BA
:202C690041C007C006C005125FACD005D006D007802D9005CA747AF0E4A3F07440A3F090E1
:202C890005CDE53AF0853E82853F838540F0E541C007C006C0051260C2D005D006D0077962
:202CA9007AE7FB603E8B82C007C006C005C001122A09D001D005D006D0070980E4AB3E8B78
:202CC90082C007C006C005122A09D005D006D00780118C82C007C006C005122A09D005D075
:202CE90006D0070DBD00010E022A72E58124FCFFC007E58124FBF886820886830886F01205
:052D09002A6C15812277
:202D0E00AFF0AE83E58290047BF0EEA3F0EFA3F0201402C322784BC3E2F5F074FC95F050BF
:202D2E00051230A8804590047BE0FDA3E0FEA3E0FF8D828E838FF0784BE21265E3785EE28C
:202D4E00FD08E2FE7F009005E9747FF07403A3F0E4A3F0784B9005ECE2F0E4A3F08D828EF5
:202D6E00838FF012652E1230A8D322780BE2FE08E2FFBEFF05BFFF02800C0EBE00010F7811
:202D8E000BEEF208EFF2C322AF8275A700C294C2B77586FF7860E2FD08E2FE8F041FEC60B9
:202DAE001130B1FD8D828E83E0F586A3AD82AE8380E930B1FD74805584FFBF800280F6C20C
:202DCE00B7D29475A70022201405784CE26002D322758231123598E58230E402D322C322F6
:202DEE00A2A89216C2A81015028006A21692A8D322A21692A8C322784DE2F58222758226A1
:202E0E00023598785AE2F58222758208123598AF8274014FFEC007C006758208123562156D
:202E2E0081D0075307FEC007758208123562158122758208123598AF8274024FFEC007C054
:202E4E00067582081235621581D0075307FDC007758208123562158122E582FF24035019D5
:202E6E00C00774CDC0E07471C0E07480C0E0120DD4158115811581D007C007122E17D00702
:202E8E00C007C00775823E1235621581D007EFFE24DF50027E2078627960E2F308E209F3FD
:202EAE008E82C007C006122D96D006D007EFC39EFF7862E22EF208E23400F2C007E4C0E05F
:202ECE007582051235621581E4C0E07582061235621581C215C2177409C0E07582071235D7
:202EEE00621581125EB4AC82AD83D007C007C005C004125EB4AA82AB83D004D005D007EA3B
:202F0E00C39CFAEB9DFB7864C3E2F5F0EA95F008E2F5F0EB95F04003023033758203C0074A
:202F2E00C005C004123598AB82D004D005D007301740EF603DEB30E5397E04BF040050028B
:202F4E008F0678627960E2F308E209F38E82C007C006C005C004122D96D004D005D006D016
:202F6E0007EFC39EFF7862E22EF208E23400F2022EFA301740EF603DEB20E6397E04BF0455
:202F8E000050028F0678627960E2F308E209F38E82C007C006C005C004122D96D004D0052A
:202FAE00D006D007EFC39EFF7862E22EF208E23400F2022EFAEB30E720122E17780DE2FA17
:202FCE0008E2FEBAFF05BEFF02800C0ABA00010E780DEAF208EEF2C322758202C007C0056C
:202FEE00C004123598AB82D004D005D007EB30E105D217022EFA201703022EFAEB30E103FC
:20300E00022EFAEF601D780DE2FE08E2FFBEFF05BFFF02800C0EBE00010F780DEEF208EF78
:20302E00F2C322D322780DE2FE08E2FFBEFF05BFFF02800C0EBE00010F780DEEF208EFF230
:20304E00C322E582900480F0A2A89219C2A890047EE0FEA3E0FFFDC007C006C00575823AC1
:20306E001235621581D006D007C00675823B1235621581900480E0FF78667962E2F308E2B4
:20308E0009F378687964E2F308E209F38F82122E679218A21992A8A21822C2A8C214784B78
:2030AE00E4F2C215784CE4F27413C0E075820512356215817440C0E07582061235621581C9
:2030CE0012360C122E17122E3F7405C0E07582071235621581D2A8D322900032125E437509
:2030EE008201123598AF82BFFF028005BF05005002C32212366C758201123598E582FF20DE
:20310E00E00612366C921A22EF30E102D322C322AC82AD83AEF0FFC3ED941CEE944EEF94AF
:20312E000E400E74C09C74F79D74BA9E74379F5002C3227852ECF208EDF208EEF208EFF2A0
:20314E008C828D838EF0EF1236D8D322AC82AD83AEF0FFC374F09C74E89D74269EE49F50FF
:20316E0002C322786A7410F2087427F208E4F208F28C828D838EF0EF123618AC82AD83AE9E
:20318E00F0FF7856ECF208EDF208EEF208EFF2C00475827A1235621581D322E582900481E9
:2031AE00F0785BE2FF900481E0FEB5070122785BEEF2C0067582791235621581C2152278F2
:2031CE005BE2F58222AF82C007E4C0E07582051235621581E4C0E075820612356215811282
:2031EE00360C7415C0E075820B12356215817412C0E075820C123562158174CCC0E07582D6
:20320E00091235621581D007EF249B5010C00774C0C0E07582581235621581D0077852E2C7
:20322E00FB08E2FC08E2FD08E28B828C838DF0C0071236D87856E2FB08E208E208E2C00322
:20324E0075827A1235621581748DC0E075823012356215817442C0E07582331235621581EA
:20326E0074CFC0E0758232123562158174FFC0E0758245123562158174FFC0E07582461205
:20328E003562158174FFC0E0758243123562158174FFC0E07582441235621581743CC0E08A
:2032AE0075827C12356215817420C0E075827D12356215817432C0E075827E12356215816D
:2032CE00785D7410F2785DE2FEC00675823412356215817428C0E075823512356215817594
:2032EE00820012348AD0077E00EE9071EA93FDC39F50060EBE0C0040F0EEFF9071EA93FE87
:20330E00785AF2BE200040047E0D80027E2D75820DC007C0061225C8AA82AB83ACF0FDD0AE
:20332E0006D007EA4B4C4D600B785AE2FD247F4003430602C007C006758270123562158154
:20334E007423C0E075827112356215817444C0E075821D1235621581D007785AE2FEBEC8C7
:20336E00005012C007740AC0E075821E1235621581D0078010C0077402C0E075821E123504
:20338E00621581D0077809E2B4433A7E00EE75F00DA424F7FC747135F0FDEF2CF582E43D69
:2033AE00F583E493FDEE9071DE93FCC007C006C0058C821235621581D006D0070EBE0C0093
:2033CE0040CB0234887809E2B447397E00EE75F00DA42493FC747235F0FDEF2CF582E43D8F
:2033EE00F583E493FDEE9071DE93FCC007C006C0058C821235621581D006D0070EBE0C0053
:20340E0040CB80767809E2B486397E00EE75F00DA4242FFC747335F0FDEF2CF582E43DF545
:20342E0083E493FDEE9071DE93FCC007C006C0058C821235621581D006D0070EBE0C0040C7
:20344E00CB80377E00EE75F00DA424CBFC747335F0FDEF2CF582E43DF583E493FDEE9071D8
:20346E00DE93FCC007C006C0058C821235621581D006D0070EBE0C0040CBD322E5829004B2
:20348E0082F0FF7E00EE90746793FDC39F50060EBE080040F0900483EEF0BE0806900483B2
:2034AE007407F0900483E0FF90746793FE785CEEF2C00775826D123562158122785CE2F5B6
:2034CE008222AF83E582900484F0EFA3F0900484E0FEA3E0FF8E04784EECF28F05784FED21
:2034EE00F2200534C007C006C005C00575823C1235621581D005D006D007C006C005C00617
:20350E0075823D12356215817582411235621581758242123562158122AF83E58290048666
:20352E00F0EFA3F0900486E0FEA3E0FF7850EEF208EFF28F06C00675823F123562158178B8
:20354E0050E254FFFE08E25400C006758240123562158122AF82A2A89238C2A875A700C2B1
:20356E0094C2B774804FF58630B1FDA8811818868630B1FD74805584FFBF800280F6C2B755
:20358E00D29475A700A23892A822AF82A2A89238C2A875A700C294C2B78F8630B1FD7586DD
:2035AE000030B1FD74805584FFBF800280F6AF86C2B7D29475A700A23892A88F8222AF82F4
:2035CE0075A700C294C2B775867F30B7FD8586E0E58124FDF886050886068F041FEC6016F7
:2035EE00C2B775860030B7FD8D828E83E586F0A3AD82AE8380E4C2B7D29475A7002275826F
:20360E0003123598758204023598AF82AE83ADF0FC786EEFF208EEF208EDF208ECF2786D94
:20362E00E2C313FF18E213FE18E213FB18E213FA786EE22AFA08E23BFB08E23EFE08E23F50
:20364E00FF786A9005DDE2F008E2A3F008E2A3F008E2A3F08A828B838EF0EF0263EDE4C043
:20366E00E07582051235621581E4C0E0758206123562158112360C7481C0E0758207123533
:20368E00621581900002125E0A308707125E3B50F8C322E4C0E0758205123562158174024D
:2036AE00C0E07582061235621581900014125E0A125E3B40137582031235987582041235E9
:2036CE0098E58230E1EAD322C322AF82AE83ADF0FC7872EFF208EEF208EDF208ECF27872A3
:2036EE00C3E2F5F0E495F008E2F5F0743895F008E2F5F0749C95F008E2F5F0741C95F04041
:20370E00030237CE7873E224C8F208E23463F208E234E3F29005DDE4F0742DA3F07431A3BE
:20372E00F07401A3F07872E2F58208E2F58308E2F5F008E21263EDAA82900488EAF090060B
:20374E0002EAF0E4A3F0E4A3F0E4A3F0902D0075F031740112674BAC82AD83AEF0FF7872A9
:20376E00E2C39CF208E29DF208E29EF208E29FF2786A7471F2087402F208E4F208F27872AF
:20378E00E2F58208E2F58308E2F5F008E21236187872C0E0E582F208E583F208E5F0F2D063
:2037AE00E008F27872E225E0F208E233F208E233F208E233F2900488E0FF4420F002389117
:2037CE007873E224E4F208E234B1F208E234F1F29005DD7480F07496A3F07498A3F0E4A339
:2037EE00F07872E2F58208E2F58308E2F5F008E21263EDAC82900488ECF0900602ECF0E48D
:20380E00A3F0E4A3F0E4A3F090968075F098E412674BAC82AD83AEF0FF7872E2C39CF208AE
:20382E00E29DF208E29EF208E29FF2786A7471F2087402F208E4F208F27872E2F58208E2E6
:20384E00F58308E2F5F008E21236187872C0E0E582F208E583F208E5F0F2D0E008F2787221
:20386E00E225E0F208E233F208E233F208E233F2181818E225E0F208E233F208E233F208ED
:20388E00E233F2900488E04440F07872E2FC08E2FDC005C004900488E0C0E075827512351C
:2038AE00621581D004D0058D07C005C004C0077582761235621581D004D005C004758277EE
:2038CE00123562158122D2EC20ECFDAFBE7E00ACBD7D00EC4206ED42078E828F83126A6673
:2038EE00AA82AB83ACF0FDC002C003C004C00590FF2E75F0D1743F1262A0AA82AB83ACF009
:20390E00FDE58124FCF5818A828B838CF0ED126A73AE82AF83EE24FFFCEF34FBFD8C828D09
:20392E0083126A66AA82AB83ACF0FD749AC0E07499C0E07459C0E07440C0E08A828B838C5F
:20394E00F0ED126BCBAA82AB83ACF0FDE58124FCF581E4C0E0C0E074C8C0E07441C0E08A66
:20396E00828B838CF0ED1269ABAA82AB83ACF0FDE58124FCF5818A828B838CF0ED026A73C9
:20398E00E582900489F0FF24FC4068EF2F2F9039A0730239AC023A01023A010239D17418BC
:2039AE00C0E075820D1235621581758208123598AF82741F5F4480FFC007758208123562E3
:2039CE00158122758208123598AF82741F5F4420FFC0077582081235621581740AC0E07525
:2039EE00820D1235621581E4C0E075820E123562158122758208123598AF8253071FC007B2
:203A0E007582081235621581740AC0E075820D12356215817404C0E075820E12356215819D
:203A2E0022C027C0E0C0F0C082C083C007C006C005C004C003C002C001C000C0D075D000A9
:203A4E00758204123598AF82758203C007123598AE82D007EE30E449784CE2FC7D00743296
:203A6E002CFCE43DFDC374FC9CE49D5003023B3A784CE2247FFCE43403FDC007C006C0042A
:203A8E00C0057582321235CC15811581784CE22432F2758226123598E582D006D007784D28
:203AAE00F2EF30E611D215758226C006123598E582D006784DF2200504EE20E06FEE30E1CE
:203ACE006975824B123598E582FF2403405E784CC3E2F5F0EF95F04053784CC3E29F502254
:203AEE00784CE2247FFDE43403FE784CD3E29FF4FCC007C005C0068C821235CC15811581B2
:203B0E00D007784BEFF2D214E4C0E07582051235621581E4C0E07582061235621581740241
:203B2E00C0E07582071235621581801E780BE2FE08E2FFBEFF05BFFF02800C0EBE00010FC6
:203B4E00780BEEF208EFF21230A8D0D0D000D001D002D003D004D005D006D007D083D08240
:073B6E00D0F0D0E0D02732B7
:2071CD006F76657273697A6564207061636B6574001C1F2021222324252A6E6F720204089E
:2071ED001013182030406080C0FA2727272E1601050B9A888A8C8D03030303030303030373
:20720D0003030303F4FA7D3F69A77D535E7D5E3F3020000102010001010101010202418332
:20722D00060C37C406895D065D0CAA8912254A4C9C25378625864AAB0001020402010203AC
:20724D00020202040785080E12728A0E18BB0EBBEAFF1D1D1D1E1E1E203041505050501042
:20726D002041839BC4080C101820314062C58912A69C314A6293C5270003060D1A1E2633EA
:20728D004D669ACDFEFE2B2B2B2E1601050B9A888A8C8D0303030303030303030303030309
:2072AD00F4FA7D3F69A77D535E7D5E3F30200001020100010101010102024183060C37C491
:2072CD0006895D065D0CAA8912254A4C9C25378625864AAB0001020402010203020202040F
:2072ED000785080E12728A0E18BB0EBBEAFF1E1E1E21212121304150505050102041839B20
:20730D00C4080C101820314062C58912A69C314A6293C5270003060D1A1E26334D669ACDAE
:20732D00FEFE010101010101050B9A888A8C8D03030303030303030303030303D0E8F4FA9C
:20734D00D3A77D535E7D5E3F30E0602000000001010101010202102041839BC406895D0680
:20736D005D0CAA62C58912A69C25378625864AAB0000000101010203020202040723448562
:20738D0008398A0E18BB0EBBEAFF1C1C1C1C1C1E20304150505050102041839BC4080C1090
:2073AD001820314062C58912A69C314A6293C5270003060D1A1E26334D669ACDFEFE0101F8
:2073CD0001010101050B9A888A8C8D03030303030303030303030303D0E8F4FAD3A77D53B0
:2073ED005E7D5E3F30E0602000000001010101010202102041839BC406895D065D0CAA62B5
:20740D00C58912A69C25378625864AAB0000000101010203020202040723448508398A0E5D
:20742D0018BB0EBBEAFF1E1E1E1E1E1E20304150505050102041839BC4080C101820314015
:20744D0062C58912A69C314A6293C5270003060D1A1E26334D669ACDFEFE010205080B0ED9
:02746D001114F8
:203B7500C027C0E0C0F0C082C083C007C006C005C004C003C002C001C000C0D075D0001073
:203B95009803023C91AF9930000E300103023C918F821204E7023C918F82C007120581D000
:203BB500077876E22401FD08E23400FEBD0009BE04067D007E00800B7876E22401FD08E2EB
:203BD5003400FE7878E2B5050708E2B50602803A7876E2241CF58208E23406F583EFF07830
:203BF50076E22401FD08E23400FEBD0009BE04067D007E00800B7876E22401FD08E23400F6
:203C1500FE7876EDF208EEF2801B7811E2FD08E2FEBDFF05BEFF02800C0DBD00010E781183
:203C3500EDF208EEF230075478767978C3E3F5F0E295F009E3F5F008E295F0B3E433FE60E4
:203C55001B7878E22400FD08E23404FE7876D3E29DF4B3FDB308E29EF4FE8015787879769C
:203C7500E3F5F0C3E295F0FD09E3F5F008E295F0FEC3ED9420EE94005002D282109902804B
:203C950061787A797CE2F5F0E3B5F00B08E2F5F009E3B5F002804930070A30830720000423
:203CB500D21B803E787CE2241CF58208E2340AF583E0FF787CE22401FD08E23400FEBD0067
:203CD50009BE02067D007E00800B787CE22401FD08E23400FE787CEDF208EEF28F99800201
:203CF500D21BD0D0D000D001D002D003D004D005D006D007D083D082D0F0D0E0D0273278D0
:203D15007A797CE2F5F0E3B5F00A08E2F5F009E3B5F00122301B03023F9C22AF8275A700A9
:203D3500C2AC7876E4F208F2787CE4F208F2787AE4F208F2787CE4F208F2D21BC28EAE8984
:203D5500740F5E4420F5898F82124335D28E759810C282D2AC22AF82C007123F44AD82AE25
:203D750083D007C3ED9401EE94005002C3228F82123D8AD322AF82A2AC9238C2AC787AE26C
:203D95002401FD08E23400FEBD0009BE02067D007E00800B787AE22401FD08E23400FE7834
:203DB5007CE2B5050708E2B506028044787AE2241CF58208E2340AF583EFF0787AE2240161
:203DD500FE08E23400FFBE0009BF02067E007F00800B787AE22401FE08E23400FF787AEEA9
:203DF500F208EFF2301B24C027123F9CD027801B780FE2FE08E2FFBEFF05BFFF02800C0E92
:203E1500BE00010F780FEEF208EFF2A23892AC22858242858343787EE2700122123F44ACF5
:203E350082AD83787EE2FA7B00C3EC9AED9B501F787EECF2780FE2FC08E2FDBCFF05BDFF92
:203E550002800C0CBC00010D780FECF208EDF2787EE2FD787AD3E29400F4B3FBB308E294BA
:203E750002F4FC8D027F00C3EB9AEC9F5008787AE2FFC3E49FFD787AE2241CFE08E2340AB2
:203E9500FF7C009005E9E542F0E543A3F0E4A3F09005ECEDF0E4A3F08E828F838CF0C00593
:203EB50012652ED005ED2542F542E43543F543787EE2C39DF2D21C10AF02C21C7F00787A2C
:203ED500E22DF208E23FF2787AC308E294024006787BE224FEF2A21C92AF787EE2603E9048
:203EF50005E9E542F0E543A3F0E4A3F0787EE2FE7F009005ECEEF0EFA3F0900A1C75F00025
:203F1500C007C00612652ED006D007D21C10AF02C21C787AEEF208EFF2A21C92AFD21C1068
:203F3500AF02C21C301B03123F9CA21C92AF22A2AC921DC2AC787A797CC3E3F5F0E295F03D
:203F550009E3F5F008E295F0B3E433FF601B787CE22400FE08E23402FF787AD3E29EF4B3C5
:203F7500FEB308E29FF4FF8015787C797AE3F5F0C3E295F0FE09E3F5F008E295F0FFA21D95
:203F950092AC8E828F832230070730830420000122C21BD29922A2AC921EC2AC787679789D
:203FB500E2F5F0E3B5F00B08E2F5F009E3B5F002803A7878E2241CF58208E23406F583E071
:203FD500FF7878E22401FD08E23400FEBD0009BE04067D007E00800B7878E22401FD08E2CB
:203FF5003400FE7878EDF208EEF280027F0030075378767978C3E3F5F0E295F009E3F5F096
:2040150008E295F0B3E433FE601B7878E22400FD08E23404FE7876D3E29DF4B3FDB308E245
:204035009EF4FE801578787976E3F5F0C3E295F0FD09E3F5F008E295F0FEC3E49D74029EE2
:204055005002C282A21E92AC8F8222A2AC921FC2AC7878E2241CF58208E23406F583E0FF13
:20407500A21F92AC8F8222A2AC9220C2AC7878E22401FE08E23400FFBE0009BF04067E006B
:204095007F00800B7878E22401FE08E23400FFEE241CF582EF3406F583E0FFA22092AC8F3B
:2040B5008222AF83E58290048AF0EFA3F0A2AC9221C2AC90048AE0FEA3E0FF7878E22EFE33
:2040D50008E23FFF530703EE241CF582EF3406F583E0FFA22192AC8F822285824485834555
:2040F500124268AC82AD83787FE2FA7B00C3EC9AED9B5002C3227880EAF208EBF27878D3BF
:20411500E29400F4B3FAB308E29404F4FB7880C3E2F5F0EA95F008E2F5F0EB95F050137844
:20413500787980D3E29400F4B3F3B308E29404F409F3AA44AB457F007878E2241CFD08E29B
:204155003406FE9005E9EDF0EEA3F0E4A3F078809005ECE2F008E2A3F08A828B838FF0124C
:20417500652E7880E2FC787FE2C39CF27880E22544F54408E23545F545D22210AF02C222E4
:2041950078787980E3C5F0E225F0F209E3C5F008E235F0F27878C308E2940440067879E2B0
:2041B50024FCF2A22292AF787FE26044AD44AE457F009005E9741CF07406A3F0E4A3F078F9
:2041D5007FE2FB7C009005ECEBF0ECA3F08D828E838FF0C004C00312652ED003D004D222B1
:2041F50010AF02C2227878EBF208ECF2A22292AFD22210AF02C22230075378767978C3E3A5
:20421500F5F0E295F009E3F5F008E295F0B3E433FF601B7878E22400FE08E23404FF7876B6
:20423500D3E29EF4B3FEB308E29FF4FF801578787976E3F5F0C3E295F0FE09E3F5F008E223
:2042550095F0FFC3E49E74029F5002C282A22292AFD322A2AC9223C2AC78767978C3E3F5F0
:20427500F0E295F009E3F5F008E295F0B3E433FF601778767978E3F5F0C3E295F0FE09E397
:20429500F5F008E295F0FF80197878D3E29400F4B3FCB308E29404F4FD7876E22CFE08E237
:2042B5003DFFA22392AC8E828F8322124268AE82AF83E4C39EFE74049FC423CEC423541FDF
:2042D5006ECE541FCE6ECEFF9005F6EEF0EFA3F090006412662EAE82E583A2E7CE33CE3369
:2042F500CE54018E8222AF82BF0A0A75820DC007123D8AD0078F82023D8AAF827E00BE0985
:2043150000501BEE75F003A4246FF582747435F0F583E493FDEFB50502D3220E80E0C3222D
:20433500AF82C00712430FD00740027F397E00BE0900501BEE75F003A4246FF5827474356A
:20435500F0F583E493FDEFB5050280030E80E0EE75F003A4246FFD747435F0FE8D828E831B
:20437500A3E493F58DAC8E5304F48D828E83A3A3E4934CF58E900602EFF0E4A3F0E4A3F0F6
:0F439500E4A3F090007DE4F5F012674B02215D88
:1B746F00012C02029602042C0009960013600126B001392B08739608E6CB08E9
:207597000000000000000000000000000000000000000000000000000000000000000000D4
:2075B7000000000000000000000000000000000000000000000000000000000000000000B4
:2075D700000000000000000000000000000000000000000000000000000000000000000094
:2075F700000000000000000000000000000000000000000000000000000000000000000074
:2043A4007F0078B2E224FFFD08E234FFFE8F037C00C3EB9DEC9E4003024462BF080040035B
:2043C4000244627850E2B5030808E2B5040302445EEF75F002A4FDAEF0C007ED2415F54ABC
:2043E400EE3401F54B854A82854B83A3E0FF8F4C754D007850E2FA08E2CA25E0CA33FFEA50
:204404002405FAEF3401FF8A828F83A3E0FF8F4E754F00854A82854B83E0FF7A00ED2405FE
:20442400F582EE3401F583E0FE7D00C007C04CC04DC04EC04FC007C002C006C005C003C077
:2044440004748AC0E07474C0E07480C0E0122CF4E58124F3F581D007D0070F0243A6789CB9
:20446400E2FE7F00C007C0061238D4AC82AD83D006D0077815E2F54E08E2F54F7813E2F5E1
:204484004C08E2F54D7811E2F54A08E2F54B780FE2F55008E2F551780BE2F55208E2F55310
:2044A400780DE2FA08E2FBC006C007C004C005C04EC04FC04CC04DC04AC04BC050C051C070
:2044C40052C053C002C00378A7E2C0E008E2C0E07850E2C0E008E2C0E074B2C0E07474C081
:2044E400E07480C0E0122CF4E58124E9F58178A7E4F208F22278A6E2540160030243A42255
:20450400AF827E0078979005F6E2F008E2A3F08F828E8312662EAE82AF837895E22EFE08B2
:20452400E23F8E82F58322AE82AF837899C3E29E08E29F50087899E4F208F2800A7899E2B7
:20454400C39EF208E29FF27889C3E2F5F0EE95F008E2F5F0EF95F0500302482D7883C308B8
:20456400E29480400B7850E2F5F008E245F0706F7883E2FC08E2FD788374012CF2E43D08F2
:20458400F278B2900606E2F008E2A3F08C828D83C007C0061267B7AC82AD83D006D00778B2
:2045A40050E2B5040708E2B50502800280317882E4F278B2900606E2F008E2A3F07883E26A
:2045C400F58208E2F583C007C0061267B7E5828583F0D006D0077883F208E5F0F2804F7832
:2045E40083C308E29480504178B2900606E2F008E2A3F0900001C007C0061267B7AC82ADA4
:2046040083D006D0077883E2C39CFC08E29DFD78B2E224FFFA08E234FFFBECB5020BEDB519
:20462400030778827402F2800578827401F27889D3E29EF4B3FEB308E29FF4FF7882E2B46C
:204644000210788DE2FC08E2FD7889ECF208EDF28019788BE2FC08E2FD7889ECF208EDF28D
:20466400C007C006120D0BD006D007C007C0061230A8D006D0077807C3E2F5F0740195F0AB
:20468400500C78A0E4F208F278A4E4F208F27882E26003024824C006C007789BE2FC7D003E
:2046A400789CE2F554755500ECC39554FEED9555FFBE640ABF0007D007D006024824D0079D
:2046C400D006C006C007C007C006C005C004C046C047C048C04990333375F073743F12624A
:2046E400A085825685835785F058F559E58124FCF581D004D005D006D007789DE2F5820877
:20470400E2F583C005C004126AA7AA82AB83AEF0FFD004D005C007C006C005C004C002C057
:2047240003C006C00790000075F0A074401262A085825A85835B85F05CF55DE58124FCF526
:2047440081D004D005D006D0077890798BE3C5F0E225F0FE09E3C5F008E235F0CE25E0CE94
:2047640033FF8E828F83C005C004126AA7AA82AB83AEF0FFC002C003C006C007855A828546
:204784005B83855CF0E55D126BCBAA82AB83AEF0FFE58124FCF581D004D005C007C006C0F3
:2047A40005C004C002C003C006C0078556828557838558F0E5591269AB858246858347850C
:2047C400F048F549E58124FCF581D004D005D006D007789DE4F208F2ECC39554FCED9555BD
:2047E400FD8C828D83126A66AC82AD83AEF0FFC007C006C004C005C006C007854682854701
:20480400838548F0E5491265FEE58124FCF581D006D007E58224FF922DB3922BD007D006A2
:204824007899E4F208F202454B7882E2B40210C007C006120CE51231A9D006D007800EC0E8
:2048440007C006120CD51231A9D006D0077889E2C39EF208E29FF222AF827882E2B4022441
:20486400EF70217850E2F5F008E245F070047582012278507992E24400F308E2448009F3E2
:20488400758200227882E27003024A86102500EF600302491B7883E2F5F008E245F0604666
:2048A4007892E254FFFE08E2547FFF7883E224FFFC08E234FFFD78B2E224FFFA08E234FF9F
:2048C400FB900606EAF0EBA3F08C828D83C007C0061267B7AC82AD83D006D007EEB5040652
:2048E400EFB5050280297883E2F5F008E245F070227892E254FFFE08E2547FFF78B2E224C4
:20490400FEFC08E234FFFDEEB50408EFB50504758201227582002278B4E27003024A747837
:2049240092E254FFFE08E2547FFF78AEE2FC08E2FDEEB50406EFB505028002D2277892C367
:2049440008E2948050797892E22401FE08E23400FF78B2E224FFFA08E234FFFB900606EA99
:20496400F0EBA3F08E828F83C005C0041267B7AE82AF83D004D005ECB50644EDB507407893
:2049840092ECF208EDF2126343AE82AF837895E2FA08E2CA25E0CA33FB900606EAF0EBA304
:2049A400F08E828F831267B7AE82AF837895E22EFE08E23FFF7899EEF208EFF2024A41782D
:2049C40092ECF274804D08F278509005F6E22401F008E23400A3F07895E2F58208E2F58365
:2049E40012662EAE82AF83C007C006126343AC82AD8378509005F6E22402F008E23400A3FC
:204A0400F07895E2F58208E2F583C005C00412662EAA82AB83D004D005900606EAF0EBA3A4
:204A2400F08C828D831267B7AC82AD83D006D007EC2EFEED3FFF7899EEF208EFF27895E21D
:204A4400FE08E2CE25E0CE33CE25E0CE33FF900606EEF0EFA3F07899E2F58208E2F58312E9
:204A640067B7E5828583F07899F208E5F0F2800E78507992E24400F308E2448009F37582C8
:204A840000227882E2705A30250C7892E4F2087480F27582002230261078507992E24400A3
:204AA400F308E2448009F3800E7850E2FE08E2FF7892EEF208EFF2102702802178959005E7
:204AC400F6E2F008E2A3F090000612662EE5828583F07899F208E5F0F2758200227582010F
:204AE40022758201221234CAE582FF24EB4005789CE4F2221238D4E5828583F0249CFEE580
:204B0400F034FFFFC3E49EE464808FF063F08095F0E433FD700C789CE26007789CE214F2A2
:204B24008039C3740A9EE464808FF063F08095F05008789CE2240AF28021C374059EE46409
:204B4400808FF063F08095F05008789CE22405F28009ED6006789CE22401F2789BE2FE7F36
:204B640000789CE2FC7D00EEC39CFEEF9DFFC3EE9414EF648094805008789B799CE224EC3A
:204B8400F3227850E2F5F008E245F0600330290E900599E4F0C229D204120D3F8007900547
:204BA40099E02401F0900599E0FFBF02005004C29580477894E4F2A2289295B22878837407
:204BC400FFF20874FFF29005F1E4F09005F27410F0E4A3F090011575F0001265A29005F1FD
:204BE400E4F09005F27410F0E4A3F090010575F0001265A278A7E4F208F2900599E0FF2437
:204C0400FC5029302A0F75F005EF84AFF0BF0410120D0B800BC204120D3F120CE51231A99B
:204C2400900599E0FF24C3500343EF1078A9E4F208F23024077803E2FF78A6F2B2249005C4
:204C44009AE02401F090059AE0FFBF0408124AE990059AE4F022AE82AF839000BA75F0006D
:204C6400C007C006126BB3E5828583F02401FCE435F0FD9005E974BAF07400A3F0E4A3F0D3
:204C84009005ECECF0EDA3F090058875F00012652ED006D00778B0EEF208EFF2D22C22AF9F
:204CA40082BF02004017EF24EF401290048CE0FEBE520A90048DE0FEBE540280237E00C3F3
:204CC400EE9F501BEE248CF582E43404F583E0F582C007C0061242FBD006D0070E80E022BF
:204CE40078AE79B0E2F308E209F39005E9748CF07404A3F0E4A3F09005ECEFF0E4A3F0904F
:204D040000BA75F000C00712652ED007EF24BAF582E43400F583E4F09000BA7441F078011D
:204D2400EFF2BF041B9000BCE0FFBF49139000BDE0FFBF350B78AB7401F275820002222476
:204D4400022251125EB4AE82AF8378B5EEF208EFF278FF762A78FFB62A02801DC007C006C4
:204D640074F6C0E07474C0E07480C0E0120DD4158115811581D006D0077800E2B4410280D6
:204D84001DC007C0067403C0E07475C0E07480C0E0120DD4158115811581D006D007C00708
:204DA400C0061206C5D006D00778A6E2600FC007C0061244F9D006D00778A6E4F2900322FE
:204DC400E0FB6021900125E0FB601A200017900322E4F0C007C0061217A8D006D007500548
:204DE400900322E4F0C007C006125EB478B8E582F208E583F2785E748CF2087404F29000C0
:204E0400B775F060122D0ED006D00740030251267899E4F208F278B7E2B40400502A78B709
:204E2400E2FC7D00C007C006C004C0057419C0E07475C0E07480C0E0122CF4E58124FBF507
:204E440081D006D007024D597882E2700AD2257892E4F2087480F278B7E2248CFCE4340484
:204E6400FDEC24FCFCED34FFFD9005E9ECF0EDA3F0E4A3F09005EC7404F0E4A3F09000AC1F
:204E840075F060C007C00612652ED006D00778B7E214141414F278AEE2F55E08E2F55F304E
:204EA400E73B7894E2B4FF0050117883E2F5F008E245F070067894E22401F27883E4F20895
:204EC400F278AEE2FC08E2FD53057F8C82C007C006120D01D006D007D229024D59302A3F76
:204EE40078ADE220E6397894E2B4FF00501E7401255EFCE4355FFD7883E2B5040708E2B5B4
:204F04000502800280067894E22401F278AEE2FC08E2FD788374012CF2E43D08F2D2297872
:204F2400AEE2FC08E2FDC3EC9408ED9400507CC006C007EDCC25E0CC33FDEC2405FCED34E9
:204F440001FDC006C005C004122E05AF82D004D005D0067E0078AEE2FA08E2CA25E0CA33D5
:204F6400FBEA2405F582EB3401F583E09005F6F0E4A3F0900007C007C006C005C004126619
:204F84002EAA82AB83D004D005D006D007EA2FFAEB3EC423CAC423541F6ACA541FCA6ACA43
:204FA400FB8C828D83EAF0D007D00678A7E22401F208E23400F278ACE2FC08E2541FFD4C7D
:204FC400600302506F78B7E2700302506F78B7E2B40402800302506178AEE2FC08E2FDC3B5
:204FE400EC9408ED94005075C006C00778B7E21414F278B7E2248CFAE43404FB7F008A82CA
:205004008B838FF0126C8EFAA3126C8EFB7850E2B5020708E2B503028006D007D006803D53
:20502400D007D006EDCC25E0CC33FDEC2415FCED3401FD7B009005E9748CF07404A3F0E4ED
:20504400A3F078B79005ECE2F0E4A3F08C828D838BF0C007C00612652ED006D00778A7E247
:2050640024FFF208E234FFF2024D5978ACE2FC08E2541FFD4C7003024D5978ACE2FC08E2B1
:20508400541FFD7889ECF208EDF278B779B4E2700474018001E4F375820112485C78B8E297
:2050A400FE08E2FF78ADE2C4035401FDBD012278B7C3E2F5F0740195F04003024D5978B738
:2050C400E2F582C007C006124CA3D006D007024D5978B7E27003024D5978ADE223540124C1
:2050E400FF920D783A748CF2087404F278B7E2F582C007C0061221A4D006D0075003024DBD
:2051040059300003024D59C29678B7797EE2F390048CC007C006123E25D006D007D29602CB
:205124004D59C007C006125EB478B8E582F208E583F2D006D00778B8E2C39EFC08E29FFD87
:205144008C828D83C005C00412452BD004D00578B8E2FE08E2FF788B7990E3F5F0C3E29572
:20516400F0FA09E3F5F008E295F0FB7889C3E2F5F0EA95F008E2F5F0EB95F05003024D59D2
:205184007882E2B4022A788D7990E3F5F0C3E295F0FA09E3F5F008E295F0FB7889C3E2F57F
:2051A400F0EA95F008E2F5F0EB95F05003024D59C006C00778B879B5E3F5F0C3E295F0FA7B
:2051C40009E3F5F008E295F0FB7E007F00C3E49A74809BE49EE464808FF063F08095F0D0D2
:2051E40007D006501DC007C006C005C004124B86D004D005D006D00778B879B5E2F308E2F5
:2052040009F3789FE27003025298C007C006C005C004122E0BAB82D004D005D006D00778DA
:205224009FC3E2F5F0EB95F0500B78A0E22CF208E23DF2803E78A0E4F208F278A4E2F5F0BC
:2052440008E245F0702DC007C006126343AC82AD8378A2900606E2F008E2A3F08C828D83C8
:205264001267B7E5828583F0D006D00778A4F208E5F0F278A279A4E3C5F0E225F0FC09E363
:20528400C5F008E235F0FD78A0C3E29C08E29D5003024D5978B4E4F2758200C007C00612D6
:2052A400485CE582D006D0077003024D597899E2F5F008E245F06003024D59C007C0061276
:2052C4002DEED006D007400DC007C006122DD5D006D00750237895E2FC08E2FD7899ECF233
:2052E40008EDF27882E26003024D59D2257892E4F2087480F2024D597850E2F5F008E245B1
:20530400F0600B7894E2B414005003024D59C006C0077850E2FC08E2CC25E0CC33FDEC2483
:2053240005FCED3401FD0CBC00010DC007C006C005C004122E0BAB82D004D005D006D0078F
:205344007A007850E2FE08E2CE25E0CE33FFEE2405FEEF3401FF8E828F83A3E09005F6F012
:20536400E4A3F0900003C005C004C003C00212662EAE82AF83D002D003D004D005EE2BFEA4
:20538400EF3AC313CE13CEC313CE13CE8C828D83EEF0D007D006302B03024D597889799518
:2053A400C3E3F5F0E295F009E3F5F008E295F05003024D597889E2FC08E2FD7895E2FA0805
:2053C400E2CA25E0CA33FBECC39AFCED9BFD30E7047D0080367895E2FB08E2CB25E0CB3366
:2053E400FC7889E2C39BFB08E29CFC789790059BE2F008E2A3F08B828C83C007C006125F47
:2054040011AB82AC83D006D0078B05BD05005003024D59ED24FBFD788FC3E29D5004788F74
:20542400E2FDC007C006C005124268E5828583F0D005D006D00745F060443027417882E24D
:20544400B4013B788BE2FB08E2C313CB13CBC313CB13CBFC7889C3E29B08E29C5003024D2B
:205464005990048C74FFF078B77401F278ADE24420F2788774FFF20874FFF202556F7882C8
:20548400E2B4020302556B202C0302550EC006C00790058875F000C007C006C005126BB366
:2054A400AB82AC83D005D006D0078D027F00C3EA9BEF9CD007D006405190058875F000C0A9
:2054C40007C006C005126BB3AB8278B7EBF29005E97488F07405A3F0E4A3F09005ECEBF084
:2054E400E4A3F090048C75F00012652ED005D006D00778ADE24420F278B0E2FB08E2FC78C5
:2055040087EBF208ECF2C22C80617838748CF2087404F28D82C007C006C005121CACE582B8
:2055240078B7F212214DD005D006D007922EE433FC78AD13E292E5F278ADE230E52D78B07D
:20554400E2FB08E2FC7887EBF208ECF278ABE2FC78AB04F28C82C007C006C005122224D020
:2055640005D006D007800478B7E4F278B7798FC3E2F5F0E395F05021C007C006C005742E5E
:20558400C0E07475C0E07480C0E0120DD4158115811581D005D006D0077882E2B40103D3AC
:2055A4008001C3922EE43378AD13E292E6F2C007C006C00512214AD005D006D007922EE453
:2055C40033FC78AD13E292E7F27882E2600302573178B7E26003025731BD120050030257D1
:2055E4003178B2E224FFFC08E234FFFD78A9C3E29C08E29D40030257317850C3E29408086A
:20560400E2940040030257317895E2FC08E2CC25E0CC33FD788BE2C39CFC08E29DFD7889DC
:20562400C3E29C08E29D400302573178A97950E2F5F0E3B5F00B08E2F5F009E3B5F00280AB
:2056440002800B78A9E22401F208E23400F278B77402F278A9E2FC08E2CC25E0CC33FDEC56
:205664002405FCED3401FD0CBC00010D7850E2FA08E2CA25E0CA33FBEA2405FAEB3401FB8F
:205684008A828B83A3E08C828D83F078A9E2FC08E2CC25E0CC33FDEC2405FCED3401FD90E5
:2056A40005E9ECF0EDA3F0E4A3F09005EC7402F0E4A3F090048C75F000C007C00612652E10
:2056C4009005E974A9F0E4A3F07460A3F09005EC7402F0E4A3F090048E75F00012652ED003
:2056E40006D00778B77404F278A9E22401F208E23400F278A97950E2F5F0E3B5F00B08E2D8
:20570400F5F009E3B5F0028002800B78A9E22401F208E23400F278ACE4F208E254E0F27854
:20572400ADE2547FF278ADE254DFF280537882E2601E78B7E270197882E2B4020280030205
:205744004D597850E2F5F008E245F06003024D5978B7E22404F582C007C006124504AC8220
:20576400AD83D006D0077889E2C39CFC08E29DFD78ACECF208ED541FF5F0E254E045F0F2FA
:205784007882E2B402267850E2F5F008E245F0701BC007C006120CFBAD82D006D0077C0016
:2057A40043048078AEEDF208ECF2800A78AE7950E3F20809E3F278B7E2248CFCE43404FD29
:2057C4007B009005E974ACF0E4A3F07460A3F09005EC7404F0E4A3F08C828D838BF0C0071E
:2057E400C00612652ED006D00778ADE220E52C78B7E2601E78ACE2FC08E2541FFD4C6012AC
:20580400C2967885E2FC08E2FD7887ECF208EDF28009788774FFF20874FFF27882E2700FF1
:2058240078B7E27006D227D2268010C226800C7882E2B401067893E2547FF230272178822D
:20584400E2B4011BC22778957999E2F308E2F5F0E325E0C5F033C5F0F309E5F0F3800E7897
:2058640095E2FC08E2FD7899ECF208EDF2789BE2FC7D00789CE2FA7B00ECC39AFCED9BFD51
:20588400BC6405BD0002801F78B7E22404F582C007C006124504AC82AD83D006D007789DC9
:2058A400E22CF208E23DF278B7E22404FD7866748CF2087404F2788790047EE2F008E2A3E3
:2058C400F078897968E2F308E209F38D82C007C006123050D006D007401078B7E2600BC0D0
:2058E40007C006122150D006D007789FE2600C78A0E4F208F278A4E4F208F2C007C00612CF
:205904000CD51231A91230A8D006D00778B7E27003024D5978ACE2FC08E2541FFD4C7003D8
:20592400024D59D296024D59A22922AE82AF8378B274012EF2E43F08F222AE82AF837885FF
:20594400EEF208EFF222E58224FF922A22122E11AF82900602EFF0E4A3F0E4A3F0E4A3F092
:205964009003E8E4F5F012674BAC82AD83AEF0FF9005DDECF0EDA3F0EEA3F0EFA3F09012AD
:205984000075F07AE41263EDAC82AD83AEF0FF74082CF560E43DF561E43EF562E43FF5637B
:2059A400AA60E561C4CAC4540F6ACA540FCA6ACAFBE562C454F04BFBAE62E563C4CEC454B7
:2059C4000F6ECE540FCE6ECE7897EAF208EBF2900602EAF0EBA3F0E4A3F0E4A3F090271096
:2059E400E4F5F0C003C00212674B85826485836585F066F567900602E560F0E561A3F0E5F7
:205A040062A3F0E563A3F0900271E4F5F012674BAC82AD83AEF0FFD002D003C3E5649CE5F5
:205A2400659DE5669EE5679F500A789774012AF2E43B08F278979005F6E2F008E2A3F09000
:205A4400000D12662EE5828583F07895240DF2E435F008F2300534788F7474F27898E2F5CC
:205A6400F018E225E0C5F033C5F0F208E5F0F27897E2FE08E2CE25E0CE33CE25E0CE33FF55
:205A84007895E22EF208E23FF28005788F74F8F27895E2F56008E2C56025E0C56033F561E8
:205AA4007890E560F208E561F27897900602E2F008E2A3F0E4A3F0E4A3F0788FE2FA7B0021
:205AC4007C007D008A828B838CF0ED12674B85826485836585F066F5677895E2F56808E23D
:205AE400F569E4F56AF56BE5682564FCE5693565FDE56A3566FEE56B3567FFEC2CF564EDB9
:205B040033F565EE33F566EF33F567AA60AB61E4FEFFEA2564FAEB3565FBEE3566FEEF356B
:205B240067FFE5682AFCE5693BFDE56A3EFEE56B3FFF789FE2603578A27438F2087401F234
:205B4400784174A8F2087403F208E4F208F27845ECF208EDF208EEF208EFF28C828D838E32
:205B6400F0EF1229B0AC82AD83AEF0FFC374FF9C741F9DE49EE49F50087CFF7D1F7E007FE9
:205B840000C3EC94A8ED9461EE9400EF940040087CA87D617E007F00788BECF208EDF278A8
:205BA40097E2F56808E2F569E4F56AF56BE5682568F568E56933F569E56A33F56AE56B33A6
:205BC400F56BE5682568F568E56933F569E56A33F56AE56B33F56B7895E2F56408E2F565FB
:205BE400E4F566F567E5642568F568E5653569F569E566356AF56AE567356BF56BE5682586
:205C040068F568E56933F569E56A33F56AE56B33F56BE5682568F568E56933F569E56A3380
:205C2400F56AE56B33F56B7890E2F56008E2F561E4F562F563E5602568F568E5613569F504
:205C440069E562356AF56AE563356BF56BE5642568FCE5653569FDE566356AE567356B7845
:205C64008DECF208EDF2785DE27E0024F6FFEE34FFFE9006137402F0E4A3F08F828E8312A7
:205C8400693AAE82AF8378979005F6E2F008E2A3F08E828F8312662EAE82AF837895E22ECB
:205CA400F208E23FF2788B7995E3F5F0C3E295F0FE09E3F5F008E295F0FF789790059BE272
:205CC400F008E2A3F08E828F83125F11AE82AF83788FE2FC7D00C3EC9EED9F50048C068D9F
:205CE400078E8212215378AE74FFF20874FFF2788374FFF20874FFF29005F1E4F09005F25D
:205D04007410F0E4A3F090011575F0001265A29005F1E4F09005F27410F0E4A3F09001050E
:205D240075F0001265A278AB7413F29005997406F0D295C225227890E2C0E008E2C0E078B1
:205D440050E2C0E008E2C0E07443C0E07475C0E07480C0E0122CF4E58124F9F581900001B3
:205D6400125E43788BE2C0E008E2C0E07850E2C0E008E2C0E0745CC0E07475C0E07480C0DC
:205D8400E0122CF4E58124F9F581900001125E43788FE2FE7F00C006C0077850E2C0E0086B
:1E5DA400E2C0E07476C0E07475C0E07480C0E0122CF4E58124F9F581900001025E4359
:20748A005B25755D204C2F5220525353493A2025752F257520204C2F52206E6F6973653A00
:2074AA002025752F25750A005B25755D20706B74733A202575207478653D25752072786556
:2074CA003D2575207374783D2575207372783D2575206563633D25752F25752074656D7060
:2074EA003D25642064636F3D25750A00737461636B20626C6F776E0A007064617461206396
:20750A00616E617279206368616E6765640A00496E76616C6964206C656E6774682E2E206D
:20752A0025750A006F76657273697A65642074646D207061636B6574005B25755D20736977
:20754A006C656E63655F706572696F643A2025750A005B25755D2074785F77696E646F77E5
:20756A005F77696474683A2025750A005B25755D206D61785F646174615F7061636B6574FC
:0D758A005F6C656E6774683A2025750A0015
:205DC200C027C0E0C0F0C082C083C007C006C005C004C003C002C001C000C0D075D000759F
:205DE20091041205CEE56C6002156CD0D0D000D001D002D003D004D005D006D007D083D094
:205E020082D0F0D0E0D02732AE82AF83C3EE94F6EF94094004756CFF2274092EFEE43FFF2B
:205E220090059B740AF0E4A3F08E828F83125F11AE828E6C2285826C22E56CB40100922FFF
:205E420022125E0A125E3B50FB22C027C0E0C0F0C082C083C007C006C005C004C003C00235
:205E6200C001C000C0D075D00075C8047401256DF56DE4356EF56E300703123D14D0D0D029
:205E820000D001D002D003D004D005D006D007D083D082D0F0D0E0D02732AFCDAECCEFB55C
:205EA200CDF88F05E4FFFCEE4207EC42058F828D8322AE6DAF6EC007C006125E9CAC82AD4F
:205EC20083D006D007EEB56DE9EFB56EE5EEC40354F8FF7E00EDC403CCC40354076CCC54F4
:205EE20007CC6CCCFDEC4206ED42078E828F832275A7007592407593B075910443E68075A7
:0F5F0200CA0075CB0075C804D2AD2285CC8222AF
:205F1100AF83E58290059DF0EFA3F090059FE4F0E4A3F090059BE0FEA3E0FF7D1090059D65
:205F3100E0FBA3E0FC339230ECCB25E0CB33FC90059DEBF0ECA3F090059FE0FBA3E0CB253D
:205F5100E0CB33FC90059FEBF0ECA3F030301290059FE0FBA3E0FC90059F74014BF0ECA355
:205F7100F090059FE0FBA3E0FCC3EB9EEC9F401D90059FEBC39EF0EC9FA3F090059DE0FBC3
:1B5F9100A3E0FC90059D74014BF0ECA3F0DD8E90059DE0FEA3E08E82F583226D
:205FAC00AF82AE83ADF0FC9005A5EFF0EEA3F0EDA3F0ECA3F09005A4E0FF7E209005A5E071
:205FCC00FAA3E0FBA3E0FCA3E0FD8F6F7570007571007572009005D2E56FF0E570A3F0E516
:205FEC0071A3F0E572A3F08A828B838CF0EDC007C00612615FAA82AB83D006D00774302AF0
:20600C00FD9005C9F08D04EC24C650079005C974072DF01EEE24A9FCE43405FD9005C9E048
:20602C008C828D83F09005A5E0FAA3E0FBA3E0FCA3E0FD9005DDE56FF0E570A3F0E571A31E
:20604C00F0E572A3F08A828B838CF0EDC007C0061263EDAA82AB83ACF0FDD006D0079005B3
:20606C00A5EAF0EBA3F0ECA3F0EDA3F09005A5E0FAA3E0FBA3E0FCA3E0FDEA4B4C4D600356
:20608C00025FC89005A1E0FCA3E0FDA3E0FFEE24A9F582E43405F583E0FB8C828D838FF078
:2060AC001265E3A3AC82AD830EBE20E28C828D838FF0E40265E3AF82AE83ADF0FC9005CE82
:2060CC00EFF0EEA3F0EDA3F0ECA3F09005CEE0FCA3E0FDA3E0FEA3E0FF30E73F9005CDE0FB
:2060EC00FBBB0A379005CAE0F9A3E0FAA3E0FB89828A838BF0742D1265E39005CA740129DF
:20610C00F0E43AA3F0EBA3F09005CEC3E49CF0E49DA3F0E49EA3F0E49FA3F09005CEE0FC40
:20612C00A3E0FDA3E0FEA3E0FF9005CAE0F9A3E0FAA3E0FB9005CDE0F89005A1E9F0EAA3C7
:13614C00F0EBA3F09005A4E8F08C828D838EF0EF025FAC29
:20615F00AF82AE83ADF0FC9005D6EFF0EEA3F0EDA3F0ECA3F09005DAE4F09005D6E0FCA32E
:20617F00E0FDA3E0FEA3E0FF7B009005D2E0F573A3E0F574A3E0F575A3E0F576235401FABD
:20619F007074C003E5732573F8E57433F9E57533FAE57633FB9005D2E8F0E9A3F0EAA3F084
:2061BF00EBA3F09005D2E0F573A3E0F574A3E0F575A3E0F576C3EC9573ED9574EE9575EF38
:2061DF009576D0035027E576C313F576E57513F575E57413F574E57313F5739005D2F0E5F4
:2061FF0074A3F0E575A3F0E576A3F080090B9005DAEBF00261899005DAE0FF9005D6E0FB40
:20621F00A3E0FCA3E0FDA3E0FE9005D2E0F573A3E0F574A3E0F575A3E0F576C3EB9573ECC7
:20623F009574ED9575EE957640179005D6EBC39573F0EC9574A3F0ED9575A3F0EE9576A330
:20625F00F09005D2E0FBA3E0FCA3E0FDA3E0C313FEED13FDEC13FCEB13FB9005D2F0ECA3C0
:20627F00F0EDA3F0EEA3F08F061FEE708E9005D6E0FCA3E0FDA3E0FEA3E08C828D838EF007
:01629F0022DC
:2062A0001263BFBC0003026B6BEF60FA30D502B2D1E583B4FF03026B81E582B4FF03026BAA
:2062C00081258340072482400B026B6B2483145003026B81F582EA8DF0A4A8F0EA8EF0A463
:2062E00028F8E435F0F9EB8DF0A428E935F0F9E433CA8FF0A429F9EA35F0FAEBF88EF0A40D
:2063000029F9EA35F0FAE433FBEC8DF0A429F9EA35F0FAE43BFBE88FF0A42AFAEB35F0FBB4
:20632000E433CCFD8EF0A42AFAEB35F0FBE43CFCED8FF0A42BFBEC35F0FC20E7031264FB52
:03634000026B4AA3
:20634300900C1CE0FCA3E0FDA3E0FEA3E0FF900602ECF0EDA3F0EEA3F0EFA3F0904E6D756C
:20636300F0C6744112674BAC82AD83AEF0FF900C1C74392CF074303DA3F0E43EA3F0E43F23
:20638300A3F0900C1CE0A3E0A3E0FEA3E0FF8E048F0553057F8C828D8322AF83E5829005DE
:1C63A300DBF0EFA3F09005DBE0FEA3E0FF900C1CEEF0EFA3F0E4A3F0E4A3F02299
:047B970001000000E9
:2063BF00AA82AB83A2F73392D1F5826002D2F7ACF0E58124F9F8E6FD08E6FE0886F008E641
:0E63DF00A2F73392D5F5836002D2F7AFF02219
:2063ED00AF82AE83ADF0FC9005E1EFF0EEA3F0EDA3F0ECA3F09005E5E4F0E4A3F0E4A3F084
:20640D00E4A3F09005DDE0FCA3E0FDA3E0FEA3E0FF7573209005E1E0F8A3E0F9A3E0FAA335
:20642D00E0FB339231E828F8E933F9EA33FAEB33FB9005E1E8F0E9A3F0EAA3F0EBA3F090DC
:20644D0005E5E0F8A3E0F9A3E0FAA3E0FBE828F8E933F9EA33FAEB33FB9005E5E8F0E9A3CB
:20646D00F0EAA3F0EBA3F030311E9005E5E0F8A3E0F9A3E0FAA3E0FB9005E5740148F0E9CC
:20648D00A3F0EAA3F0EBA3F09005E5E0F8A3E0F9A3E0FAA3E0FBC3E89CE99DEA9EEB9F4079
:2064AD00319005E5E8C39CF0E99DA3F0EA9EA3F0EB9FA3F09005E1E0F8A3E0F9A3E0FAA3B2
