:0A04D20078007441F278057464F2BA
:2004E700AF828F06BE08028021BE0D028005BE7F36801775820A124B417801E224BAF5821B
:20050700E43400F583E4F0D201227801E2606A758208124B41758220124B41758208124BA8
:20052700417801E214F2227801E2B4450050448F82C007C0061272C5E582D006D007603974
:200547008F82C007C006127293E582D006D00760055306DF80028F068E077801E2FE7801B0
:2005670004F2EE24BAF582E43400F583EFF08F82024B41C2007801E4F222AF82BF2B02805D
:20058700047804E4F27804C3E2F5F0740495F0402C7804E275F003A49005A3730205C802A9
:2005A70005B20205B20205B90205C87804E22401F22278047404F278057464F2227804E4EF
:2005C700F278057464F2227805E2603B7805E214F27805E270317804E260087804E2B4047E
:2005E70026800678047401F222D2007804E4F29000BA7441F09000BB7454F09000BCE4F00D
:2006070078017402F2D20122E5812404F5817C007D007E007F007802E224BAF582E434003A
:20062700F583E0FBF582C007C006C005C004C003126E10E582D003D004D005D006D0076090
:200647006D900678ECF0EDA3F0EEA3F0EFA3F090000AE4F5F0C003126F91AF82AE83ADF082
:20066700FCD0038B027B00EA24D0FAEB34FFFBE58124FDF8A60208A603EB3395E008F6083A
:20068700F6E58124FDF8E62FF608E63EF608E63DF608E63CF6E58124FDF8860408860508CC
:2006A70086060886077802E22401F202061D8C828D838EF0EFC8E58124FCF581C822200120
:2006C70001227801E2B40200E433FF600302074E9000BAE0FEBE526F9000BBE0FEBE5467C6
:2006E70078027403F278017902C3E2F5F0E395F0501B7802E224BAF582E43400F583E0FEA0
:20070700BE2C0280087802E22401F280D87802E224BAF582E43400F583E0FEBE2C1C7802F4
:20072700E2FE780204F2EE24BAF582E43400F583E4F012060F1254A0800690FFFF1254A074
:200747007801E4F2C20122EF70699000BAE0FFBF41619000BBE0FFBF54599000BCE0FF60EB
:2007670023BF26028023BF2B028023BF49028023BF4F028028BF5002801EBF53028027BFA8
:200787005A2E80271207C1802A120A0F8025120C5280201207FF801B120AEA80167805747F
:2007A70064F2C200800D12097E800843EF1080FE1207E07801E4F2C201227850E2C0E0082D
:2007C700E2C0E07443C0E07475C0E07480C0E012359DE58124FBF581227850E2C0E008E2E7
:2007E700C0E0744CC0E07475C0E07480C0E012359DE58124FBF581229000BDE0FF6037BF52
:2008070030028032BF31028058BF3203020893BF33030208B9BF34030208E2BF35030209F6
:200827000BBF360302091DBF3703020920BF380302092302097B74D9C0E07477C0E0748048
:20084700C0E07850E2C0E008E2C0E07458C0E07475C0E07480C0E012359DE58124F8F581B8
:200867002274EFC0E07477C0E07480C0E07850E2C0E008E2C0E07458C0E07475C0E0748070
:20088700C0E012359DE58124F8F581227481C0E0E4C0E07850E2C0E008E2C0E07461C0E051
:2008A7007475C0E07480C0E012359DE58124F9F581227809E2FE7F00C006C0077850E2C03E
:2008C700E008E2C0E07461C0E07475C0E07480C0E012359DE58124F9F58122780AE2FE7F35
:2008E70000C006C0077850E2C0E008E2C0E07461C0E07475C0E07480C0E012359DE5812490
:20090700F9F581227F008F82C007122BD6D0070FBF130040F122026580024BEA7850E2F50D
:20092700F008E245F070207850E2C0E008E2C0E0746AC0E07475C0E07480C0E012359DE5D9
:200947008124FBF581802C1261729202E433FE7F00C006C0077850E2C0E008E2C0E0747B71
:20096700C0E07475C0E07480C0E012359DE58124F9F581220207E078027403F212060FAC15
:2009870082AD83AEF0FFBC130040030207E07802E224BAF582E43400F583E0FFBF3D028068
:2009A70036BF3F618C821227B7AB82AD83AEF0FFC003C005C006C0077850E2C0E008E2C09A
:2009C700E0748AC0E07475C0E07480C0E012359DE58124F7F58122EC602B7802E22401F28E
:2009E700C00412060FAB82AD83AEF0FFD004783DEBF208EDF208EEF208EFF28C821225C5E3
:200A070050030207C10207E09000BDE0FFBF46028012BF54028053BF55028014BF570280DA
:200A270009020AE7122AA40207C1122A3B0207C190066E7494F07475A3F07480A3F0900039
:200A4700BE75F000126E94E5828583F045F0701775B7A575B7F1758F0390F7FE74FFF075EB
:200A67008F0043EF1080FE0207E090066E749AF07475A3F07480A3F09000BE75F000126EFF
:200A870094E5828583F045F070057803E4F22290066E749BF07475A3F07480A3F09000BEEB
:200AA70075F000126E94E5828583F045F070077803E26401F22290066E74A1F07475A3F050
:200AC7007480A3F09000BE75F000126E94E5828583F045F070077803E26402F2220207E0F6
:200AE7000207E09000BDE0FFBF50028003020B957F008F057E00C007C005C0067850E2C057
:200B0700E008E2C0E074A6C0E07475C0E07480C0E012359DE58124F9F581D0078F82C00701
:200B2700122FE6D007501BC00774B3C0E07475C0E07480C0E012359D158115811581D0071D
:200B47008019C00774BBC0E07475C0E07480C0E012359D158115811581D0078F82C00712DB
:200B6700319E9203E433FD7E00C005C00674C3C0E07475C0E07480C0E012359DE58124FB90
:200B8700F581D0070FBF02005003020AF9229000BEE0FFBF3D0D9000BFE0F582126E10E566
:200BA7008270030207E09000BFE024D0FF9000BDE0FEBE4302805EBE49028016BE4F0280F4
:200BC70008BE52028015020C4CD2108F82122D258076C2108F82122D25806D8F82C007129A
:200BE7002FE6D007402C8F821231BDAE827D00C006C0057850E2C0E008E2C0E074CCC0E099
:200C07007475C0E07480C0E012359DE58124F9F581220207E09000C1E0F582C007126E10C9
:200C2700E582D007601C9000C1E0FE3395E0FDEE24D0FEED34FF4E24FF92128F82123004B3
:200C470040060207E00207E00207C178027404F212060F9000BDE0FFBF41349000BEE0FF13
:200C6700BF3D2C78027405F212060FAC82AD83AEF0FFBC0111BD000EBE000BBF000875821E
:120C8700021241DF80067582031241DF0207C10207E0C2
:207543005B25755D204F4B0A005B25755D204552524F520A005B25755D2025730A005B2578
:20756300755D2025750A005B25755D2053796E633A20426173650A005B25755D2053796ED8
:20758300633A2025750A005B25755D20256C750A00504441544500003D52535349003D5488
:2075A300444D005B25755D2050696E3A256420004F75747075742000496E707574202000BA
:1675C30056616C3A2025750A005B25755D2076616C3A25750A00FE
:200C9900AF827E007D00AB08AC098F021FEA603B8B828C83E0FAA3AB82AC83ED2DF9ED304D
:200CB900E714890009E89076D9936EFDE99076D993F86AFE80D4890009E89075D993F86E69
:1B0CD900FDE99075D993F96AFE80BF8D07E4FDFCEE4205EC42078D828F8322EB
:2075D9000000102120423063408450A560C670E781089129A14AB16BC18CD1ADE1CEF1EF92
:2075F900123102103273225252B5429472F762D693398318B37BA35AD3BDC39CF3FFE3DE52
:20761900246234430420140164E674C744A45485A56AB54B85289509E5EEF5CFC5ACD58D11
:20763900365326721611063076D766F6569546B4B75BA77A97198738F7DFE7FED79DC7BCD1
:2076590048C458E5688678A70840186128023823C9CCD9EDE98EF9AF89489969A90AB92B91
:207679005AF54AD47AB76A961A710A503A332A12DBFDCBDCFBBFEB9E9B798B58BB3BAB1A51
:207699006CA67C874CE45CC52C223C030C601C41EDAEFD8FCDECDDCDAD2ABD0B8D689D4911
:2076B9007E976EB65ED54EF43E132E321E510E70FF9FEFBEDFDDCFFCBF1BAF3A9F598F78D1
:2076D900918881A9B1CAA1EBD10CC12DF14EE16F108000A130C220E3500440257046606791
:2076F90083B99398A3FBB3DAC33DD31CE37FF35E02B1129022F332D2423552146277725651
:20771900B5EAA5CB95A88589F56EE54FD52CC50D34E224C314A00481746664475424440510
:20773900A7DBB7FA879997B8E75FF77EC71DD73C26D336F2069116B06657767646155634D0
:20775900D94CC96DF90EE92F99C889E9B98AA9AB584448657806682718C008E1388228A390
:20777900CB7DDB5CEB3FFB1E8BF99BD8ABBBBB9A4A755A546A377A160AF11AD02AB33A9250
:20779900FD2EED0FDD6CCD4DBDAAAD8B9DE88DC97C266C075C644C453CA22C831CE00CC110
:2077B900EF1FFF3ECF5DDF7CAF9BBFBA8FD99FF86E177E364E555E742E933EB20ED11EF0D0
:200CF40075B7A575B7F122D310AF01C3C0D0AF8474035F4430F584C007120CF4D007758F40
:200D14000390F80074FFF0758F008F84D0D092AF22D310AF01C3C0D0AE82AF83AD847403C7
:200D34005D4430F584758F004307F88E828F83E493FF758F008D848F82D0D092AF22D3106B
:200D5400AF01C3C0D0AE82AF83AD8474035D4430F584C007C006C005120CF4D005D006D049
:190D740007758F054307F88E828F837806E2F08D84758F00D0D092AF228A
:02F7FE003DC20A
:200D8D00AF83E582900133F0EFA3F0900133E0FEA3E0FF900132E0FD7C008D027B001ABA59
:200DAD00FF011B8C007900C3E89AE964808BF063F08095F05046C007C006C005C004126BF8
:200DCD0089AA82D004D005D006D0078DF0EA84E5F02EFAE43FFB8A828B83E0F50AC005EC4B
:200DED002EF8E43FFD88828D83E0F98A828B83F088828D83E50AF00CD005809E22AF83E572
:200E0D0082900135F0EFA3F07F007807C3E2F5F0EF95F0500FEF2400F582E43401F583EFA6
:200E2D00F00F80E6900135E0FEA3E0FF8E828F83126BE37807E2FF7E008F047D001CBCFFD3
:200E4D00011D8E027B00C3EA9CEB64808DF063F08095F05042C007C006126B89AC82D00646
:200E6D00D0078FF0EC84E5F02400FCE43401FD8C828D83E0F50BC007EE2400FAE43401FFAB
:200E8D008A828F83E0FB8C828D83F08A828F83E50BF00ED00780A2227808E22400F582E436
:200EAD003401F583E0F582227807E2F5F0E484E5F02400F582E43401F583E0F58222780857
:200ECD00E2F58222E582900139F07808F2227808E2FE7F000EBE00010F7807900674E2F0BF
:200EED00E4A3F08E828F83126F28AE82AF837808EEF220040C78077908E2F5F0E484E5F0AD
:070F0D00F322A20592042269
:06040000020479024280B3
:01040B0032BE
:0104130032B6
:01041B0032AE
:030423000243C6CB
:03042B00026692D4
:010433003296
:01043B00328E
:010443003286
:01044B00327E
:010453003276
:01045B00326E
:010463003266
:01046B00325E
:0304730002660816
:0304E40002047699
:03047600020F145E
:200F1400758433AFC47809EFF2AFC3780AEFF2120FE412294A4003122AA47582011227B752
:200F3400AC828C821245811210777582061227B7AC8290015AECF07582071227B7AC82AD45
:200F540083AEF0FFEC4D4E4F24FF92077582051227B7AC82AD83AEF0FFEC4D4E4F24FF9259
:200F74000675820E1227B7AC82AD83AEF0FFEC4D4E4F24FF9208123951401574F3C0E07468
:200F940077C0E07480C0E0120FAA158115811581122CD602558D90780D75F0801272DEE5CC
:200FB4008124FCFFC007E58124FBF886820886830886F0123315158190781875F080127229
:200FD400DED2AFD2AC9003E812668943EF1080FE75A700AFD974BF5FF5D943B28075A9004D
:200FF40075B64075FF807E5E7F011EBEFF011FEE4F70F775EF0675D4CF75D5FF75D62875D0
:20101400A41075A70F75A41075A70075E10143E24143A6FD75A70F43A5F575A6FD43B1C021
:2010340043A1C043A50143A50143FA2043A32075A70275A14075F80075A20043F801D2A31A
:2010540075A700C28912673875B800D2AFD2B7C2B6D2EF75BCF975BA0075BB1B75D107758E
:20107400E3402212399040157419C0E07478C0E07480C0E0120FAA1581158115817809E2AA
:20109400B44302801C7809E2B4470280437809E2B48602806A7809E2B491030211400211EA
:2010B4006D78177490F20874D1F20874CFF2087419F2781B7470F208745EF20874EAF20892
:2010D4007419F27823740AF27807740AF20211A478177480F20874A1F2087403F208741C3F
:2010F400F2781B74C0F20874E3F2087412F208741CF27823740AF27807740AF20211A478AD
:2011140017E4F20874A1F20874BCF2087433F2781B7440F20874E3F20874CBF2087433F290
:201134007823740AF27807740AF28064781774C0F20874CAF2087489F2087436F2781BE4BE
:20115400F2087428F2087450F2087437F278237414F278077432F280377817E4F208F20846
:20117400F208F2781BE4F208F208F208F27823E4F27809E2FA7B00C002C0037431C0E07491
:2011940078C0E07480C0E0120FAAE58124FBF58175820A1227B7AA82AB83AEF0FFEA4B4E5E
:2011B4004F601175820A1227B7AC82AD83AEF0FF7807ECF27582081227B7AC82AD83AEF027
:2011D400FFEC4D4E4F60377582081227B7AC82AD83AEF0FF900678ECF0EDA3F0EEA3F0EFCB
:2011F400A3F09003E8E4F5F0126F917817C0E0E582F208E583F208E5F0F2D0E008F2758298
:20121400091227B7AC82AD83AEF0FFEC4D4E4F60377582091227B7AC82AD83AEF0FF9006D8
:2012340078ECF0EDA3F0EEA3F0EFA3F09003E8E4F5F0126F91781BC0E0E582F208E583F27F
:2012540008E5F0F2D0E008F27582041227B7AC82AD83AEF0FFEC4D4E4F60117582041227A0
:20127400B7AC82AD83AEF0FF7823ECF27823E2FB7D007E007F007841E4F208F208F208F2C0
:2012940078457414F208E4F208F208F28B828D838EF0EF122C7DAC827823ECF27807E2FCE8
:2012B4007D007E007F0078417401F208E4F208F208F278457432F208E4F208F208F28C8279
:2012D4008D838EF0EF122C7DAC82AD83AEF0FF7807ECF27809E2B44302801E7809E2B44712
:2012F4000302139C7809E2B4860302142D7809E2B491030214BE02154C78417480F2087446
:2013140023F20874ADF2087418F27845E4F208740BF208746BF208741BF27817E2F58208A5
:20133400E2F58308E2F5F008E2122C7D7817C0E0E582F208E583F208E5F0F2D0E008F278F0
:20135400417480F2087423F20874ADF2087418F27845E4F208740BF208746BF208741BF2B2
:20137400781BE2F58208E2F58308E2F5F008E2122C7D781BC0E0E582F208E583F208E5F0CC
:20139400F2D0E008F202156B78417480F2087474F20874D2F208741AF278457480F20874B3
:2013B400CEF2087434F208741DF27817E2F58208E2F58308E2F5F008E2122C7D7817C0E03F
:2013D400E582F208E583F208E5F0F2D0E008F278417480F2087474F20874D2F208741AF27C
:2013F40078457480F20874CEF2087434F208741DF2781BE2F58208E2F58308E2F5F008E2C6
:20141400122C7D781BC0E0E582F208E583F208E5F0F2D0E008F202156B78417440F2087439
:20143400B6F208749AF2087432F278457440F2087410F20874FDF2087434F27817E2F58272
:2014540008E2F58308E2F5F008E2122C7D7817C0E0E582F208E583F208E5F0F2D0E008F23F
:2014740078417440F20874B6F208749AF2087432F278457440F2087410F20874FDF2087465
:2014940034F2781BE2F58208E2F58308E2F5F008E2122C7D781BC0E0E582F208E583F2085A
:2014B400E5F0F2D0E008F202156B7841E4F20874A1F20874BCF2087433F2784574C0F208D1
:2014D40074F7F20874BAF2087437F27817E2F58208E2F58308E2F5F008E2122C7D7817C0C1
:2014F400E0E582F208E583F208E5F0F2D0E008F27841E4F20874A1F20874BCF2087433F25B
:20151400784574C0F20874F7F20874BAF2087437F2781BE2F58208E2F58308E2F5F008E29B
:20153400122C7D781BC0E0E582F208E583F208E5F0F2D0E008F2801F7809E2FE7F00C00630
:20155400C0077431C0E07478C0E07480C0E0120FAAE58124FBF581781B7917E2F5F0E3B503
:20157400F01D08E2F5F009E3B5F01408E2F5F009E3B5F00B08E2F5F009E3B5F00280028007
:201594001A7817791BE22440F308E2344209F308E2340F09F308E2340009F375820B1227E7
:2015B400B7AC82789BECF27F007E007D007841E4F208F208F208F278457464F208E4F208DD
:2015D400F208F28C828F838EF0ED122C7DAC82789BECF2783DECF208E4F208F208F275824A
:2015F4000B1225C575820C1227B7AC82AD83AEF0FF789FECF2EC60337F007E007D0078413B
:201614007419F208E4F208F208F2784574DCF208E4F208F208F28C828F838EF0ED122C7D4E
:20163400AC82AD83AEF0FF789FECF2789F793DE2F309E4F309F309F375820C1225C5900697
:201654005374E8F07403A3F0E4A3F0E4A3F07817E2F58208E2F58308E2F5F008E2126C332B
:20167400AC82AD83AEF0FF783DECF208EDF208EEF208EFF27582081225C590065374E8F0E0
:201694007403A3F0E4A3F0E4A3F0781BE2F58208E2F58308E2F5F008E2126C33AC82AD8328
:2016B400AEF0FF783DECF208EDF208EEF208EFF27582091225C57807793DE2F309E4F3093F
:2016D400F309F375820A1225C5781B7917E3F5F0C3E295F0FC09E3F5F008E295F0FD09E3D0
:2016F400F5F008E295F0FE09E3F5F008E295F0FF7807E2FA7B0074022AFAE43BFB900653D2
:20171400EAF0EBA3F0EB3395E0A3F0A3F08C828D838EF0EF126C33781FC0E0E582F208E5EB
:2017340083F208E5F0F2D0E008F27822E2C313FF18E213FE18E213FB18E213FA7817E22AA1
:20175400F208E23BF208E23EF208E23FF27582031227B7126BE37807C3E2F5F0740595F0E6
:201774005054126B89AE82AF8390066CEEF0EFA3F0900271126E74AE82E583FF3395E0FDB4
:20179400FC781F900648E2F008E2A3F008E2A3F008E2A3F08E828F838DF0EC1269A5AC82A2
:2017B400AD83AEF0FF7817E22CF208E23DF208E23EF208E23FF27817E2F58208E2F5830819
:2017D400E2F5F008E21239C7781FE2F58208E2F58308E2F5F008E2123A037582031227B7EE
:2017F400AC82AD83AEF0FF7807900648E2F0E4A3F0E4A3F0E4A3F08C828D838EF0EF126940
:20181400A5AC828C82123A527582021227B7AC828C82123A7C40337582021227B7AC828C32
:2018340082123A7C40247582021227B7AC828C82123A7C40157448C0E07478C0E07480C008
:20185400E0120FAA1581158115811236BAAF82783DEFF208E4F208F208F27582021225C577
:201874007582031227B7123D7F75820F1227B7123DD67582121227B7126175758210122760
:20189400B71261847582111227B7AC828C821261907823E2F582123D39123D79AF82783D25
:1B18B400EFF208E4F208F208F27582041225C57582031227B7120E0A02619761
:2077D9004D502053694B20322E36206F6E205246443930305500322E36006661696C656434
:2077F90020746F20656E61626C65207265636569766572000A2A2A50414E49432A2A000054
:20781900726164696F5F696E697469616C697365206661696C65640062616420626F617246
:2078390064206672657175656E637920256400726164696F5F636F6E66696775726520667A
:0678590061696C6564002A
:2018CF00AF829004CEE0F5737CFF7DFF900357E0FBBB01047B0680027B0AEB2573FA7826FF
:2018EF00F2EA24CDF582E43404F583EFF07826E22401F278257401F278257926C3E3F5F0C0
:20190F00E295F05062C0037825E224CDF582E43404F583E0FA8C75757600E575F5776AF576
:20192F0074C454F062748D78757900AA747B008A077E00E5786206E5796207EBC40354F821
:20194F00CAC403CA6ACA54F8CA6AFBEA6206EB6207E574C4540F7A006EFCEA6FFD7825E28F
:20196F002401F2D0038091EB2573FB24CDF582E43404F5838C06EEF0EB0424CDF582E43404
:20198F0004F5838D04ECF022900357E0FFBF010890015E7411F08011BF020890015E741566
:2019AF00F0800690015E7422F0124795AE82AF8390015EE0FDFB7C00C3EE9BEF9C5002C3AE
:2019CF0022900357E0FFBF013A90015B74D3F07404A3F0E4A3F09004CD74FEF09004CE74D5
:2019EF0009F07824E2FF782404F29004CFEFF09004D07433F09004D17444F09004D2746D3F
:201A0F00F0806190015B74D7F07404A3F0E4A3F09004CD74FDF09004CE7409F09004CFE465
:201A2F00F09004D0F07824E2FF782404F29004D1EFF09004D27433F09004D37444F0900361
:201A4F0057E0FFBF030E9004D4742CF09004D57401F0800B9004D4746DF09004D5E4F0901A
:201A6F0004D6E4F0900357E0FFBF03028003021B16C0057ED77F047C0074022EFAE43FFB91
:201A8F008C058A828B838DF07401126E29A3E4126E2974042EFAE43FFB8C058A828B838DCB
:201AAF00F07402126E29A3E4126E2974062EFAE43FFB8C05900667E4F09006687408F0E468
:201ACF00A3F08A828B838DF0C007C006C005C004126DE8D004D005D006D007740E2EFEE468
:201AEF003FFF900667E4F09006687408F0E4A3F08E828F838CF0C005126DE87582D9121823
:201B0F00CFD005D0058075C00590015BE0FCA3E0FEA3E0FF780BE2FA08E2FB8C828E838FC6
:201B2F00F0EA126E29A3EB126E2974022CF50CE43EF50D8F0E7815E2FB08E2FD850C82858F
:201B4F000D83850EF0EB126E29A3ED126E2974062CFCE43EFEC007C006C004124B11AD82E6
:201B6F00D004D006D0078C828E838FF0ED126E297582B9C0051218CFD005D005787EEDF2B4
:081B8F009004CD124676D3222A
:201B9700AE82AF83E0FDBDFE1E8E828F83A3E0FDBD091474052EFEE43FFF8E828F83E07061
:201BB700069003577401F022E5827831F2124AB97832E582F208E583F27B007C0078347404
:201BD700FFF20874FFF27832C3E2940808E294005003021CB88B828C83C004C003124908F8
:201BF700858228D003D00474FEB528028003021CB874012BFEE43CFF8E828F83C004C003E8
:201C1700124908858228D003D004740925285003021CB8C003C004AD287E0074082DFAE420
:201C37003EFC7831E2F529752A007827E2FB7F00E529C39BFBE52A9FFFC3EB9AEF64808C55
:201C5700F063F08095F0D004D003405574082DFDE43EFE7832C3E29D08E29E404474062B86
:201C7700FEE43CFF8E828F83C004C003124908AF82D003D004BF460C7412B528077834EB3A
:201C9700F208ECF274082528F528AA287F007832E2C39AF208E29FF2EA2BFBEF3CFC021B74
:201CB700DD7834E2F58208E2F58322E582900358F0E4F52DF52E782B797FE2F390025B12CD
:201CD7004940782BE2FD7827F27836E2FA08E2FB7C0090065F745BF07402A3F0E4A3F090A2
:201CF7000662EDF0E4A3F08A828B838CF0126D74782BE4F27836E2F58208E2F583121B97E2
:201D170090015AE0FDBD020F900358E0F582121BBFAC82AD8380047CFF7DFF8C2F8D301285
:201D37004AB985822B85832C900358E0F53474FFB52F0974FFB5300474018001E4FCC3E5F5
:201D57002B9408E52C94005003021E95C0041248B1858231D00474FEB5310280067827E2BC
:201D7700F58222C0041248CD858231D004740925315003021E95C004853132753300740811
:201D97002532FBE43533FEAA347F007827E2FC7D00EAC39CFAEF9DFFC3EA9BEF64808EF0D2
:201DB70063F08095F0D0045003021E9574082532FEE43533FFC3E52B9EE52C9F5003021E28
:201DD70095EC7028E52DB52F07E52EB53002801C900006C004124908AF82D004BF460D74F8
:201DF70012B5310874082531F531807074082531F5317827E2245BFEE43402FF787FE531C8
:201E1700F28E828F83C00412494078367927E3C5F0E225F0FE08E23400FF7D007827E2241E
:201E37005BFAE43402FB90065FEAF0EBA3F0E4A3F0900662E531F0E4A3F08E828F838DF049
:201E5700126D7478367927E3C5F0E225F0FE08E23400FF8E828F83121B97D0047827E22520
:201E770031F2AE317F00E52BC39EF52BE52C9FF52CEE252DF52DEF352EF52E021D5578277E
:201E9700E2F58222858235124AB9858236858337200C163007652009627827E2605DC3E594
:201EB700369420E537940050527827C3E2F5F0E53595F050087827E4F275820022D209C284
:201ED7000C7838E2FA08E2FB7C0090065F745BF07402A3F0E4A3F07827900662E2F0E4A3CE
:201EF700F08A828B838CF0126D747827E2F5367537007827E4F2AB368B8222C209200D037A
:201F1700021FCB7827E2FB7C008B368C37853538753900C3E5389536E539953750657838A8
:201F3700E2FA08E2FE7F0090065F745BF07402A3F0E4A3F0900662E538F0E539A3F08A8251
:201F57008E838FF0126D74E535245BFEE43402FF90065FEEF0EFA3F0E4A3F0AE357F009079
:201F77000662E536C39EF0E5379FA3F090025B75F000126D74E536C395357827F2D20A8549
:201F97003582227838E2FD08E2FE7F0090065F745BF07402A3F0E4A3F0900662EBF0ECA3C5
:201FB700F08D828E838FF0126D74C20DD20A7827E2F58222C20AAE357F00C3EE9536EF9595
:201FD7003750048E368F377827E4F2E53645377003F5822290015AE0FF7053E53645376039
:201FF70043AD36787FEDF27838E2F58208E2F583C005124940D005502B783890065FE2F03C
:2020170008E2A3F0E4A3F0900662E536F0E537A3F090025B75F000C005126D74D005782785
:20203700EDF280047827E4F27827E2F58222782BE2B4010280030220DA7401B53606E4B5DD
:202057003702800280791266FAAE82AF83782CD3E29EF4B3FEB308E29FF4FF782EC3E29E2D
:2020770008E29F50567827E2FF782704F2EF245BFFE43402FEC007C0061247FCAD82D00699
:20209700D0078F828E83EDF07838E2FD08E2FE7F0090065F745BF07402A3F0E4A3F078278A
:2020B700900662E2F0E4A3F08D828E838FF0126D74782BE4F27827E2F58222758200227812
:2020D7002BE4F2782BE27003022169782BE2FE7F00C3E5369EE5379F50681266FAAE82AF22
:2020F70083782CD3E29EF4B3FEB308E29FF4FF782EC3E29E08E29F5045AD36787FEDF2902B
:20211700025BC005124940D0057827EDF27838E2FC08E2FE7F0090065F745BF07402A3F0E6
:20213700E4A3F0900662EDF0E4A3F08C828E838FF0126D74782BE4F27827E2F582227582AA
:20215700002278387936E2F308E209F3853582021CC2E5364537700302230A1248B1AF829B
:20217700BFFE0280030222DB7401B53606E4B537028002802E7827E2600302230A782B7475
:2021970001F21266FAE5828583F0782CF208E5F0F27829E2FE08E2FF782EEEF208EFF275B1
:2021B7008200221248CDAF82782BEFF2BFF70050208F057E0074082DFDE43EFE7830E2FB05
:2021D7007C00C3EB9DEC64808EF063F08095F05033782BE4F27827E2FE782704F2EE245BFE
:2021F700FEE43402FDC006C0051247FCAC82D005D0068E828D83ECF0153674FFB53602153E
:202217003702216974082FFF782BF27827E260627838E2FC08E2FD7E0090065F745BF07447
:2022370002A3F0E4A3F07827900662E2F0E4A3F08C828D838EF0126D741266FAE58285832B
:20225700F0782CF208E5F0F2782BE2FD7E00782990066CE2F008E2A3F08D828E83126E740C
:20227700E5828583F0782EF208E5F0F27827E2F582227E00C3E5369FE5379E50371266FAB9
:20229700E5828583F0782CF208E5F0F2782BE2FE7F00782990066CE2F008E2A3F08E828FD0
:2022B70083126E74E5828583F0782EF208E5F0F27582002278387936E2F308E209F38535DD
:2022D70082021CC27827E2FF782704F2EF245BFFE43402FEC007C0061247FCAD82D006D034
:2022F700078F828E83EDF0153674FFB5360215370221697838E2FD08E2FE7F0090065F74DF
:202317005BF07402A3F0E4A3F07827900662E2F0E4A3F08D828E838FF0126D747827E2F5F3
:202337008222A20922A20A22D20C22E582900359F07830F222AF83E58290035AF0EFA3F050
:2023570090035AE0FEA3E0FF900653EEF0EFA3F0E4A3F0E4A3F090000075F001E4126C3357
:20237700AC82AD83AEF0FF0CBC00090DBD00050EBE00010F7829ECF208EDF222E58290034D
:202397005CF0200E39783AE2FD08E2FE7F0090035CE0FCFA7B0090065FEDF0EEA3F0EFA356
:2023B700F0900662EAF0EBA3F090015F75F000C004126D74D0047828ECF2C20BC322200B8B
:2023D7003790035CE0FF7828E2B5072C783A900681E2F008E2A3F0E4A3F0900684EFF0E40B
:2023F700A3F090015F75F0001270AAE5828583F045F07004C20BD322D20BC322AF82BF1323
:202417000050259003BD74FCF090025BC0071232E4D0078F82122BD612330DAF827827EF98
:20243700F2EF6004C209D20D22D2019003BD74FCF090025B1232E41206C512330DAF827804
:2024570027EFF2EF6004C209D20D22AE82AF83783CC3E2F5F074FC95F05005783C74FCF23E
:2024770090065FEEF0EFA3F0E4A3F0783C900662E2F0E4A3F090025B75F000126D74783C8B
:09249700E27827F2C209D20D22FD
:2024A000AF82BF1300400122EF24ED50030225C3EF240A83F582EF241783F583E473E4E61C
:2024C000F005071C331EC3C3C3C3C3C3C380481E9E24242425252525252525252525252592
:2024E00025252525C322AF0F8F82124B55920F22C3E4950F74019510E49511E49512400362
:202500000225C3C322D322C37414950FE49510E49511E4951240030225C3C322C322C3743C
:2025200001950FE49510E49511E4951240030225C3C322C37402950FE49510E49511E495DD
:202540001240030225C3C32274FFB50F0F74FFB5100AE4B51106E4B5120280028002D32279
:20256000900399E0FCA3E0FDA3E0FEA3E0FFECB50F0EEDB5100AEEB51106EFB51202C322FF
:202580009003A5E0FCA3E0FDA3E0FEA3E0FFC3E50F9CE5109DE5119EE5129F402622C3E565
:2025A0000F9402E5109400E5119400E51294005012C3E4950F74809510E49511E49512502D
:2025C00002C322D322AF82783DE2F50F08E2F51008E2F51108E2F5128F82C0071224A0D005
:2025E00007400122EF24ED5003022796EF240A83F582EF241783F583E473969696962096BE
:20260000E4FA9696963F8696244E768A62272727272627262627272726262727272727270B
:20262000783DE2F582C007123D39123D79AE82D007783DEEF208E4F208F208F202279678D0
:2026400041E4F208F208F208F278457464F208E4F208F208F2783DE2F58208E2F58308E2C2
:20266000F5F008E2C007122C7DAB82AC83ADF0FED007783DEBF208ECF208EDF208EEF2787C
:202680009BEBF2022796783DE2F5F008E242F008E242F008E245F0604278417419F208E46A
:2026A000F208F208F2784574DCF208E4F208F208F2783DE2F58208E2F58308E2F5F008E23A
:2026C000C007122C7DAB82AC83ADF0FED007783DEBF208ECF208EDF208EEF2783D799FE2B4
:2026E000F3022796783DE2FE90015AF0783DEEF208E4F208F208F2022796783DE2F5F0080E
:20270000E242F008E242F008E245F024FF920750047E0180027E00783DEEF208E4F208F26E
:2027200008F28072783DE2F5F008E242F008E242F008E245F024FF920850047E0180027E4A
:2027400000783DEEF208E4F208F208F28048783DE2FD08E2FE8D828E83C007123DD6D007EB
:202760008034783DE2FD08E2FE8D828E83C007126175D0078020783DE2FD08E2FE8D828ECA
:2027800083C007126184D007800C783DE2F582C007126190D007EF75F004A4245DF582747E
:2027A0000335F0F583783DE2F008E2A3F008E2A3F008E2A3F0D322AF82BF130040079000AC
:2027C00000E4F5F022EF75F004A4245DF582740335F0F583E0FCA3E0FDA3E0FEA3E08C8298
:2027E0008D838EF0228582138583149003B5E0FCA3E0FD9003B7E0FB8C018D028B007F0004
:20280000E82CF8EF3DFFC3E998EA9F5041E9C39CFEEA9DFFEE2513FEEF3514FF89828A83E4
:20282000C007C006C005C004C003C002C001120D25A882D001D002D003D004D005D006D009
:20284000078E828F83E8F009B900B10A80AE8513088514098B82C002C001120C99AE82AF64
:2028600083D001D002740129FCE43AFD8C828D83C007C006C002C001120D25AD82D001D03B
:20288000028D047D0089828A83C005C004120D25AB82D004D005D006D0077A00EB4205EA2A
:2028A0004204EEB50506EFB504028002C322D3228582158583169003B8E0FCA3E0FD9003AA
:2028C000BAE0FB8C178D188B027F00EA2CFAEF3DFFC3E5179AE5189F5036E517C39CFEE51B
:2028E000189DFFEE2515F582EF3516F5837806E0F2851782851883C005C004C003120D5288
:20290000D003D004D0050517E4B517BB051880B78515088516098B82120C99AE82AF838E66
:20292000047806ECF2851782851883C007C006120D52D006D00774012517FCE43518FD78FB
:2029400006EFF28C828D83020D52D310AF01C3C0D0122AA4900000120D25E582FF24B340FA
:2029600005BF30005004C3022A347D5D7E039003B57401F0E4A3F09003B7EFF08D828E8324
:202980001227E54003022A347582001227B7AC82AD83AEF0FFBC1B0BBD0008BE0005BF006B
:2029A000028004C3022A347F00EF75F004A4245DFD740335F0FE8D828E83E0F50FA3E0F55F
:2029C00010A3E0F511A3E0F5128F82C007C006C0051224A0D005D006D0074032EF75F0074C
:2029E000A4245FFB747835F0FC8B828C83A3A3A3E493F9A3E493FAA3E493FBA3E493FC8D67
:202A0000828E83E9F0EAA3F0EBA3F0ECA3F00FBF4C0040957EA97F039003B57401F0740116
:202A2000A3F09003B7740CF08E828F831227E540028001D333D0D092AF1322D310AF01C3D4
:202A4000C0D090035D741BF0E4A3F0E4A3F0E4A3F0120CFB7806744CF2900000120D527E4A
:202A60005D7F039003B87401F0E4A3F09003BA744CF08E828F831228B07806740CF29001C6
:202A800000120D527EA97F039003B87401F07401A3F09003BA740CF08E828F831228B0D0CB
:202AA000D092AF227F00EF75F004A4245DFD740335F0FEEF75F007A4245FFB747835F0FCC6
:202AC0008B828C83A3A3A3E493F9A3E493FAA3E493FBA3E493FC8D828E83E9F0EAA3F0EBE1
:202AE000A3F0ECA3F00FBF130040BB7F00EF75F006A4FDAEF024A9FBEE3403FC9078E4E417
:202B000093F573A3E493F574A3E493F575A3E493F5768B828C83E573F0E574A3F0E575A3E1
:202B2000F0E576A3F0ED24A9FDEE3403FE74042DFBE43EFC9078E8E493540F8B828C8354E5
:202B40000FF5F0E054F045F0F074042DFBE43EFC9078E8E493C4540FFA8B828C83C454F0CE
:202B6000F5F0E0540F45F0F074052DFDE43EFE9078E9E493FC8D828E83F00FBF02005003AE
:202B8000022AED22AF827E008F037C007D40EE75F007A4245FF582747835F0F583E493F890
:202BA000A3E493F9A3E493FA90066EE8F0E9A3F0EAA3F08B828C838DF0C007C006126E94DF
:202BC000E5828583F0D006D00745F060060EBE130040B58E822285821974ED2519406EE5F6
:202BE0001975F004A4245DF582740335F0F583E0F51AA3E0F51BA3E0F51CA3E0F51DE519FA
:202C000075F007A4245FF582747835F0F583E493FAA3E493FEA3E493FFAC197D00C01AC0A3
:202C20001BC01CC01DC002C006C007C004C0057850E2C0E008E2C0E074EAC0E07478C0E08A
:202C40007480C0E012359DE58124F2F58122AF82BF13005021EF75F007A4245FF58274788F
:202C600035F0F583E493FDA3E493FEA3E493FF8D828E838FF02290000075F00022AC82AD5F
:202C800083AEF0FF7841C3E2F5F0EC95F008E2F5F0ED95F008E2F5F0EE95F008E2F5F0EF1F
:202CA00095F0500D7841E2FC08E2FD08E2FE08E2FF7845C3E29C08E29D08E29E08E29F50FD
:162CC0000D7845E2FC08E2FD08E2FE08E2FF8C828D838EF0EF22F1
:20785F00FC78801B00000003798039000000107980400000001A7980190000002079800037
:20787F00000000287980000000002C798000000000347980000000003E79800000000047F8
:20789F00798000000000507980000000005D79806400000068798000000000717980000002
:2078BF0000007C798000000000837980010000008A7980FFFF00009A798000000000A27988
:2078DF008002000000FFFFFFFF01FF5B25755D205325753A2025733D256C750A00464F5286
:2078FF004D41540053455249414C5F5350454544004149525F5350454544004E45544944D7
:20791F00005458504F57455200454343004D41564C494E4B004F5050524553454E44004D35
:20793F00494E5F46524551004D41585F46524551004E554D5F4348414E4E454C530044555D
:20795F0054595F4359434C45004C42545F52535349004D414E434845535445520052545327
:20797F00435453004E4F44454944004E4F444544455354494E4154494F4E0053594E434165
:0D799F004E59004E4F4445434F554E540085
:202CD6007F00EF75F006A424A9FD740335F0FE8D828E83A3A3A3A3E0540F24FF92108F8238
:202CF600C007C006C005122D25D005D006D0078D828E83A3A3A3A3E0C4540F24FF92128F7D
:202D160082C007123004D0070FBF020040B422AF82BF02004003022FE4EF75F006A424A93C
:202D3600FD740335F0FE8D828E83A3A3A3A3A210E433FC540FF5F0E054F045F0F08D828E47
:202D560083A3A3A3A3A374FFF075A700EF75F002A4FEAFF024ACF582EF3479F583E493FDC6
:202D760024FC5003022FDAED2D2D902D8473022D90022E23022EB6022F49301022EE24AC32
:202D9600FCEF3479FD8C828D83A3E493FD8DF005F07401800225E0D5F0FBFD42A48021EEB3
:202DB60024ACFCEF3479FD8C828D83A3E493FD8DF005F07401800225E0D5F0FBF4FD52A44E
:202DD60075A70F301023EE24ACFCEF3479FD8C828D83A3E493FD8DF005F07401800225E059
:202DF600D5F0FBFD42A4022FDFEE24ACFCEF3479FD8C828D83A3E493FD8DF005F07401801B
:202E16000225E0D5F0FBF4FD52A4022FDF301022EE24ACFCEF3479FD8C828D83A3E493FDF4
:202E36008DF005F07401800225E0D5F0FBFD42A58021EE24ACFCEF3479FD8C828D83A3E4D1
:202E560093FD8DF005F07401800225E0D5F0FBF4FD52A575A70F301023EE24ACFCEF3479D2
:202E7600FD8C828D83A3E493FD8DF005F07401800225E0D5F0FBFD42A5022FDFEE24ACFC2E
:202E9600EF3479FD8C828D83A3E493FD8DF005F07401800225E0D5F0FBF4FD52A5022FDF28
:202EB600301022EE24ACFCEF3479FD8C828D83A3E493FD8DF005F07401800225E0D5F0FBE4
:202ED600FD42A68021EE24ACFCEF3479FD8C828D83A3E493FD8DF005F07401800225E0D58B
:202EF600F0FBF4FD52A675A70F301023EE24ACFCEF3479FD8C828D83A3E493FD8DF005F060
:202F16007401800225E0D5F0FBFD42A6022FDFEE24ACFCEF3479FD8C828D83A3E493FD8DD5
:202F3600F005F07401800225E0D5F0FBF4FD52A6022FDF301022EE24ACFCEF3479FD8C821E
:202F56008D83A3E493FD8DF005F07401800225E0D5F0FBFD42B18021EE24ACFCEF3479FD22
:202F76008C828D83A3E493FD8DF005F07401800225E0D5F0FBF4FD52B175A70F301022EE69
:202F960024ACFCEF3479FD8C828D83A3E493FD8DF005F07401800225E0D5F0FBFD42A180F3
:202FB60028EE24ACFEEF3479FF8E828F83A3E493FF8FF005F07401800225E0D5F0FBF4FF1E
:202FD60052A1800575A700C32275A700D322C322E58275F006A424A9FE740335F0FF8E8280
:202FF6008F83A3A3A3A3E0540F24FF921122E582FF75F006A424A9FD740335F0FE8D828E7C
:2030160083A3A3A3A3A212E433FCC454F0F5F0E0540F45F0F0BF0200400302319C8D828EFF
:2030360083A3A3A3A3A3E0FEBEFF02800302319CEF75F002A4FEAFF024ACF582EF3479F56A
:2030560083E493FD24FC5003023198ED2D2D903068730230740230BE0231080231503012AD
:2030760023EE24ACFCEF3479FD8C828D83A3E493FD8DF005F07401800225E0D5F0FBFD4222
:203096008002319AEE24ACFCEF3479FD8C828D83A3E493FD8DF005F07401800225E0D5F012
:2030B600FBF4FD528002319A301223EE24ACFCEF3479FD8C828D83A3E493FD8DF005F0749C
:2030D60001800225E0D5F0FBFD429002319AEE24ACFCEF3479FD8C828D83A3E493FD8DF0F1
:2030F60005F07401800225E0D5F0FBF4FD529002319A301222EE24ACFCEF3479FD8C828D17
:2031160083A3E493FD8DF005F07401800225E0D5F0FBFD42A0806DEE24ACFCEF3479FD8C26
:20313600828D83A3E493FD8DF005F07401800225E0D5F0FBF4FD52A0804A301222EE24ACD3
:20315600FCEF3479FD8C828D83A3E493FD8DF005F07401800225E0D5F0FBFD42B08025EEDF
:2031760024ACFEEF3479FF8E828F83A3E493FF8FF005F07401800225E0D5F0FBF4FF52B070
:203196008002C322D322C322E58275F006A424A9FE740335F0FF8E828F83A3A3A3A3E0C4AA
:2031B600540F24FF921322AF82BF020040030232ADEF75F006A424A9FD740335F0FE7404BC
:2031D6002DFDE43EFE8D828E83E0540F60030232ADEF75F002A4FEAFF024ACF582EF34796E
:2031F600F583E493FD24FC50030232A9ED2D2D9032097302321502323A02325F023284EE08
:2032160024ACFCEF3479FD8C828D83A3E493FD8DF005F07401800225E0D5F0FBFDE580521C
:20323600058D8222EE24ACFCEF3479FD8C828D83A3E493FD8DF005F07401800225E0D5F087
:20325600FBFDE59052058D8222EE24ACFCEF3479FD8C828D83A3E493FD8DF005F074018074
:203276000225E0D5F0FBFDE5A052058D8222EE24ACFEEF3479FF8E828F83A3E493FF8FF056
:1C32960005F07401800225E0D5F0FBFFE5B052078F822275827F2275827F2222F9
:0479AC0001000101D4
:0804DC00C214C215C216C217BA
:2032B200AF822018058F82024B41784A7949C3E3F5F0E295F0501A784AE2FE784A04F29025
:2032D20003BBE0FCA3E0FDEE2CF582E43DF583EFF022AF83E5829003BEF0EFA3F09003BEEA
:2032F200E0FEA3E0FF9003BBEEF0EFA3F0784AE4F29003BDE07849F2D21822C218784AE2A9
:20331200F58222AD82AE83AFF08D828E838FF01274A0FC700122BC25028003023584C217B5
:20333200C216C215C2140DBD00010E8D828E838FF01274A0FBBB6802800CBB6C10D2140D82
:20335200BD000A0E8007D2160DBD00010E8D828E838FF01274A0FBBB63028030BB6402800D
:2033720018BB6F02802BBB7302800ABB7502800EBB78238010D215801D753A0A8018753A68
:203392000AD2178011753A10D217800A753A008005753A08D217301571A8811818E624FD7B
:2033B200FBA8811818A6038B01873B09873C09873D1919C005C006C007AA3BAB3CAF3D8A51
:2033D200828B838FF01274A0D007D006D0057003023595C005C006C007AA3BAB3CAF3D8A51
:2033F200828B838FF01274A0FA053BE4B53B02053C8A82C007C006C0051232B2D005D00636
:20341200D007D007D006D00580A9301766301421A8811818E624FCFBA8811818A6038B011E
:20343200873E09873F0987400987411919190234EB30161DA8811818E614F9A8811818A62B
:203452000187038B3E753F007540007541000234EBA8811818E624FEFBA8811818A6038BDD
:20347200018702098703198A3E8B3F7540007541008066301420A8811818E624FCFBA8813A
:203492001818A6038B01873E09873F098740098741191919804330161EA8811818E614FBC0
:2034B200A8811818A6038B01E7FBF53E3395E0F53FF540F5418022A8811818E624FEFBA86A
:2034D200811818A6038B018702098703198A3EEBF53F3395E0F540F541E53A700302356F8D
:2034F20030172F900617747AF0E4A3F07440A3F090061AE53AF0853E82853F838540F0E516
:2035120041C007C006C0051267F2D005D006D007802D900640747AF0E4A3F07440A3F0906A
:203532000643E53AF0853E82853F838540F0E541C007C006C005126908D005D006D00779EA
:203552007AE7FB603E8B82C007C006C005C0011232B2D001D005D006D0070980E4AB3E8B15
:2035720082C007C006C0051232B2D005D006D00780118C82C007C006C0051232B2D005D061
:2035920006D0070DBD00010E02331BE58124FCFFC007E58124FBF886820886830886F012A1
:0535B200331515812214
:2035B700AFF0AE83E5829004BCF0EEA3F0EFA3F0201902C322784BC3E2F5F074FC95F050C8
:2035D7000512395180459004BCE0FDA3E0FEA3E0FF8D828E838FF0784BE2126E29785EE299
:2035F700FD08E2FE7F0090065F74C0F07403A3F0E4A3F0784B900662E2F0E4A3F08D828E15
:20361700838FF0126D74123951D322780BE2FE08E2FFBEFF05BFFF02800C0EBE00010F785F
:203637000BEEF208EFF2C322AF8275A702C2A3C2FF75A3FF7860E2FD08E2FE8F041FEC6091
:203657001130F9FD8D828E83E0F5A3A3AD82AE8380E930F9FD748055A1FFBF800280F6C290
:20367700FFD2A375A70022201905784CE26002D322758231123E47E58230E402D322C32230
:20369700A2A8921BC2A8101A028006A21B92A8D322A21B92A8C322784DE2F58222758226DB
:2036B700023E47785AE2F58222758208123E47AF8274014FFEC007C006758208123E111594
:2036D70081D0075307FEC007758208123E11158122758208123E47AF8274024FFEC007C033
:2036F70006758208123E111581D0075307FDC007758208123E11158122E582FF24035019B4
:20371700C00774B0C0E07479C0E07480C0E0120FAA158115811581D007C0071236C0D007DC
:20373700C007C00775823E123E111581D007EFFE24DF50027E2078627960E2F308E209F393
:203757008E82C007C00612363FD006D007EFC39EFF7862E22EF208E23400F2C007E4C0E0FB
:20377700758205123E111581E4C0E0758206123E111581C21AC21C7409C0E0758207123EA2
:203797001115811266FAAC82AD83D007C007C005C0041266FAAA82AB83D004D005D007EA3E
:2037B700C39CFAEB9DFB7864C3E2F5F0EA95F008E2F5F0EB95F040030238DC758203C007E8
:2037D700C005C004123E47AB82D004D005D007301C40EF603DEB30E5397E04BF040050021D
:2037F7008F0678627960E2F308E209F38E82C007C006C005C00412363FD004D005D006D0B3
:2038170007EFC39EFF7862E22EF208E23400F20237A3301C40EF603DEB20E6397E04BF04EC
:203837000050028F0678627960E2F308E209F38E82C007C006C005C00412363FD004D005C6
:20385700D006D007EFC39EFF7862E22EF208E23400F20237A3EB30E7201236C0780DE2FA02
:2038770008E2FEBAFF05BEFF02800C0ABA00010E780DEAF208EEF2C322758202C007C005BA
:20389700C004123E47AB82D004D005D007EB30E105D21C0237A3201C030237A3EB30E10324
:2038B7000237A3EF601D780DE2FE08E2FFBEFF05BFFF02800C0EBE00010F780DEEF208EF15
:2038D700F2C322D322780DE2FE08E2FFBEFF05BFFF02800C0EBE00010F780DEEF208EFF27F
:2038F700C322E5829004C1F0A2A8921EC2A89004BFE0FEA3E0FFFDC007C006C00575823A89
:20391700123E111581D006D007C00675823B123E1115819004C1E0FF78667962E2F308E251
:2039370009F378687964E2F308E209F38F82123710921DA21E92A8A21D22C2A8C219784B00
:20395700E4F2C21A784CE4F27413C0E0758205123E1115817440C0E0758206123E111581A2
:20397700123EBB1236C01236E87405C0E0758207123E111581D2A8D3229000321266897538
:203997008201123E47AF82BFFF028005BF05005002C322123F1B758201123E47E582FF2004
:2039B700E006123F1B921F22EF30E102D322C322AC82AD83AEF0FFC3ED941CEE944EEF9441
:2039D7000E400E74C09C74F79D74BA9E74379F5002C3227852ECF208EDF208EEF208EFF2EF
:2039F7008C828D838EF0EF123F87D322AC82AD83AEF0FFC374F09C74E89D74269EE49F5096
:203A170002C322786A7410F2087427F208E4F208F28C828D838EF0EF123EC7AC82AD83AE35
:203A3700F0FF7856ECF208EDF208EEF208EFF2C00475827A123E111581D322E5829004C23E
:203A5700F0785BE2FF9004C2E0FEB5070122785BEEF2C006758279123E111581C21A227842
:203A77005BE2F58222AF82C007E4C0E0758205123E111581E4C0E0758206123E1115811260
:203A97003EBB7415C0E075820B123E1115817412C0E075820C123E1115817582001241DFAB
:203AB70074B6C0E0758209123E111581D007EF249B5010C00774C0C0E0758258123E1115E9
:203AD70081D0077852E2FB08E2FC08E2FD08E28B828C838DF0C007123F877856E2FB08E24C
:203AF70008E208E2C00375827A123E111581748DC0E0758230123E1115817442C0E07582A4
:203B170033123E11158174CFC0E0758232123E11158174FFC0E0758245123E11158174FFA8
:203B3700C0E0758246123E11158174FFC0E0758243123E11158174FFC0E0758244123E11A7
:203B57001581743CC0E075827C123E1115817420C0E075827D123E1115817432C0E0758222
:203B77007E123E111581785D7410F2785DE2FEC006758234123E1115817428C0E075823569
:203B9700123E111581758200123D39D0077E00EE9079CD93FDC39F50060EBE0C0040F0EE41
:203BB700FF9079CD93FE785AF2BE200040047E0D80027E2D75820DC007C0061227B7AA823D
:203BD700AB83ACF0FDD006D007EA4B4C4D600B785AE2FD247F4003430602C007C0067582BB
:203BF70070123E1115817423C0E0758271123E1115817444C0E075821D123E111581D00777
:203C1700785AE2FEBEC8005012C007740AC0E075821E123E111581D0078010C0077402C09E
:203C3700E075821E123E111581D0077809E2B4433A7E00EE75F00DA424DAFC747935F0FD8B
:203C5700EF2CF582E43DF583E493FDEE9079C193FCC007C006C0058C82123E111581D0063A
:203C7700D0070EBE0C0040CB023D377809E2B447397E00EE75F00DA42476FC747A35F0FD3E
:203C9700EF2CF582E43DF583E493FDEE9079C193FCC007C006C0058C82123E111581D006FA
:203CB700D0070EBE0C0040CB80767809E2B486397E00EE75F00DA42412FC747B35F0FDEFB3
:203CD7002CF582E43DF583E493FDEE9079C193FCC007C006C0058C82123E111581D006D0D9
:203CF700070EBE0C0040CB80377E00EE75F00DA424AEFC747B35F0FDEF2CF582E43DF58380
:203D1700E493FDEE9079C193FCC007C006C0058C82123E111581D006D0070EBE0C0040CBEA
:203D3700D322E5829004C3F0FF7E00EE907C4A93FDC39F50060EBE080040F09004C4EEF086
:203D5700BE08069004C47407F09004C4E0FF907C4A93FE785CEEF2C00775826D123E11154A
:203D77008122785CE2F58222AF83E5829004C5F0EFA3F09004C5E0FEA3E0FF8E04784EECD9
:203D9700F28F05784FEDF2200634C007C006C005C00575823C123E111581D005D006D007C3
:203DB700C006C005C00675823D123E111581758241123E111581758242123E11158122AF40
:203DD70083E5829004C7F0EFA3F09004C7E0FEA3E0FF7850EEF208EFF28F06C00675823F38
:203DF700123E1115817850E254FFFE08E25400C006758240123E11158122AF82A2A8923821
:203E1700C2A875A702C2A3C2FF74804FF5A330F9FDA881181886A330F9FD748055A1FFBF8C
:203E3700800280F6C2FFD2A375A700A23892A822AF82A2A89238C2A875A702C2A3C2FF8F69
:203E5700A330F9FD75A30030F9FD748055A1FFBF800280F6AFA3C2FFD2A375A700A2389294
:203E7700A88F8222AF8275A702C2A3C2FF75A37F30FFFD85A3E0E58124FDF8860508860672
:203E97008F041FEC6016C2FF75A30030FFFD8D828E83E5A3F0A3AD82AE8380E4C2FFD2A3BD
:203EB70075A70022758203123E47758204023E47AF82AE83ADF0FC786EEFF208EEF208EDFB
:203ED700F208ECF2786DE2C313FF18E213FE18E213FB18E213FA786EE22AFA08E23BFB0829
:203EF700E23EFE08E23FFF786A900653E2F008E2A3F008E2A3F008E2A3F08A828B838EF0B9
:203F1700EF026C33E4C0E0758205123E111581E4C0E0758206123E111581123EBB7481C04B
:203F3700E0758207123E11158190000212665030810712668150F8C322E4C0E075820512CB
:203F57003E1115817402C0E0758206123E1115819000141266501266814013758203123E59
:203F770047758204123E47E58230E1EAD322C322AF82AE83ADF0FC7872EFF208EEF208ED72
:203F9700F208ECF27872C3E2F5F0E495F008E2F5F0743895F008E2F5F0749C95F008E2F512
:203FB700F0741C95F0400302407D7873E224C8F208E23463F208E234E3F2900653E4F074A1
:203FD7002DA3F07431A3F07401A3F07872E2F58208E2F58308E2F5F008E2126C33AA8290FF
:203FF70004C9EAF0900678EAF0E4A3F0E4A3F0E4A3F0902D0075F0317401126F91AC82AD01
:2040170083AEF0FF7872E2C39CF208E29DF208E29EF208E29FF2786A7471F2087402F208AD
:20403700E4F208F27872E2F58208E2F58308E2F5F008E2123EC77872C0E0E582F208E583D1
:20405700F208E5F0F2D0E008F27872E225E0F208E233F208E233F208E233F29004C9E0FFB2
:204077004420F00241407873E224E4F208E234B1F208E234F1F29006537480F07496A3F05F
:204097007498A3F0E4A3F07872E2F58208E2F58308E2F5F008E2126C33AC829004C9ECF07D
:2040B700900678ECF0E4A3F0E4A3F0E4A3F090968075F098E4126F91AC82AD83AEF0FF788E
:2040D70072E2C39CF208E29DF208E29EF208E29FF2786A7471F2087402F208E4F208F2783D
:2040F70072E2F58208E2F58308E2F5F008E2123EC77872C0E0E582F208E583F208E5F0F298
:20411700D0E008F27872E225E0F208E233F208E233F208E233F2181818E225E0F208E233B0
:20413700F208E233F208E233F29004C9E04440F07872E2FC08E2FDC005C0049004C9E0C072
:20415700E0758275123E111581D004D0058D07C005C004C007758276123E111581D004D070
:2041770005C004758277123E1115812275A70FAEBEE4CE25E0CE33CE25E0CE33FFE5BD23F1
:20419700235403FD7C004206EC420775A700D2EC20ECFDADBE7C00AABD7B00EA4204EB428F
:2041B70005ECC39EFEED9FFF9006897402F0E4A3F08E828F831271D9E5828583F0242DFCE7
:2041D700E435F08C82F58322E5829004CAF0FF24FC4068EF2F2F9041F1730241FD02425243
:2041F7000242520242227418C0E075820D123E111581758208123E47AF82741F5F4480FF09
:20421700C007758208123E11158122758208123E47AF82741F5F4420FFC007758208123E76
:20423700111581740AC0E075820D123E111581E4C0E075820E123E11158122758208123EB6
:2042570047AF8253071FC007758208123E111581740AC0E075820D123E1115817404C0E068
:2042770075820E123E11158122C027C0E0C0F0C082C083C007C006C005C004C003C002C0F2
:2042970001C000C0D075D000758204123E47AF82758203C007123E47AE82D007EE30E44904
:2042B700784CE2FC7D0074322CFCE43DFDC374FC9CE49D500302438B784CE224C0FCE434CB
:2042D70003FDC007C006C004C005758232123E7B15811581784CE22432F2758226123E47EF
:2042F700E582D006D007784DF2EF30E611D21A758226C006123E47E582D006784DF2200646
:2043170004EE20E06FEE30E16975824B123E47E582FF2403405E784CC3E2F5F0EF95F040B7
:2043370053784CC3E29F5022784CE224C0FDE43403FE784CD3E29FF4FCC007C005C0068C13
:2043570082123E7B15811581D007784BEFF2D219E4C0E0758205123E111581E4C0E0758275
:2043770006123E1115817402C0E0758207123E111581801E780BE2FE08E2FFBEFF05BFFFB4
:2043970002800C0EBE00010F780BEEF208EFF2123951D0D0D000D001D002D003D004D00525
:0F43B700D006D007D083D082D0F0D0E0D027320C
:2079B0006F76657273697A6564207061636B6574001C1F2021222324252A6E6F72020408B3
:2079D0001013182030406080C0FA2727272E1601050B9A888A8C8D03030303030303030388
:2079F00003030303F4FA7D3F69A77D535E7D5E3F3020000102010001010101010202418348
:207A1000060C37C406895D065D0CAA8912254A4C9C25378625864AAB0001020402010203C1
:207A3000020202040785080E12728A0E18BB0EBBEAFF1D1D1D1E1E1E203041505050501057
:207A50002041839BC4080C101820314062C58912A69C314A6293C5270003060D1A1E2633FF
:207A70004D669ACDFEFE2B2B2B2E1601050B9A888A8C8D030303030303030303030303031E
:207A9000F4FA7D3F69A77D535E7D5E3F30200001020100010101010102024183060C37C4A6
:207AB00006895D065D0CAA8912254A4C9C25378625864AAB00010204020102030202020424
:207AD0000785080E12728A0E18BB0EBBEAFF1E1E1E21212121304150505050102041839B35
:207AF000C4080C101820314062C58912A69C314A6293C5270003060D1A1E26334D669ACDC4
:207B1000FEFE010101010101050B9A888A8C8D03030303030303030303030303D0E8F4FAB1
:207B3000D3A77D535E7D5E3F30E0602000000001010101010202102041839BC406895D0695
:207B50005D0CAA62C58912A69C25378625864AAB0000000101010203020202040723448577
:207B700008398A0E18BB0EBBEAFF1C1C1C1C1C1E20304150505050102041839BC4080C10A5
:207B90001820314062C58912A69C314A6293C5270003060D1A1E26334D669ACDFEFE01010D
:207BB00001010101050B9A888A8C8D03030303030303030303030303D0E8F4FAD3A77D53C5
:207BD0005E7D5E3F30E0602000000001010101010202102041839BC406895D065D0CAA62CA
:207BF000C58912A69C25378625864AAB0000000101010203020202040723448508398A0E73
:207C100018BB0EBBEAFF1E1E1E1E1E1E20304150505050102041839BC4080C10182031402A
:207C300062C58912A69C314A6293C5270003060D1A1E26334D669ACDFEFE010205080B0EEE
:027C500011140D
:2043C600C027C0E0C0F0C082C083C007C006C005C004C003C002C001C000C0D075D000101A
:2043E60098030244E2AF9930000E3001030244E28F821204E70244E28F82C007120581D09C
:20440600077876E22401FD08E23400FEBD0009BE08067D007E00800B7876E22401FD08E28D
:204426003400FE7878E2B5050708E2B50602803A7876E22492F58208E23406F583EFF07860
:2044460076E22401FD08E23400FEBD0009BE08067D007E00800B7876E22401FD08E2340098
:20446600FE7876EDF208EEF2801B7811E2FD08E2FEBDFF05BEFF02800C0DBD00010E78112A
:20448600EDF208EEF230085478767978C3E3F5F0E295F009E3F5F008E295F0B3E433FE608A
:2044A6001B7878E22400FD08E23408FE7876D3E29DF4B3FDB308E29EF4FE8015787879763F
:2044C600E3F5F0C3E295F0FD09E3F5F008E295F0FEC3ED9440EE94005002D28210990280D2
:2044E60061787A797CE2F5F0E3B5F00B08E2F5F009E3B5F002804930080A308307200004C9
:20450600D220803E787CE22492F58208E2340EF583E0FF787CE22401FD08E23400FEBD008E
:2045260009BE04067D007E00800B787CE22401FD08E23400FE787CEDF208EEF28F998002A5
:20454600D220D0D0D000D001D002D003D004D005D006D007D083D082D0F0D0E0D027327871
:204566007A797CE2F5F0E3B5F00A08E2F5F009E3B5F001223020030247ED22AF8275A700F2
:20458600C2AC7876E4F208F2787CE4F208F2787AE4F208F2787CE4F208F2D220C28EAE8926
:2045A600740F5E4420F5898F82124B7BD28E759810C282D2AC22AF82C007124795AD82AE25
:2045C60083D007C3ED9401EE94005002C3228F821245DBD322AF82A2AC9238C2AC787AE2BA
:2045E6002401FD08E23400FEBD0009BE04067D007E00800B787AE22401FD08E23400FE78D9
:204606007CE2B5050708E2B506028044787AE22492F58208E2340EF583EFF0787AE224018D
:20462600FE08E23400FFBE0009BF04067E007F00800B787AE22401FE08E23400FF787AEE4D
:20464600F208EFF2302024C0271247EDD027801B780FE2FE08E2FFBEFF05BFFF02800C0EDA
:20466600BE00010F780FEEF208EFF2A23892AC22858242858343787EE2700122124795AC43
:2046860082AD83787EE2FA7B00C3EC9AED9B501F787EECF2780FE2FC08E2FDBCFF05BDFF39
:2046A60002800C0CBC00010D780FECF208EDF2787EE2FD787AD3E29400F4B3FBB308E29461
:2046C60004F4FC8D027F00C3EB9AEC9F5008787AE2FFC3E49FFD787AE22492FE08E2340EDD
:2046E600FF7C0090065FE542F0E543A3F0E4A3F0900662EDF0E4A3F08E828F838CF0C0054C
:20470600126D74D005ED2542F542E43543F543787EE2C39DF2D22110AF02C2217F00787A7A
:20472600E22DF208E23FF2787AC308E294044006787BE224FCF2A22192AF787EE2603E90E9
:20474600065FE542F0E543A3F0E4A3F0787EE2FE7F00900662EEF0EFA3F0900E9275F00063
:20476600C007C006126D74D006D007D22110AF02C221787AEEF208EFF2A22192AFD22110AD
:20478600AF02C2213020031247EDA22192AF22A2AC9222C2AC787A797CC3E3F5F0E295F077
:2047A60009E3F5F008E295F0B3E433FF601B787CE22400FE08E23404FF787AD3E29EF4B36A
:2047C600FEB308E29FF4FF8015787C797AE3F5F0C3E295F0FE09E3F5F008E295F0FFA22237
:2047E60092AC8E828F832230080730830420000122C220D29922A2AC9223C2AC7876797839
:20480600E2F5F0E3B5F00B08E2F5F009E3B5F002803A7878E22492F58208E23406F583E0A1
:20482600FF7878E22401FD08E23400FEBD0009BE08067D007E00800B7878E22401FD08E26D
:204846003400FE7878EDF208EEF280027F0030085378767978C3E3F5F0E295F009E3F5F03B
:2048660008E295F0B3E433FE601B7878E22400FD08E23408FE7876D3E29DF4B3FDB308E2E8
:204886009EF4FE801578787976E3F5F0C3E295F0FD09E3F5F008E295F0FEC3E49D74049E87
:2048A6005002C282A22392AC8F8222A2AC9224C2AC7878E22492F58208E23406F583E0FF3A
:2048C600A22492AC8F8222A2AC9225C2AC7878E22401FE08E23400FFBE0009BF08067E0004
:2048E6007F00800B7878E22401FE08E23400FFEE2492F582EF3406F583E0FFA22592AC8F67
:204906008222AF83E5829004CBF0EFA3F0A2AC9226C2AC9004CBE0FEA3E0FF7878E22EFE52
:2049260008E23FFF530707EE2492F582EF3406F583E0FFA22692AC8F82228582448583457C
:20494600124AB9AC82AD83787FE2FA7B00C3EC9AED9B5002C3227880EAF208EBF27878D30C
:20496600E29400F4B3FAB308E29408F4FB7880C3E2F5F0EA95F008E2F5F0EB95F0501378E7
:20498600787980D3E29400F4B3F3B308E29408F409F3AA44AB457F007878E22492FD08E2C8
:2049A6003406FE90065FEDF0EEA3F0E4A3F07880900662E2F008E2A3F08A828B838FF01205
:2049C6006D747880E2FC787FE2C39CF27880E22544F54408E23545F545D22710AF02C22733
:2049E60078787980E3C5F0E225F0F209E3C5F008E235F0F27878C308E2940840067879E253
:204A060024F8F2A22792AF787FE26044AD44AE457F0090065F7492F07406A3F0E4A3F078B1
:204A26007FE2FB7C00900662EBF0ECA3F08D828E838FF0C004C003126D74D003D004D2278D
:204A460010AF02C2277878EBF208ECF2A22792AFD22710AF02C22730085378767978C3E336
:204A6600F5F0E295F009E3F5F008E295F0B3E433FF601B7878E22400FE08E23408FF787659
:204A8600D3E29EF4B3FEB308E29FF4FF801578787976E3F5F0C3E295F0FE09E3F5F008E2CA
:204AA60095F0FFC3E49E74049F5002C282A22792AFD322A2AC9228C2AC78767978C3E3F58B
:204AC600F0E295F009E3F5F008E295F0B3E433FF601778767978E3F5F0C3E295F0FE09E33E
:204AE600F5F008E295F0FF80197878D3E29400F4B3FCB308E29408F4FD7876E22CFE08E2DA
:204B06003DFFA22892AC8E828F8322124AB9AE82AF83E4C39EFE74089FC423CEC423541F23
:204B26006ECE541FCE6ECEFF90066CEEF0EFA3F0900064126E74AE838E8222AF82BF0A0A06
:204B460075820DC0071245DBD0078F820245DBAF827E00BE0900501BEE75F003A42452F502
:204B660082747C35F0F583E493FDEFB50502D3220E80E0C322AF82C007124B55D0074002F6
:204B86007F397E00BE0900501BEE75F003A42452F582747C35F0F583E493FDEFB505028094
:204BA600030E80E0EE75F003A42452FD747C35F0FE8D828E83A3E493F58DAC8E5304F48D30
:204BC600828E83A3A3E4934CF58E900678EFF0E4A3F0E4A3F0E4A3F090007DE4F5F0126F07
:044BE6009102234CC9
:1B7C5200012C02029602042C0009960013600126B001392B08739608E6CB08FE
:207D7A000000000000000000000000000000000000000000000000000000000000000000E9
:207D9A000000000000000000000000000000000000000000000000000000000000000000C9
:207DBA000000000000000000000000000000000000000000000000000000000000000000A9
:207DDA00000000000000000000000000000000000000000000000000000000000000000089
:204BEA007F0078B2E224FFFD08E234FFFE8F037C00C3EB9DEC9E4003024CA8BF08004003BF
:204C0A00024CA87850E2B5030808E2B50403024CA4EF75F002A4FDAEF0C007ED244AF54A9C
:204C2A00EE3401F54B854A82854B83A3E0FF8F4C754D007850E2FA08E2CA25E0CA33FFEA01
:204C4A00243AFAEF3401FF8A828F83A3E0FF8F4E754F00854A82854B83E0FF7A00ED243A46
:204C6A00F582EE3401F583E0FE7D00C007C04CC04DC04EC04FC007C002C006C005C003C029
:204C8A0004746DC0E0747CC0E07480C0E012359DE58124F3F581D007D0070F024BEC789C80
:204CAA00E2FE7F00C007C006124183AC82AD83D006D0077815E2F54E08E2F54F7813E2F5DB
:204CCA004C08E2F54D7811E2F54A08E2F54B780FE2F55008E2F551780BE2F55208E2F553C2
:204CEA00780DE2FA08E2FBC006C007C004C005C04EC04FC04CC04DC04AC04BC050C051C022
:204D0A0052C053C002C00378A7E2C0E008E2C0E07850E2C0E008E2C0E07495C0E0747CC047
:204D2A00E07480C0E012359DE58124E9F58178A7E4F208F22278A6E254016003024BEA2206
:204D4A00AF827E00789790066CE2F008E2A3F08F828E83126E74AE82AF837895E22EFE089F
:204D6A00E23F8E82F58322AE82AF837899C3E29E08E29F50087899E4F208F2800A7899E269
:204D8A00C39EF208E29FF27889C3E2F5F0EE95F008E2F5F0EF95F050030250737883C3081C
:204DAA00E29480400B7850E2F5F008E245F0706F7883E2FC08E2FD788374012CF2E43D08A4
:204DCA00F278B290067CE2F008E2A3F08C828D83C007C006126FFDAC82AD83D006D00778A0
:204DEA0050E2B5040708E2B50502800280317882E4F278B290067CE2F008E2A3F07883E2A6
:204E0A00F58208E2F583C007C006126FFDE5828583F0D006D0077883F208E5F0F2804F7895
:204E2A0083C308E29480504178B290067CE2F008E2A3F0900001C007C006126FFDAC82AD91
:204E4A0083D006D0077883E2C39CFC08E29DFD78B2E224FFFA08E234FFFBECB5020BEDB5CB
:204E6A00030778827402F2800578827401F27889D3E29EF4B3FEB308E29FF4FF7882E2B41E
:204E8A000210788DE2FC08E2FD7889ECF208EDF28019788BE2FC08E2FD7889ECF208EDF23F
:204EAA00C007C006120EDBD006D007C007C006123951D006D0077807C3E2F5F0740195F0DA
:204ECA00500C78A0E4F208F278A4E4F208F27882E2600302506AC006C007789BE2FC7D00A2
:204EEA00789CE2F554755500ECC39554FEED9555FFBE640ABF0007D007D00602506AD00701
:204F0A00D006C006C007C007C006C005C004C046C047C048C04990333375F073743F126AF3
:204F2A00E685825685835785F058F559E58124FCF581D004D005D006D007789DE2F58208E2
:204F4A00E2F583C005C0041272B9AA82AB83AEF0FFD004D005C007C006C005C004C002C0EF
:204F6A0003C006C00790000075F0A07440126AE685825A85835B85F05CF55DE58124FCF58A
:204F8A0081D004D005D006D0077890798BE3C5F0E225F0FE09E3C5F008E235F0CE25E0CE46
:204FAA0033FF8E828F83C005C0041272B9AA82AB83AEF0FFC002C003C006C007855A8285DE
:204FCA005B83855CF0E55D1273DDAA82AB83AEF0FFE58124FCF581D004D005C007C006C08B
:204FEA0005C004C002C003C006C0078556828557838558F0E55912718085824685834785E1
:20500A00F048F549E58124FCF581D004D005D006D007789DE4F208F2ECC39554FCED95556E
:20502A00FD8C828D831272ACAC82AD83AEF0FFC007C006C004C005C006C007854682854764
:20504A00838548F0E549126E44E58124FCF581D006D007E58224FF9232B39230D007D006FB
:20506A007899E4F208F2024D917882E2B40210C007C006120EB5123A52D006D007800EC0C8
:20508A0007C006120EA5123A52D006D0077889E2C39EF208E29FF222AF827882E2B402246F
:2050AA00EF70217850E2F5F008E245F070047582012278507992E24400F308E2448009F394
:2050CA00758200227882E270030252CC102A00EF60030251617883E2F5F008E245F0604677
:2050EA007892E254FFFE08E2547FFF7883E224FFFC08E234FFFD78B2E224FFFA08E234FF51
:20510A00FB90067CEAF0EBA3F08C828D83C007C006126FFDAC82AD83D006D007EEB504063F
:20512A00EFB5050280297883E2F5F008E245F070227892E254FFFE08E2547FFF78B2E22475
:20514A00FEFC08E234FFFDEEB50408EFB50504758201227582002278B4E270030252BA789B
:20516A0092E254FFFE08E2547FFF78AEE2FC08E2FDEEB50406EFB505028002D22C7892C314
:20518A0008E2948050797892E22401FE08E23400FF78B2E224FFFA08E234FFFB90067CEAD5
:2051AA00F0EBA3F08E828F83C005C004126FFDAE82AF83D004D005ECB50644EDB5074078F7
:2051CA0092ECF208EDF2126B89AE82AF837895E2FA08E2CA25E0CA33FB90067CEAF0EBA3F2
:2051EA00F08E828F83126FFDAE82AF837895E22EFE08E23FFF7899EEF208EFF20252877843
:20520A0092ECF274804D08F2785090066CE22401F008E23400A3F07895E2F58208E2F5839F
:20522A00126E74AE82AF83C007C006126B89AC82AD83785090066CE22402F008E23400A39A
:20524A00F07895E2F58208E2F583C005C004126E74AA82AB83D004D00590067CEAF0EBA392
:20526A00F08C828D83126FFDAC82AD83D006D007EC2EFEED3FFF7899EEF208EFF27895E281
:20528A00FE08E2CE25E0CE33CE25E0CE33FF90067CEEF0EFA3F07899E2F58208E2F5831225
:2052AA006FFDE5828583F07899F208E5F0F2800E78507992E24400F308E2448009F375822C
:2052CA0000227882E2705A302A0C7892E4F2087480F275820022302B1078507992E244004B
:2052EA00F308E2448009F3800E7850E2FE08E2FF7892EEF208EFF2102C0280217895900693
:20530A006CE2F008E2A3F0900006126E74E5828583F07899F208E5F0F275820022758201FC
:20532A002275820122123D79E582FF24EB4005789CE4F222124183E5828583F0249CFEE5C1
:20534A00F034FFFFC3E49EE464808FF063F08095F0E433FD700C789CE26007789CE214F254
:20536A008039C3740A9EE464808FF063F08095F05008789CE2240AF28021C374059EE464BB
:20538A00808FF063F08095F05008789CE22405F28009ED6006789CE22401F2789BE2FE7FE8
:2053AA0000789CE2FC7D00EEC39CFEEF9DFFC3EE9414EF648094805008789B799CE224ECEC
:2053CA00F3227850E2F5F008E245F06003302E0E90060FE4F0C22ED205120F0F80079006A4
:2053EA000FE02401F090060FE0FFBF02005004D2B780477894E4F2A22D92B7B22D7883746E
:20540A00FFF20874FFF2900667E4F09006687410F0E4A3F090014A75F000126DE8900667C6
:20542A00E4F09006687410F0E4A3F090013A75F000126DE878A7E4F208F290060FE0FF2477
:20544A00FC5029302F0F75F005EF84AFF0BF0410120EDB800BC205120F0F120EB5123A5220
:20546A0090060FE0FF24C3500343EF1078A9E4F208F23029077803E2FF78A6F2B2299006F4
:20548A0010E02401F0900610E0FFBF040812532F900610E4F022AE82AF839000BA75F0006C
:2054AA00C007C0061273C5E5828583F02401FCE435F0FD90065F74BAF07400A3F0E4A3F0F4
:2054CA00900662ECF0EDA3F09005C975F000126D74D006D00778B0EEF208EFF2D23122AF46
:2054EA0082BF02004017EF24BA40129004CDE0FEBE520A9004CEE0FEBE540280237E00C358
:20550A00EE9F501BEE24CDF582E43404F583E0F582C007C006124B41D006D0070E80E022E0
:20552A0078AE79B0E2F308E209F390065F74CDF07404A3F0E4A3F0900662EFF0E4A3F090D1
:20554A0000BA75F000C007126D74D007EF24BAF582E43400F583E4F09000BA7441F0780181
:20556A00EFF2BF041B9000BCE0FFBF49139000BDE0FFBF350B78AB7401F275820002241337
:20558A000224401266FAAE82AF8378B5EEF208EFF278FF762A78FFB62A02801DC007C00637
:2055AA0074D9C0E0747CC0E07480C0E0120FAA158115811581D006D0077800E2B4410280C5
:2055CA001DC007C00674E6C0E0747CC0E07480C0E0120FAA158115811581D006D007C007F8
:2055EA00C0061206C5D006D00778A6E2600FC007C006124D3FD006D00778A6E4F29003572C
:20560A00E0FB602190015AE0FB601A200017900357E4F0C007C006121997D006D00750059E
:20562A00900357E4F0C007C0061266FA78B8E582F208E583F2785E74CDF2087404F29000AD
:20564A00B775F0601235B7D006D007400302596C7899E4F208F278B7E2B40400502A78B7BC
:20566A00E2FC7D00C007C006C004C00574FCC0E0747CC0E07480C0E012359DE58124FBF51D
:20568A0081D006D00702559F7882E2700AD22A7892E4F2087480F278B7E224CDFCE43404A2
:2056AA00FDEC24FCFCED34FFFD90065FECF0EDA3F0E4A3F09006627404F0E4A3F09000ACE3
:2056CA0075F060C007C006126D74D006D00778B7E214141414F278AEE2F55E08E2F55F30B2
:2056EA00E73B7894E2B4FF0050117883E2F5F008E245F070067894E22401F27883E4F20847
:20570A00F278AEE2FC08E2FD53057F8C82C007C006120ED1D006D007D22E02559F302F3FFE
:20572A0078ADE220E6397894E2B4FF00501E7401255EFCE4355FFD7883E2B5040708E2B565
:20574A000502800280067894E22401F278AEE2FC08E2FD788374012CF2E43D08F2D22E781F
:20576A00AEE2FC08E2FDC3EC9408ED9400507CC006C007EDCC25E0CC33FDEC243AFCED3466
:20578A0001FDC006C005C0041236AEAF82D004D005D0067E0078AEE2FA08E2CA25E0CA33D6
:2057AA00FBEA243AF582EB3401F583E090066CF0E4A3F0900007C007C006C005C004126E17
:2057CA0074AA82AB83D004D005D006D007EA2FFAEB3EC423CAC423541F6ACA541FCA6ACAAF
:2057EA00FB8C828D83EAF0D007D00678A7E22401F208E23400F278ACE2FC08E2541FFD4C2F
:20580A0060030258B578B7E270030258B578B7E2B4040280030258A778AEE2FC08E2FDC37C
:20582A00EC9408ED94005075C006C00778B7E21414F278B7E224CDFAE43404FB7F008A823A
:20584A008B838FF01274A0FAA31274A0FB7850E2B5020708E2B503028006D007D006803DD1
:20586A00D007D006EDCC25E0CC33FDEC244AFCED3401FD7B0090065F74CDF07404A3F0E4B2
:20588A00A3F078B7900662E2F0E4A3F08C828D838BF0C007C006126D74D006D00778A7E234
:2058AA0024FFF208E234FFF202559F78ACE2FC08E2541FFD4C700302559F78ACE2FC08E2C7
:2058CA00541FFD7889ECF208EDF278B779B4E2700474018001E4F37582011250A278B8E2FB
:2058EA00FE08E2FF78ADE2C4035401FDBD012278B7C3E2F5F0740195F0400302559F78B79C
:20590A00E2F582C007C0061254E9D006D00702559F78B7E2700302559F78ADE22354012488
:20592A00FF920E783A74CDF2087404F278B7E2F582C007C006122393D006D0075003025533
:20594A009F30000302559FD2B678B7797EE2F39004CDC007C006124676D006D007C2B6020F
:20596A00559FC007C0061266FA78B8E582F208E583F2D006D00778B8E2C39EFC08E29FFD9D
:20598A008C828D83C005C004124D71D004D00578B8E2FE08E2FF788B7990E3F5F0C3E295D6
:2059AA00F0FA09E3F5F008E295F0FB7889C3E2F5F0EA95F008E2F5F0EB95F0500302559F36
:2059CA007882E2B4022A788D7990E3F5F0C3E295F0FA09E3F5F008E295F0FB7889C3E2F531
:2059EA00F0EA95F008E2F5F0EB95F0500302559FC006C00778B879B5E3F5F0C3E295F0FADF
:205A0A0009E3F5F008E295F0FB7E007F00C3E49A74809BE49EE464808FF063F08095F0D083
:205A2A0007D006501DC007C006C005C0041253CCD004D005D006D00778B879B5E2F308E258
:205A4A0009F3789FE27003025ADEC007C006C005C0041236B4AB82D004D005D006D007788D
:205A6A009FC3E2F5F0EB95F0500B78A0E22CF208E23DF2803E78A0E4F208F278A4E2F5F06E
:205A8A0008E245F0702DC007C006126B89AC82AD8378A290067CE2F008E2A3F08C828D83B6
:205AAA00126FFDE5828583F0D006D00778A4F208E5F0F278A279A4E3C5F0E225F0FC09E3C7
:205ACA00C5F008E235F0FD78A0C3E29C08E29D500302559F78B4E4F2758200C007C006123A
:205AEA0050A2E582D006D007700302559F7899E2F5F008E245F0600302559FC007C006123E
:205B0A003697D006D007400DC007C00612367ED006D00750237895E2FC08E2FD7899ECF280
:205B2A0008EDF27882E2600302559FD22A7892E4F2087480F202559F7850E2F5F008E245C1
:205B4A00F0600B7894E2B41400500302559FC006C0077850E2FC08E2CC25E0CC33FDEC24E7
:205B6A003AFCED3401FD0CBC00010DC007C006C005C0041236B4AB82D004D005D006D0075B
:205B8A007A007850E2FE08E2CE25E0CE33FFEE243AFEEF3401FF8E828F83A3E090066CF018
:205BAA00E4A3F0900003C005C004C003C002126E74AE82AF83D002D003D004D005EE2BFE08
:205BCA00EF3AC313CE13CEC313CE13CE8C828D83EEF0D007D00630300302559F7889799577
:205BEA00C3E3F5F0E295F009E3F5F008E295F0500302559F7889E2FC08E2FD7895E2FA0869
:205C0A00E2CA25E0CA33FBECC39AFCED9BFD30E7047D0080367895E2FB08E2CB25E0CB3317
:205C2A00FC7889E2C39BFB08E29CFC7897900611E2F008E2A3F08B828C83C007C006126779
:205C4A0057AB82AC83D006D0078B05BD0500500302559FED24FBFD788FC3E29D5004788F92
:205C6A00E2FDC007C006C005124AB9E5828583F0D005D006D00745F06044302C417882E2A1
:205C8A00B4013B788BE2FB08E2C313CB13CBC313CB13CBFC7889C3E29B08E29C50030255D5
:205CAA009F9004CD74FFF078B77401F278ADE24420F2788774FFF20874FFF2025DB57882A5
:205CCA00E2B40203025DB1203103025D54C006C0079005C975F000C007C006C0051273C51C
:205CEA00AB82AC83D005D006D0078D027F00C3EA9BEF9CD007D00640519005C975F000C01A
:205D0A0007C006C0051273C5AB8278B7EBF290065F74C9F07405A3F0E4A3F0900662EBF0EC
:205D2A00E4A3F09004CD75F000126D74D005D006D00778ADE24420F278B0E2FB08E2FC78E7
:205D4A0087EBF208ECF2C2318061783874CDF2087404F28D82C007C006C005121E9BE58233
:205D6A0078B7F212233CD005D006D0079233E433FC78AD13E292E5F278ADE230E52D78B039
:205D8A00E2FB08E2FC7887EBF208ECF278ABE2FC78AB04F28C82C007C006C005122413D0E1
:205DAA0005D006D007800478B7E4F278B7798FC3E2F5F0E395F05021C007C006C00574112D
:205DCA00C0E0747DC0E07480C0E0120FAA158115811581D005D006D0077882E2B40103D37E
:205DEA008001C39233E43378AD13E292E6F2C007C006C005122339D005D006D0079233E40A
:205E0A0033FC78AD13E292E7F27882E26003025F7778B7E26003025F77BD12005003025FDE
:205E2A007778B2E224FFFC08E234FFFD78A9C3E29C08E29D4003025F777850C3E294080887
:205E4A00E294004003025F777895E2FC08E2CC25E0CC33FD788BE2C39CFC08E29DFD788940
:205E6A00C3E29C08E29D4003025F7778A97950E2F5F0E3B5F00B08E2F5F009E3B5F002800F
:205E8A0002800B78A9E22401F208E23400F278B77402F278A9E2FC08E2CC25E0CC33FDEC08
:205EAA00243AFCED3401FD0CBC00010D7850E2FA08E2CA25E0CA33FBEA243AFAEB3401FBD7
:205ECA008A828B83A3E08C828D83F078A9E2FC08E2CC25E0CC33FDEC243AFCED3401FD9062
:205EEA00065FECF0EDA3F0E4A3F09006627402F0E4A3F09004CD75F000C007C006126D7445
:205F0A0090065F74A9F0E4A3F07460A3F09006627402F0E4A3F09004CF75F000126D74D037
:205F2A0006D00778B77404F278A9E22401F208E23400F278A97950E2F5F0E3B5F00B08E289
:205F4A00F5F009E3B5F0028002800B78A9E22401F208E23400F278ACE4F208E254E0F27806
:205F6A00ADE2547FF278ADE254DFF280537882E2601E78B7E270197882E2B40202800302B7
:205F8A00559F7850E2F5F008E245F0600302559F78B7E22404F582C007C006124D4AAC82E8
:205FAA00AD83D006D0077889E2C39CFC08E29DFD78ACECF208ED541FF5F0E254E045F0F2AC
:205FCA007882E2B402267850E2F5F008E245F0701BC007C006120ECBAD82D006D0077C00F6
:205FEA0043048078AEEDF208ECF2800A78AE7950E3F20809E3F278B7E224CDFCE43404FD9A
:20600A007B0090065F74ACF0E4A3F07460A3F09006627404F0E4A3F08C828D838BF0C007E1
:20602A00C006126D74D006D00778ADE220E52C78B7E2601E78ACE2FC08E2541FFD4C60120F
:20604A00D2B67885E2FC08E2FD7887ECF208EDF28009788774FFF20874FFF27882E2700F73
:20606A0078B7E27006D22CD22B8010C22B800C7882E2B401067893E2547FF2302C217882CB
:20608A00E2B4011BC22C78957999E2F308E2F5F0E325E0C5F033C5F0F309E5F0F3800E7844
:2060AA0095E2FC08E2FD7899ECF208EDF2789BE2FC7D00789CE2FA7B00ECC39AFCED9BFD03
:2060CA00BC6405BD0002801F78B7E22404F582C007C006124D4AAC82AD83D006D007789D2D
:2060EA00E22CF208E23DF278B7E22404FD786674CDF2087404F278879004BFE2F008E2A313
:20610A00F078897968E2F308E209F38D82C007C0061238F9D006D007401078B7E2600BC0D0
:20612A0007C00612233FD006D007789FE2600C78A0E4F208F278A4E4F208F2C007C006128F
:20614A000EA5123A52123951D006D00778B7E2700302559F78ACE2FC08E2541FFD4C700306
:20616A0002559FC2B602559FA22E22AE82AF8378B274012EF2E43F08F222AE82AF83788500
:20618A00EEF208EFF222E58224FF922F221236BAAF82900678EFF0E4A3F0E4A3F0E4A3F018
:2061AA009003E8E4F5F0126F91AC82AD83AEF0FF900653ECF0EDA3F0EEA3F0EFA3F090129A
:2061CA000075F07AE4126C33AC82AD83AEF0FF74082CF560E43DF561E43EF562E43FF563DE
:2061EA00AA60E561C4CAC4540F6ACA540FCA6ACAFBE562C454F04BFBAE62E563C4CEC45469
:20620A000F6ECE540FCE6ECE7897EAF208EBF2900678EAF0EBA3F0E4A3F0E4A3F0902710D1
:20622A00E4F5F0C003C002126F9185826485836585F066F567900678E560F0E561A3F0E5E4
:20624A0062A3F0E563A3F0900271E4F5F0126F91AC82AD83AEF0FFD002D003C3E5649CE559
:20626A00659DE5669EE5679F500A789774012AF2E43B08F2789790066CE2F008E2A3F0903B
:20628A00000D126E74E5828583F07895240DF2E435F008F2300634788F7474F27898E2F52F
:2062AA00F018E225E0C5F033C5F0F208E5F0F27897E2FE08E2CE25E0CE33CE25E0CE33FF07
:2062CA007895E22EF208E23FF28005788F74F8F27895E2F56008E2C56025E0C56033F5619A
:2062EA007890E560F208E561F27897900678E2F008E2A3F0E4A3F0E4A3F0788FE2FA7B005D
:20630A007C007D008A828B838CF0ED126F9185826485836585F066F5677895E2F56808E2A0
:20632A00F569E4F56AF56BE5682564FCE5693565FDE56A3566FEE56B3567FFEC2CF564ED6A
:20634A0033F565EE33F566EF33F567AA60AB61E4FEFFEA2564FAEB3565FBEE3566FEEF351D
:20636A0067FFE5682AFCE5693BFDE56A3EFEE56B3FFF789FE2603578A27438F2087401F2E6
:20638A00784174A8F2087403F208E4F208F27845ECF208EDF208EEF208EFF28C828D838EE4
:2063AA00F0EF122C7DAC82AD83AEF0FFC374FF9C741F9DE49EE49F50087CFF7D1F7E007FCB
:2063CA0000C3EC94A8ED9461EE9400EF940040087CA87D617E007F00788BECF208EDF2785A
:2063EA0097E2F56808E2F569E4F56AF56BE5682568F568E56933F569E56A33F56AE56B3358
:20640A00F56BE5682568F568E56933F569E56A33F56AE56B33F56B7895E2F56408E2F565AC
:20642A00E4F566F567E5642568F568E5653569F569E566356AF56AE567356BF56BE5682537
:20644A0068F568E56933F569E56A33F56AE56B33F56BE5682568F568E56933F569E56A3332
:20646A00F56AE56B33F56B7890E2F56008E2F561E4F562F563E5602568F568E5613569F5B6
:20648A0069E562356AF56AE563356BF56BE5642568FCE5653569FDE566356AE567356B78F7
:2064AA008DECF208EDF2785DE27E0024F6FFEE34FFFE9006897402F0E4A3F08F828E8312E3
:2064CA0071D9AE82AF83789790066CE2F008E2A3F08E828F83126E74AE82AF837895E22E11
:2064EA00F208E23FF2788B7995E3F5F0C3E295F0FE09E3F5F008E295F0FF7897900611E2AD
:20650A00F008E2A3F08E828F83126757AE82AF83788FE2FC7D00C3EC9EED9F50048C068D02
:20652A00078E8212234278AE74FFF20874FFF2788374FFF20874FFF2900667E4F09006682F
:20654A007410F0E4A3F090014A75F000126DE8900667E4F09006687410F0E4A3F090013A1A
:20656A0075F000126DE878AB7413F290060F7406F0C2B7C22A227890E2C0E008E2C0E07887
:20658A0050E2C0E008E2C0E07426C0E0747DC0E07480C0E012359DE58124F9F581900001C8
